:1000000000000220AD010000D9010000D90100006C
:10001000D9010000D9010000D9010000D901000078
:10002000D9010000D9010000D901000071040000CD
:10003000D9010000D9010000A1040000E50400007E
:10004000D9010000D9010000D9010000D901000048
:10005000D9010000D9010000D9010000D901000038
:10006000D9010000D9010000D9010000D901000028
:10007000D9010000D9010000D9010000D901000018
:10008000D9010000D9010000D9010000D901000008
:10009000D9010000D9010000D9010000D9010000F8
:1000A000D9010000D9010000D9010000D9010000E8
:1000B000D9010000D9010000B1170000D9160000D5
:1000C000D9010000D9010000D9010000D9010000C8
:1000D000D9010000D9010000D901000010B5054C7C
:1000E000237833B9044B13B10448AFF300800123E4
:1000F000237010BDC8000020000000004837000039
:10010000084B10B51BB108480849AFF300800848F8
:10011000036803B910BD074B002BFBD0BDE81040AE
:10012000184700BF0000000048370000CC00002046
:10013000C400002000000000154B002B08BF134B2B
:100140009D46A3F5803A00218B460F461348144A7A
:10015000121A01F02AFE0F4B002B00D098470E4BCD
:10016000002B00D098470020002104000D000D480E
:10017000002802D00C48AFF3008001F0DDFC200025
:10018000290001F0C3FB01F0C3FC00BF0000080020
:10019000000002200000000000000000C800002055
:1001A0000802002000000000000000000648804710
:1001B0000649074A074B9A42BEBF51F8040B42F862
:1001C000040BF8E7FFF7B8FF9D0300007C37000041
:1001D00000000020C8000020FEE700BF294AD36AC3
:1001E00003F47053B3F5805F2AD0B3F5005F24D0D9
:1001F000B3F5006F11D0D36803F4E063B3F5007F6B
:100200003DD020D9B3F5806F37D0B3F5A06F32D091
:10021000B3F5407F24D0002301E01B4B1B68194A33
:100220001A4910685268C0F382300130B3FBF0F015
:1002300002F00F03D84008607047154B1B68EEE7CB
:100240004FF40043EBE76BB1B3F5807FE3D1114B83
:10025000114AD86C114BB0F1985F28BF1346DEE706
:100260000F4BDCE70B4B0F4AD86C0F4BB0F1985F8C
:1002700028BF1346D3E70D4BD1E70D4BCFE70D4B0E
:10028000CDE700BF00800C400400002000020020E9
:1002900000000020B081E00F40B56400C0CF6A00CC
:1002A000809FD500804F120040420F00003FAB01FD
:1002B000406F4001C0D8A70000487047006CDC02C6
:1002C000274AD36A03F47053B3F5805F24D0B3F5A3
:1002D000005F1ED0B3F5006F11D0D36803F4E06364
:1002E000B3F5007F39D01AD9B3F5806F33D0B3F5A9
:1002F000A06F2ED0B3F5407F1FD0002001E0194B36
:100300001868174B1B68C3F382330133B0FBF3F05B
:100310007047154B1868F4E74FF40040F1E773B1EC
:10032000B3F5807FE9D1114A114BD06C114AB0F17D
:10033000985F2CBF18461046E3E70F48E1E70B4AE9
:100340000E4BD06C0E4AB0F1985F2CBF1846104689
:10035000D7E70C48D5E70C48D3E70C48D1E700BFF6
:1003600000800C400400002000000020B081E00F5D
:1003700040B56400C0CF6A00809FD500804F120056
:1003800040420F00003FAB01406F4001C0D8A700C2
:10039000014B1868704700BF04000020704700BF81
:1003A0004FF40040704700BF4FF47A70704700BFB1
:1003B000014B1868704700BF0000002070B50B4B60
:1003C0000B4D0C4C00221A705A702860216000F00E
:1003D0006DFFC30500D470BD00F04AFF2368002BF9
:1003E000F9D0BDE870400420184700BFEC000020A1
:1003F000E8000020E4000020831EDAB2012A00D9C0
:10040000704705490228CA5C02F10102CA54F7D1BB
:10041000024B01221A607047EC00002004008C435C
:1004200090E80C0010B49C6801328C609C684B60B2
:10043000616099605DF8044B08610260704700BF1D
:1004400043688168026910B49960816854684B60A0
:100450001368844208BF5160013B002101615DF8CF
:10046000044B1846136070470000000000000000B5
:10047000074B19680868B0E8F00F80F30988BFF3EC
:100480006F8F4FF0000080F311884EF00D0E704713
:1004900040010020000000000000000000000000FB
:1004A000EFF30980BFF36F8F0D4B1A6820E9F00F4F
:1004B00010602DE908404FF0BF0080F3118800F074
:1004C000CBF84FF0000080F31188BDE808401968B0
:1004D0000868B0E8F00F80F30988BFF36F8F7047AA
:1004E0004001002008B54FF0BF0383F31188BFF32C
:1004F0006F8FBFF34F8F00F00BF818B1034B4FF025
:1005000080521A60002383F3118808BD04ED00E0D7
:100510002DE9F04F454B83B01B68C3B9444B1D68B0
:1005200001351D60002D5ED0424B01931B689D423A
:100530001BD2DFF82081404F00243B68DB6A03EBCD
:10054000830358F82330022B28BF012404E03B4AE0
:100550000024136801331360394B1B68002B18BF4C
:100560000124204603B0BDE8F08FDFF8DC90DFF80F
:10057000E480314F334E00242BE0334B1B68DB68A3
:10058000D3F80CB0DBF804200BF1040A954240D3F9
:100590005046FFF755FFDBF828200BF118000AB191
:1005A000FFF74EFFDBF82C003268012303FA00FE50
:1005B00000EB80004EEA0202514608EB80003260F8
:1005C000FFF72EFF3968DBF82C20CB6A9A4228BF50
:1005D0000124D9F800301B68002BCED1019A4FF0CE
:1005E000FF331360A9E7184B184A19681868146894
:1005F00017491C6010600A6801320A601A681268A4
:1006000052B90C4B1A4601934FF0FF331360134657
:100610008CE7019B1A6090E71B68064ADB68019231
:10062000DB685B681360134680E700BF3C01002075
:1006300044010020F000002040010020FC000020C8
:10064000500100204C010020F8000020480100204B
:10065000F400002000010020114B1B68DBB9114998
:10066000114A0B601368B3FA83F3DBB2C3F11F03C3
:100670000E4803EB83039B00C1184A680833526895
:1006800003449A424A6008BF5268094B08BF4A6057
:10069000D2681A607047034B01221A60704700BF8E
:1006A0003C010020500100204C01002000010020EE
:1006B000400100208368F0B4B3FA83F30678C3F1F5
:1006C0001F0416B1184B01221A6018498B6BDA0708
:1006D00006D40B6813F4405F02D0CA6BD307FCD476
:1006E000827C124D83886A60C768417843EA471765
:1006F000827841F008013943477C037C41EA820259
:1007000042EA071242EA833343EA04234FF0FF32FE
:100710002A632B602EB10649034A002328680B6028
:100720001360F0BC704700BF000702430010084090
:100730000C000243064A936BD80706D4136813F4DF
:10074000405F02D0D36B9B07FCD4014BD96070474C
:1007500000100840014BD868704700BF00100840E7
:1007600008B500F00F03013B052B5ED8DFE803F06E
:100770003B4F265D5D03404B1B6813F080532AD02E
:100780004BBB3E4B984257D03D4B984259D13A4BC8
:100790009B6AC3F38103022B35D0032B5BD0012B63
:1007A0004FD0364B98425FD0354B984219D1324BDF
:1007B00014209B6A33FA00F05AD108BD2E4A936A7E
:1007C00003F00C03082B18D00C2B04D0042B3CD0C6
:1007D000936ADB02D5D5294B98422DD0284B9842FD
:1007E000D5D0002008BD244BDB6A03F47053B3F569
:1007F000805F2AD0B3F5005FEDD1204B98421BD02B
:100800001F4B9842C3D0BDE80840FFF7D1BD1A4A3C
:10081000936A03F00303022BEFD0032BDBD0012BF1
:1008200013D0936ADA03D6D4ABE7144B984203D0C3
:10083000134B9842ABD0B4E70F4B9B6A03F0030312
:10084000A9E7BDE80840FFF7ABBD0C4B9842F3D0D9
:100850000B4B98429BD0FFF7C1FC0A4B0A4A1B681E
:1008600012680133D84008BD034B10209B6AA1E7F2
:10087000BDE80840FFF798BD00800C4002001A0058
:1008800003001C0078009043A000904300F00F008C
:100890000138052843D8DFE800F0301F0E4242033C
:1008A000234B1B6813F080533BD0B3F1805F0CBF28
:1008B0000820012070471E4A936A03F00C03082B9E
:1008C00031D00C2B31D0042B27D0936A13F4801F26
:1008D0000CBF012009207047154B986A00F00300F7
:1008E00002281BD0032820D0012816D09B6A13F4BD
:1008F000803F0CBF0120092070470D4BDB6A03F4D9
:100900007053B3F5805F08D0B3F5005F0BD0B3F53B
:10091000006F0CBF042005207047032070470020A3
:10092000704707207047022070470620704700BFBD
:1009300000800C4000F47810B0F5801F08B562D03C
:100940000ED9B0F5C01F36D043D9B0F5E01F3BD06B
:10095000B0F5281F6DD0B0F5D01F5DD0002008BDC8
:10096000B0F5802F5DD01ED9B0F5402F40D0B0F546
:10097000602FF3D1424B5B6903F4E063B3F5007F72
:1009800074D06AD9B3F5C06F65D0B3F5E06F6BD0A2
:10099000B3F5407FE2D13B4BDB6CB3F1985F2CBFEA
:1009A00039483A4808BD50B3B0F5003FD6D1BDE84C
:1009B0000840FFF713BC3648FFF7D2FE304B1B6FE1
:1009C000C3F30113D84008BD3148BDE80840FFF724
:1009D000C7BEB0F5A01F35D0B0F5B01FBED12C48B2
:1009E000FFF7BEFE264B1B6F03F00303D84008BD84
:1009F0002848FFF74BFF0728BCD00828AED1BDE838
:100A00000840FFF75DBC2448FFF7AAFE1C4B9B6E15
:100A1000C3F30313D84008BD1F48BDE80840FFF7E3
:100A20009FBEFFF74DFC164B9B6803F00F03D840A9
:100A300008BD1948FFF794FE114B9B6E03F00303AA
:100A4000D84008BD1448FFF78BFE0D4B9B6EC3F3D7
:100A50000323D84008BD114808BD7BB1B3F5807FA2
:100A60007FF47CAF0E4808BD0E4808BD054BDB6C1B
:100A7000B3F1985F2CBF0C480C4808BD0C4808BD6A
:100A800000800C40B081E00F804F120040420F0008
:100A900003001C0006000C0002001A00003FAB011E
:100AA000C0D8A700406F400140B56400C0CF6A00C5
:100AB000809FD500F0B5C0F30323013B83B004460B
:100AC000092B0CD8DFE803F03537190B0B0D390B68
:100AD0000B05264DC4F304342C44A400216003B05C
:100AE000F0BD234D0120234AC4F30434536DDB07CA
:100AF000F2D4136D1842FCD1EEE71F480191FFF7C5
:100B000019FF1E4B0199DB6CC3F307434A2B17D027
:100B1000792B15D01A4A482B0CBF13460023984254
:100B2000184A194B94BF002001201060174D18601F
:100B3000D0E7174DCEE7174DCCE7174D1020D2E781
:100B4000164E174A3369B569F66903F03F07C6F3D5
:100B5000031343EA072305F0F005094E2B43B3F5D1
:100B6000017F2CBF13463346D9E700BFC003E41012
:100B7000C002E41000800C4000430200B081E00F8E
:100B80000048E80178009043A00090430002E41080
:100B90004000E4102002E4100003E410D0FF0FE056
:100BA00000366E0138B500F00F04631E052B12D815
:100BB000DFE803F02A1C1C111116A64B984240F2E4
:100BC00001810522A4494B6823F0070313434B60BE
:100BD0000CB10023CB63A14AA14B12681B6838BD3E
:100BE000072919D0082900F0DF8038BD013908290C
:100BF00011D8DFE811F004012001130110001000EA
:100C00004B01100010006B010239032903D8DFE803
:100C100001F083092B5E38BD924A136823F080539C
:100C20001360D8E7904A032440218E4B1962136861
:100C3000002BFCD000F0B6FAFFF73EFB41F6713214
:100C4000854BDD6BDA635B6803F00703042B68D820
:100C5000012202FA03F313F0130F62D07D4B984286
:100C600040F23A81042260E0804BDB6CC3F307431F
:100C70004A2B00F05581792B00F05281482B00F06F
:100C8000948100231846794AD26CC2F307424A2A5B
:100C900000F07981792A00F07681482A18BF012373
:100CA0006E496F4A0B601360FFF772FB6D4A694B28
:100CB0000224984213684FF0040196BF23F06003AA
:100CC00043F0600343F020031360694AADE7674BCC
:100CD000DB6CC3F307434A2B00F00E81792B00F045
:100CE0000B81482B00F04C81002318465F4AD26CE0
:100CF000C2F307424A2A00F03181792A00F02E819E
:100D0000482A18BF01235549554A01240B60136036
:100D1000214602F2E44288E7564A04244FF48071E7
:100D200083E74C4B984245D905224B494B6823F049
:100D3000070313434B600DB10023CB63494B4E486F
:100D40005C62FFF7F7FD494BDB6CC3F307434A2BAB
:100D500040D0792B3ED03F4A482B0CBF134600238E
:100D600098423E4A3E4B94BF00200120106018601C
:100D700000F018FAFFF732FA41F67132364BDC6BAD
:100D8000DA635B6803F00703042B3FF616AF01221A
:100D900002FA03F313F0130F3FF40FAF2D4B9842F9
:100DA00040F2A28004220DE72E4A136843F08053DC
:100DB000136010E7314B324A034493428CBF022246
:100DC0000322B2E72D4B2E4A034493428CBF0222EA
:100DD0000322F7E62B4C2C4A2369A169E46903F04E
:100DE0003F05C4F3031343EA052301F0F001194C56
:100DF0000B43B3F5017F2CBF13462346B0E7002514
:100E00002B462946022C00F09F8016498A6A22F45C
:100E1000801323F00C032B438B62DCE6114B402143
:100E2000114A19621368002BFCD000F0BBF90425AD
:100E300000230121E6E70B4B4FF480710D4A196244
:100E40001368002BFCD000F0ADF908250023022127
:100E5000D8E700BF0048E80100000C40780090434C
:100E6000A000904300800C409C059043B081E00FAF
:100E70008C059043A405904300430200FFDB0BFF69
:100E8000FF23F400D0FF0FE000366E01FFF7A6F954
:100E9000524BDB6CC3F307434A2B00F08980792B5C
:100EA00000F086804E4A482B0CBF13460023984220
:100EB0004C4D4D4B4D4A94BF00200120012128602C
:100EC00018600C251160002303219BE74FF4801567
:100ED0004FF48033002195E7454B464A0344934243
:100EE0008CBF0022012220E7414B424A0344934237
:100EF0008CBF0022012265E63F4A012011699369F7
:100F0000D26901F03F01C2F3031242EA012203F069
:100F1000F0031343B3F5017F2CBF00230123E5E663
:100F2000354A012011699369D26901F03F01C2F38A
:100F3000031242EA012203F0F0031343B3F5017FE9
:100F40002CBF002301239EE62C481943826A22F419
:100F5000803323F003030B4383623CE626490C698C
:100F60008A69C96904F03F04C1F3031141EA04210D
:100F700002F0F0020A43B2F5017F28BF0346C2E641
:100F800001231846B2E61C490C698A69C96904F054
:100F90003F04C1F3031141EA042102F0F0020A43C5
:100FA000B2F5017F28BF03467AE6012318466AE6B8
:100FB000114B134A1D699969DB6905F03F05C3F3BD
:100FC000031343EA052301F0F001054D0B43B3F58C
:100FD000017F2CBF13462B4669E700BFB081E00FAD
:100FE0000048E80178009043A00090431008904327
:100FF000FFDB0BFFFF23F400D0FF0FE000800C406D
:1010000000366E0110B404282ED8DFE800F0232942
:101010001B031F0016480223012469B1154B1C62F3
:101020001AB95DF8044B00F0BDB80368002BF8D185
:101030000368002BF9D0F4E70E4A5DF8044B136205
:1010400000F0B0B80C4808230424E6E70B4820233E
:101050001024E2E70A484FF400734FF48074DCE791
:10106000084880234024D8E75DF8044B704700BF50
:101070008405904300800C408C0590439405904378
:10108000A40590439C05904310B445F60E0440F22D
:1010900055111C4B1C4AD3F88400C3F884401268D5
:1010A00000F0010002F470541140B4F5805F196241
:1010B00002F0010111D0B4F5005F1CD0B4F5006F4F
:1010C00012D011B90F4B02221A6218B10D4B002237
:1010D000C3F884205DF8044B7047DA6A094C1206A5
:1010E000FBD503236362ECE7DA6A064C1207FBD5F3
:1010F00002236362E5E7DA6A024C9205FBD504231A
:101100006362DEE700800C40540100201F4B70B486
:10111000DB6A1F4C1F4923600B691F4A43F004031D
:101120000B6111699369D26901F03F01C2F30312A7
:1011300042EA012203F0F0031343B3F5827F0BD39D
:10114000B3F5017F08D0002230BFA2B9C0B923682F
:101150005B0518D570BC7047104B114E1968012201
:101160000E40C3F880605D6825F04605C3F88450E2
:1011700030BF002AEAD0094B1E605D600028E6D02F
:1011800070BCFFF781BF70BCFFF728B800800C402F
:101190005401002000ED00E0D0FF0FE000E100E08E
:1011A0009CF1FD00024A034BD26A1A60704700BFEF
:1011B00000800C405401002030B4094D847801793E
:1011C0000378EA6A2143C07841EA034122F480337C
:1011D00023F00F0341EA40021343EB6230BC704737
:1011E00000600C4070B4184BC4788179027945795D
:1011F00021435C6B41EA820141EA450224F01F0170
:101200000A435A639A6BC17922F060020A439A63D7
:10121000DA6B017A22F06002457A0A430178DA63D8
:10122000427886781C6B294341EA820124F06700EA
:1012300041EA4602054C0649024385F001001A6363
:101240002560086070BC704700600C4080088C43CB
:101250000400944390FAA0F0B0FA80F000F18750B7
:10126000003100F5A02018BF012180000160704707
:101270000B4B01220B499A608B6813400BD010B4C2
:101280004AF6E854084800238C6002605DF8044B7D
:1012900003608B60704704490A600B60704700BFB1
:1012A00000A00C4000600C4080048C433B4B5B680A
:1012B00003F001029907104604D513F0810F08BF0F
:1012C00042F00200590704D513F0910F08BF40F017
:1012D0000400190701D5002A5CD0D90603D5990767
:1012E00008BF40F01000990604D54EF6DF71194092
:1012F00000294CD0590604D54EF69F71194000299B
:1013000042D0190604D540F219711940002938D08D
:10131000D90503D540F21961194079B3990503D570
:1013200040F21F41194031B3590503D540F21F2146
:101330001940E9B1190500D5BAB1D90400D58AB16F
:10134000990400D55AB1590400D52AB11B0402D51D
:101350000AB940F40040704740F48040F6E740F49A
:101360000050F0E740F48050EAE740F40060E4E722
:1013700040F48060DEE740F40070D5E740F4807010
:10138000CCE740F08000C3E740F04000B9E740F010
:101390002000AFE740F008009FE700BF00A00C402E
:1013A00030B1012802D1044BD86870470020704743
:1013B000014B9868704700BF0000084020B1012829
:1013C00001D1024B19607047014BFBE70C0008404C
:1013D000080008404FF08643186070470B4A516977
:1013E000136901F00F01C3F3811343EA8103837092
:1013F000136903F03F0343709169D36901F0F00270
:10140000C3F3031313430370704700BFD0FF0FE013
:10141000F8B5044640F6AA6741F2050641F6F970B0
:101420002D4A00239442E7600D4623606660A36066
:101430006361E364A06463654AD0284AA36594426B
:1014400043D0274B9C4240D0AB7C1BB1236843F078
:1014500080432360EB7C1BB12B7D43F01003A3651D
:10146000298A6B7BEA890B43686813436360AE6823
:101470002F7B18B3202F26D01CD9402F18D0602FD7
:1014800013D1042306FB03F3800000EB5300B0FBF1
:10149000F3F32268043B22F0600222602168114AC3
:1014A0009B011A400F43276062612B78E360F8BD0F
:1014B0000623E7E7002FF8D11023E3E70A48FFF7F8
:1014C00039FA202FD8D10823DCE70023E365BBE7F6
:1014D0002365A365B8E700BF00C0004000C400401A
:1014E00000C80040C0FF1F004081040083680A78E4
:1014F00023F077030AB143F040038A780AB143F03E
:1015000020034A780AB143F01003CA78134383607A
:10151000704700BF03695B06FCD54163704700BF9D
:1015200070B5112088B00521FFF73CFB3948012137
:10153000FFF7C0FA384D39480121FFF7BBFA02AC7A
:1015400037480121FFF7B6FA0FCD0FC495E8030025
:10155000344D84E80300052200244FF480532846CC
:1015600002A94FF4E1368DF81520ADF81830049635
:10157000ADF816408DF814408DF81A408DF81B40D8
:101580008DF81C40FFF744FF284601A98DF8044060
:101590008DF805408DF806408DF80740FFF7A6FF4F
:1015A000214B5A6822F4700242F480125A605A6841
:1015B00022F0704242F080425A601A6D22F470228A
:1015C00042F480221A659A6F42F010029A671A6FED
:1015D00022F4702242F480221A67D3F8942022F475
:1015E000706242F48062C3F89420D3F8942022F40D
:1015F000704242F48052C3F894206B6D23F4E06390
:1016000043F440736B656B6D43F003036B6508B087
:1016100070BD00BF4081040050340000004204004F
:1016200000D2040000E4004000600040094A0A487B
:101630000A4B0B49126800681B68096803FB02002B
:1016400019B102FB01F200EB1220064B9B6800EB84
:1016500013207047580100205C0100206401002025
:101660006001002000100840014B1860704700BF67
:101670005C010020014B1868704700BF5C0100202E
:1016800038B5074A074D084C00234FF080712B6096
:101690002360116000F068FC044B186038BD00BF87
:1016A0006401002058010020600100205C0100203E
:1016B000024B186801301860704700BF58010020C5
:1016C000014B1860704700BF58010020014B18689B
:1016D000704700BF5801002010B5104CA36A9A074C
:1016E00010D40E4CA36ADB070BD5FFF7E1FFFFF721
:1016F000EDFFC4F80001FFF7BDFF0123C4F80401AA
:10170000236310BD0020FFF725F800F5807100204D
:10171000FFF710F802232363E3E700BF001008403F
:101720000023034A18464FF480711360FFF702B894
:101730007001002010B5FFF7C9FF044CC4F8000188
:10174000FFF798FFC4F8040110BD00BF0010084067
:1017500038B5134B13499C681A69134D0A60D3F8C6
:101760000031A24288BF01332B600D4B24F0FF04EF
:10177000D3F80401FFF778FF2868FFF7A1FF0B4AB1
:101780002B68116804F58074C1F5807103FB01F1C9
:10179000C9B221440020BDE83840FEF7CBBF00BFEE
:1017A000001008406C01002068010020700100203A
:1017B00008B50020FFF7F4FD802809D00020FFF7CE
:1017C00009FE00208021FFF7F9FD0120FFF702FE4E
:1017D0000D4B07229A61EFF311834FF0BF0282F3A2
:1017E0001188BFF36F8FBFF34F8FFEF791FE38B1B3
:1017F000064B4FF080521A60BFF34F8FBFF36F8FCD
:10180000002383F3118808BD0000084004ED00E0C8
:1018100010B50178044631B10A48FFF77BFE14F891
:10182000011F0029F8D107480A21FFF773FE054878
:101830000D21FFF76FFEBDE8104002480021FFF7C1
:1018400069BE00BF00E4004070B5194B194E18681E
:1018500086B0002440230125082201908DF8133022
:101860008DF806208DF814308DF80C408DF80D4061
:101870008DF80E408DF80F408DF810408DF8114016
:101880008DF812408DF807408DF815508DF80450F2
:101890008DF8085003A83460FFF7A4FC01A8FFF7F7
:1018A0008BFC21460220FFF7D5FC356006B070BDE9
:1018B00068340000C0058C43F0B5124D87B001AC10
:1018C0000FCD0FC42F6800230326802101224FF47F
:1018D000005501A827608DF804308DF806308DF88A
:1018E00015308DF816308DF814208DF80560ADF8A0
:1018F00008500391FEF7DEFE034A536B33435363F4
:1019000007B0F0BD70340000001008402DE9F04F22
:101910006D4B85B01C6803A8FFF760FDB4F1805FD4
:101920000AD39DF80C30032B06D1684A136823F0C4
:10193000500343F010031360654B664E5B683360E1
:10194000FFF796FC00200146FEF738FD0320FEF766
:1019500053FDFFF7E5FD604B60481C68FFF758FF3B
:10196000002C00F0AD805E48FFF752FF5D4801217A
:10197000FFF7A0F801210A460020FFF743FBFFF71D
:1019800063FF594B00244FF0FF32702118460C279B
:1019900001251A629F6059611C605C601C619C613A
:1019A000DC61DD60FFF76CFE4FF60903326813401F
:1019B000B3F5084F7DD02A4620462946FFF722FB83
:1019C000FFF77AFFFFF7ACFE484A494B12681C60EC
:1019D000FFF7B0FE474B4FF00042DFF82481DFF8FD
:1019E0001C91C3F880211A600020FFF71FFE424BB4
:1019F000424C1860184600F0C5F805460FCD0FC4DC
:101A00000FCDD9F808C0DFF804A1D9F80460D9F8DF
:101A1000007000968AFB0CE60196009E0FC48AFBBC
:101A200006BE8AFB07BA019AF3174FEAEC71F81762
:101A3000C1EBA201C3EBAE0EC0EBAA0001EB810B20
:101A40000EEB8E0A00EB80032A683031ACEB4B05BD
:101A5000A6EB4A06A7EB43033035C9B230360EF188
:101A6000300E30333030226088F8015088F8001092
:101A700088F8036088F802E088F8053088F80400E8
:101A800039B11F4C1F48FFF745FD14F8011F00290D
:101A9000F8D11C480A21FFF73DFD1A480D21FFF738
:101AA00039FD18480021FFF735FD0120FFF72EFB17
:101AB0009AE7FFF735FEFFF74BFE0C4BDD6189E738
:101AC0001148FFF7A5FE51E7FC81E00FC0800C40F4
:101AD00000A00C407401002094030C4284340000E8
:101AE0008C34000000430200A401002000100840D4
:101AF0000C00024300E100E0C8010020800100204A
:101B00007801002000E40040A034000067666666AB
:101B100008B5074B044613B10021AFF30080054B15
:101B20001868836A03B19847204601F083FC00BF20
:101B300000000000B83400000E4B70B51E460E4C7D
:101B40000025E41AA410A54204D056F82530984781
:101B50000135F8E701F070FC084B094C1E46E41A09
:101B6000A4100025A54204D056F825309847013529
:101B7000F8E770BDBC000020BC000020BC000020C5
:101B8000C000002038B5074B05461C68E36B1BB945
:101B9000242000F0EFF8E0632846E16BBDE8384010
:101BA00000F002B8680000202DE9F0410C468046A4
:101BB00000F088FE21460746404600F087FE466951
:101BC000044606F26C76B30705D1642296FBF2F365
:101BD00002FB13634BB94FF4C87596FBF5F305FB95
:101BE0001365B5FA85F35B0900E001235F4A3025F0
:101BF00005FB032500F082FC00F082FC5C4B1B68B7
:101C0000F3B17B689E4205D13968D8F80030FA6993
:101C100041B90AE0304600F0CDFB0028F4D14FF086
:101C2000FF330DE0934208DB01E0934207DABA6B21
:101C30009342ACBF0023012302E0002300E0012314
:101C40002362236A3C20012B0CBFF96B396A4FF4E5
:101C5000616391FBF3F603FB161393FBF0F200FBB9
:101C6000123061682368891AA2681B1A921B3B2BE9
:101C700023606160A26003DD013161603C3B04E0F0
:101C8000002B03DA013961603C33236063683B2B2E
:101C900003DD0132A2603C3B04E0002B03DA013A91
:101CA000A2603C336360A368172B22DDE269183B16
:101CB0000132E261A269A3600132062AC8BF002294
:101CC000A261E26823690132E26055F823108A427A
:101CD00046DD01330C2B08BF6369A2EB0102E26011
:101CE00005BF013300222361226104BF6361E26109
:101CF00036E0002B34DAE2691833013AE261A26976
:101D0000A360013A48BF0622A261E268013AE2609C
:101D100032BB2369013B01D423611DE00B23236106
:101D200063695A1E12F0030F626103F26B7305D1EF
:101D3000642193FBF1F201FB12324AB94FF4C871EE
:101D400093FBF1F201FB1233B3FA83F35B0900E07A
:101D5000012303F5B673E361236955F82330E3608B
:101D600000F0CDFB2046BDE8F08100BF1C3500002F
:101D7000F0010020024B0146186800F0B5BA00BF20
:101D800068000020024B0146186800F069BA00BFE5
:101D90006800002010B5431E0A44914204D011F897
:101DA000014B03F8014FF8E710BD0346024493428C
:101DB00002D003F8011BFAE77047000037B501684D
:101DC00004463B2911D93C22684600F023FD019AC4
:101DD0006168009B002A0B446360BBBF3C3203F187
:101DE000FF3322602260B8BF636061683B2911D96C
:101DF0003C22684600F00EFD019AA168009B002A73
:101E00000B44A360BBBF3C3203F1FF3362606260EE
:101E1000B8BFA360A168172911D91822684600F03D
:101E2000F9FC019AE168009B002A0B44E360BBBF08
:101E3000183203F1FF33A260A260B8BFE3602169EA
:101E40000B2911D90C22684600F0E4FC019A616963
:101E5000009B002A0B446361BBBF0C3203F1FF33CC
:101E600022612261B8BF636163699D0712D1642159
:101E700093FBF1F201FB123272B903F26C734FF46F
:101E8000C87193FBF1F201FB1233002B14BF1C232A
:101E90001D2302E01C2300E01D23E268002A37DC3A
:101EA000E568002D5CDC21690139216101311CD11B
:101EB00063690B22591E88076161226112D1642275
:101EC00091FBF2F002FB101171B903F26B734FF446
:101ED000C87293FBF2F102FB1133002B14BF1C23D9
:101EE0001D2302E01C2300E01D232269012A0EBFEE
:101EF0001A461C4951F822202A44E260D0E7994250
:101F00002EDD18460132091A0C2AE160226109D03F
:101F10002269E168012AF2D0124850F82200814279
:101F2000F0DC1DE0636900215A1C216191076261A8
:101F300012D1642092FBF0F100FB112272B903F27E
:101F40006D734FF4C87193FBF1F201FB1233002B58
:101F500014BF1C231D23DBE71C23D9E71D23D7E770
:101F600003B030BDEC3400002DE9F047804600F0AE
:101F7000A9FC81464046FFF721FF98E80C003C2071
:101F800000FB0323D8F808204FF4616707FB0230F9
:101F9000D8F81030AF4AD8F80C4052F82320013C52
:101FA000012B1444D8F8143011DD9A070FD16421A5
:101FB00093FBF1F201FB123242B903F26C754FF45C
:101FC000C87295FBF2F102FB115202B9013444F6DA
:101FD000206103F51C5210328A42C8F81C401E468C
:101FE00000F23381462B21DD46218F0714D1642571
:101FF00091FBF5F205FB12128AB901F26C774FF4EE
:10200000C87297FBF2F502FB1572002A40F26D12BE
:1020100008BF4FF4B77204E040F26D1201E04FF4D4
:10202000B772013199421444DFD143E042D04521D7
:1020300099421EDD8E0714D1642591FBF5F205FB54
:1020400012128AB901F26C764FF4C87296FBF2F55F
:1020500002FB1562002A40F26D1208BF4FF4B772FE
:1020600004E040F26D1201E04FF4B772A41A013996
:10207000DEE7452BA8BF45239D071E4614D16422E9
:1020800093FBF2F302FB13638BB906F26C714FF40E
:10209000C87391FBF3F203FB1213002B40F26D1394
:1020A00008BF4FF4B77304E040F26D1301E04FF442
:1020B000B773E41A684F07FB040700F01FFA00F03B
:1020C0001FFA664B1D68002D00F0AA80D8F820305A
:1020D000D8F81400012BA8BF01239A46D9F8043080
:1020E00000F26C7098420DD1D9F83820D9F8203020
:1020F000D9F83C00D9F81C10D51AAF42A1EB000169
:1021000005DA07E000F056F90028EDD17BE0121A5D
:10211000974278DBD9F8002012B18F427BDB01E0D7
:102120008F4207DAAF42ACBF00250125BAF1000F9C
:1021300004DA69E0BAF1000F68DB012585EA0A0AD2
:10214000BAF1010F60D11B1A05B95B42D8F8002023
:1021500040461A44C8F800201F44D8F80CA0FFF7E6
:102160002DFED8F80C30B3EB0A034DD0012B03DC65
:10217000981CD8BF012301E04FF0FF33D8F81C2092
:102180001C449B181DD5731E990714D1642193FB21
:10219000F1F201FB12338BB906F26B764FF4C87281
:1021A00096FBF2F302FB1366002E40F26D1318BF8C
:1021B0004FF4B67324E04FF4B67321E040F26D1390
:1021C0001EE0B20714D1642196FBF1F201FB12620A
:1021D0008AB906F26C764FF4C87196FBF1F201FBF6
:1021E0001266002E40F26D1208BF4FF4B77204E081
:1021F00040F26D1201E04FF4B7729A42D8BF9B1AB9
:10220000C8F81C3000E05546012D09D1D9F83C0032
:1022100001253E1807E0BAF1000F4FF000058DDAF6
:10222000D9F820003E1800F06AF90434072394FB23
:10223000F3F3C3EBC303E41A48BF0734C8F82050D4
:10224000C8F818403046BDE8F0874FF0FF30BDE8D1
:10225000F08700BFBC34000080510100F001002075
:1022600030B500293CD051F8042C0B1F1D49002A21
:10227000B8BF9B180A680C4612B95A600B6030BD93
:1022800093420DD219685818904201BF5A585218FB
:102290001A60426823605A6030BD994203D80A46EA
:1022A00051680029F9D1146815199D420AD11B689B
:1022B0002344D0188842136012D108680344136085
:1022C0004B680CE002D90C23036030BD1C68181960
:1022D000884201BF08684968001918605960536056
:1022E00030BD00BFD001002070B5CC1C24F0030429
:1022F00008340C2C38BF0C24002C064603DA0C23BF
:102300003360002070BD8C42F9D3204A1368104618
:102310001946A1B10A68121B0ED40B2A03D90A6010
:102320008B188C501FE08B420BBF5A684A680260C2
:102330005A6018BF0B4616E00B464968E9E7144D92
:102340002B681BB9304600F025F82860304621463E
:1023500000F020F8421C0346D1D0C51C25F003052F
:1023600085420AD11C6003F10B001A1D20F0070002
:10237000821A0AD05142995070BD3046E91A00F0D5
:1023800009F80130BBD02B46ECE770BDD00100202E
:10239000CC01002038B5064C0023054608462360D2
:1023A00001F03AF8431C02D1236803B12B6038BD19
:1023B000040200202DE9F047044600F083FA40F2C1
:1023C000B1739C4240F3938040F26D166FF4F66E49
:1023D00004EB0E03A4F2B2729B1006FB02366FF000
:1023E0006303A4F26D7292FBF3F26FF4C86CB3183E
:1023F0004FF4C87504EB0C0696FBF5F61E446423F7
:1024000094FBF3FE03FB1E4E94FBF5F305FB134513
:10241000B5FA85F5014644606D0900F1380C0B7A78
:102420004A2B11D14B69A70706EB030202D1BEF17B
:10243000000F00D125B13B2BD4BF0023012300E0C6
:102440002B461344013B3EE0442B02D14B693344FD
:1024500039E0A20705D1BEF1000F0CBF2B460123C6
:1024600000E02B46B246234A4FF0300909FB03290E
:10247000CA68A9F104070123934204DA57F8048FCC
:102480000133C244F8E7012AB8BF0122904607276A
:102490000AF1040292FBF7F7C7EBC707D71B4A699B
:1024A00008F18048D21B0F6948BF0732013FC7EBD4
:1024B000C70708F1FF38BB1859F82820934201DB01
:1024C000073BFBE753448A690B4F07FB03230F6A63
:1024D0003B4441F81C3F6145A1D1C369826B9342E3
:1024E000ACBF0023012303600120BDE8F08700207A
:1024F000BDE8F0871C35000080510100704770472F
:10250000014B186800F002B8680000202DE9F04F78
:102510008DB0074600F0D6F9B2490446384600F0BF
:10252000C9F9B14E054660B9B04BB14A1860B14B1C
:102530001860B14B30681A605A60FFF723FC3560B1
:102540004CE1316879B93068FFF71CFC284600F08F
:102550008DFA411C3846FFF7C7FE306048B1294666
:1025600000F07CFA05E000F06FFA002800F03681F8
:10257000E9E72B780AAE3A2B08BF013528469F4978
:102580009F4A334600F034FA002840F327810A9B23
:10259000EF18EB5C2D2B03D101374FF0FF3804E02F
:1025A0002B2B08BF01374FF001080DF11E0A0DF16A
:1025B000200B0025CDF800A00196CDF808B00396B9
:1025C0003846904907AA3346ADF81E50ADF8205062
:1025D00000F00EFAA84240F30181BDF81E20BDF8BC
:1025E00020303C2101FB0233BDF81C204FF4616117
:1025F00001FB023303FB08F3DFF8FC812362804B0D
:10260000DFF80C92C8F800300A9B7C491F4438461A
:102610004A46334600F0ECF9A84209DCD8F800300D
:10262000226AC8F80430714B1A60724B1D60D5E005
:102630000A9BC8F80490FD18FB5C2D2B03D10135D3
:102640004FF0FF3703E02B2B08BF01350127002394
:102650006C4907AAADF81C30ADF81E30ADF820303B
:102660000A9328463346CDF800A00196CDF808B06D
:10267000039600F0BDF90028C1BFBDF82030BDF8B9
:102680001E203C2101FB0233C1BFBDF81C204FF4CA
:10269000616101FB02337B432746D8BF236A4FF0B9
:1026A0000009D8BFA3F56163E3630A9B1D442B783F
:1026B0002C2B08BF013595F80080B8F14D0F26D1BD
:1026C00009AB8DE848000DF12603029303962846D6
:1026D0004D490DF12202334600F08AF903287DD1DD
:1026E000BDF822104B1E0B2B78D8BDF82420531EAA
:1026F000042B73D8BDF82630062B6FD887F80880D6
:10270000F9603A617B610A9B05EB03082AE0B8F1A6
:102710004A0F06BF43460135442328460BA90A2227
:10272000059300F041FADDF82C80ADF82600A845AD
:10273000059B14D14D23B9F1000F07D12372032358
:10274000E36002232361C4F814900BE084F8243082
:102750000B23A3620123E3620023236302E080B220
:102760003B7278610223ADF81C300023ADF81E30B7
:10277000ADF820300A9398F800302F2B0BD1CDF80C
:1027800000A00196CDF808B0039640461F4907AA5D
:10279000334600F02DF9BDF81E20BDF820303C2155
:1027A00001FB0233BDF81C204FF4616101FB0233D1
:1027B000BB610A9D1C374544B9F1000F02D14FF0AF
:1027C000010974E76068FFF7F5FD236A074A1360A3
:1027D000E26B9B1A074A18BF012313600DB0BDE8D6
:1027E000F08F00BF7C350000EC010020F4010020D8
:1027F0007F350000F00100206C00002083350000D0
:10280000DF010020A635000092350000A53500004C
:10281000D401002010B591FBF2F4002902FB14133F
:1028200004DB002B07DA01349B1A04E0002BC4BF41
:1028300004F1FF349B180460436010BD2DE9F84F8C
:1028400006468A46174600F0BDF9194B1C689946A2
:1028500034B15346984613F8012B3AB13D2AF9D1C9
:10286000304600F0B0F90020BDE8F88FCAEB080848
:10287000A34654F8040B0028F2D05146424600F01B
:10288000FDF80028F4D154F8043C03EB080513F8D4
:1028900008303D2BECD1D9F800303046C3EB0B03A8
:1028A0009B103B6000F08FF9681CBDE8F88F00BFFB
:1028B000B800002007B501AAFFF7C0FF03B05DF81C
:1028C00004FB000000487047740000200068444A80
:1028D000F0B590FBF2F302FB13000028BCBF00F53B
:1028E000A83000F5C0704FF4616490FBF4F204FB73
:1028F00012004FF03C048A6090FBF4F204FB1200DB
:1029000003F52F23ACBF03F66C2303F66B234A6059
:1029100008600722D81C90FBF2F2324EC2EBC202D2
:1029200093FBF6F648F6AC64821A40F2B4508A6122
:102930002D4A4FF0640E02FB06322C4BB2FBF4F42E
:10294000B2FBF0F0B2FBF3F3A5182C1AE01A40F238
:102950006D14B0FBF4F3B3FBFEF73A4404FB13220F
:10296000A2EB930202EB820599200235B5FBF0F54C
:102970006843841C0520B4FBF0F00A2D02F1010C21
:10298000C0EB0C0434BF02206FF0090005444FF483
:10299000C87000FB0636012D98BF0136B2F5997F4D
:1029A00002D3A2F5997211E0980702D10EFB1737F6
:1029B0004FB94FF4C877B3FBF7F007FB1033B3FA06
:1029C00083F35B0900E001233B321A44A6F26C76E4
:1029D0000023CA614E610D61CC600B620846F0BDF8
:1029E00080510100B13A02004FC5FDFFB03A02002C
:1029F0000EB430B59CB01FAC4FF4017254F8045BB8
:102A0000ADF814200290069000F030F80B4B0390C4
:102A10000B9300230F9314934FF6FF73ADF816300A
:102A2000074B079002A918682A462346019400F034
:102A300025F91CB0BDE8304003B07047452A0000BE
:102A4000680000200020704710F8012B11F8013BAE
:102A5000012A28BF9A42F7D0D01A7047034611F8CE
:102A6000012B03F8012B002AF9D17047034613F814
:102A7000012B002AFBD1181A0138704770B5A2B19A
:102A8000451E01396B7811F8014F6E1CA34206D127
:102A90006FF00104641B1444E04202D11C46181B71
:102AA00070BD3546002BEDD1F8E7104670BD000033
:102AB0002DE9F0470E463B4CD4F80090354615F80A
:102AC00001EB09EB0E04677807F0080404F0FF0738
:102AD0000CB12E46F2E774462D2C03D1B51C747848
:102AE000012703E02B2C04BF7478B51C13B1102B05
:102AF0000AD151E0302C4DD12C7804F0DF04582C51
:102B000043D16C78102302354FF0FF38B8FBF3F84F
:102B100003FB08FA00266FEA0A0AB64609EB040C22
:102B20009CF801C01CF0040F01D0303C0BE01CF0FD
:102B3000030C1BD0BCF1010F0CBF4FF0370C4FF052
:102B4000570CCCEB04049C4210DAB6F1FF3F0AD0DC
:102B5000C64506D801D1544503DC03FB0E4E0126C1
:102B600001E04FF0FF3615F8014BD7E7741C7346B0
:102B700003D122230360334602E00FB1CEF10003FC
:102B80006AB106B1691E116009E03024002BBBD187
:102B90000823B9E70A23B7E7302CB5D1ACE71846CC
:102BA000BDE8F087B400002030B505460C4613465A
:102BB000034A294610682246BDE83040FFF778BF37
:102BC000680000207047704738B54B1C144602D18E
:102BD0004FF0FF3038BD9389CDB223F020039381AD
:102BE000536B526883B1A36B9A4207DA23685A1E6B
:102BF000226003F8015C636801331FE0214600F0A6
:102C000093FB0028F2D0E3E72169236851B18B429E
:102C100008D913F8010CA84204D1013B013223600A
:102C2000626038BDE36304F1440363630323A36379
:102C30002346226403F8465F23600123636028462D
:102C400038BD10B50C46496B69B104F14403994293
:102C500001D0FFF705FB236C00206063636013B1B4
:102C6000E36B236010BD23694FF0FF302360002326
:102C70006360A38943F02003A38110BD2DE9F047D1
:102C800007460C469046ADF5247D019300234693FC
:102C900047939C4B0DF10C0AA2939B4BCDF820A1BE
:102CA000A39398F80050002D00F0248197490B68F9
:102CB00089462B445B7803F0080303F0FF02EBB175
:102CC0006368002B10DD2368D9F800101A780A44D5
:102CD000527815070ED5479A013301324792626840
:102CE0002360013A6260EBE7A39B38462146984790
:102CF0000028E8D008F10106B046D2E7252D08F1FA
:102D000001064FD14592439298F801302A2B03D106
:102D10001023439308F1020631783546A1F13003C0
:102D2000092B06F1010606D8459B0A2202FB031374
:102D3000303B4593F0E7DFF8DC810322404600F0AA
:102D40002CFB40B135460123C8EB000003FA00F22A
:102D5000439B134343936E1C2D78672D0FD8652D2D
:102D600078D25B2D54D005D8002D00F0C580252DDC
:102D700018D071E0632D57D0642D3FD06CE0702DDA
:102D800032D007D86E2D55D03AD8692D64D10023A2
:102D900044933BE0752D31D0782D29D0732D5BD134
:102DA00002233FE06368002B0DDD23681A78AA42F6
:102DB00040F0A080013362682360479B013A0133F1
:102DC0006260479398E7A39B3846214698470028BE
:102DD000EBD04698002800F08F80A38913F0400FB5
:102DE00018BF4FF0FF3089E0439B43F0200343932B
:102DF000439B43F400734393102302E00A2300E053
:102E000008236E2D449301DD04230BE0032309E026
:102E10003146504600F0D0F90646439B43F040034C
:102E20004393012349931BE0439B43F040034393A7
:102E30000023F7E7439AD0063FF55EAF12F0010F8B
:102E4000019A479B02F104010191126814BF13809B
:102E5000136051E70523E5E7032349930A234493CD
:102E60006368002B03DD439B590611D518E0A39B33
:102E70003846214698470028F5D0AAE7479A0132FC
:102E800047926268013A002A626013DD01332360D1
:102E90002368D9F800101A780A4452781207EDD442
:102EA000499B022B0DDC384643A9224601AB00F0BA
:102EB00033F819E0A39B3846214698470028E7D00D
:102EC00087E7042B06DC384643A9224601AB00F015
:102ED00081F809E00E4B002B3FF40EAF384643A9B2
:102EE000224601ABAFF30080012803D002287FF413
:102EF00003AF6EE7469801E04FF0FF300DF5247DFB
:102F0000BDE8F087C92B0000432C0000B40000206E
:102F100000000000B93600002DE9F04115468A682E
:102F200080460C4632B98A69002A0CBF01224FF054
:102F3000FF328A6022680026D1065FBF1A68111D21
:102F400019601768A069F8B923680136DA065EBF10
:102F50002B681B783B702A686B6802F101022A60BB
:102F6000A26803F1FF3302F1FF326B6058BF0137F3
:102F7000A260EAB1002BE5DCD4F880314046294656
:102F800098470028DED013E0012807D12B6862693A
:102F90001B78D35C002BD7D1C6B109E0022807D13A
:102FA0002B680B4A1B78126813445B781B07CBD540
:102FB000236813F0100305D1E2680132E260A269D0
:102FC00002B13B70236900201E442661BDE8F081F8
:102FD000B40000202DE9F04F0C469A46724B87B0A2
:102FE0008346164693E8070003AB83E807006F4B60
:102FF000A1696F4A04F11C09032918BF1A46A36886
:1030000000925A1EB2F5AE7F82BF6FF4AE7503EB2D
:10301000050840F25D134F4688BFA360236898BF40
:103020004FF0000843F4506323600023326803A983
:1030300051F8230011780222019300F0AEF9019BB0
:10304000002835D0012B0BD162682AB908226260B2
:10305000226842F400722260226822F4A0620BE02F
:10306000022B0AD1226802F4C061B1F5007F1FD1A2
:103070001021616042F480722260A268511EA1603A
:10308000B2B132687D1C511C316012783A7072689E
:10309000013A002A72600ADCD4F880215846314691
:1030A00001939047002841D12F46019B00E02F4615
:1030B0000133032BBAD163680BB90A2363606368D9
:1030C0003C496069C91A00F077F83D460027A368BB
:1030D0006BB3316860690A78805C40B3302A22683B
:1030E0000AD1100508D50137B8F1000F0BD0013314
:1030F00008F1FF38A36006E022F4106222600B782A
:10310000013505F8013C7368013B002B736003DD5A
:1031100033680133336005E0D4F8803158463146D6
:10312000984720B9A368013BA360D0E70027236834
:10313000D9050DD54D4509D915F8011C05F1FF3804
:10314000D4F87C3158463246984745464D4527D0FD
:10315000226812F010021BD12A7063685846494653
:10316000009EB0472268DAF8003012F0200F07D135
:10317000D20705D51A1DCAF800201B68188004E084
:103180001A1DCAF800201B681860E3680133E36069
:10319000C9EB05053D44276900203D44256100E059
:1031A000012007B0BDE8F08FC0360000B12A000052
:1031B0001D320000DC360000F0B50A78441E5E2A9D
:1031C00013BF4B1C8B1C4A78002108BF012100F162
:1031D000FF0504F8011FAC42FBD10AB9581EF0BD2F
:1031E000C1F10104E7B2875419785E1C2D2905D07E
:1031F0005D290ED079B10A463346F3E75D785D2D3F
:10320000F9D09542F7DB02330132AA428754FBDB47
:10321000EAE73046F0BD1846F0BD00002DE9F04762
:103220000F46404CD4F800903D4615F801EB09EBF1
:103230000E04667806F0080404F0FF060CB12F4671
:10324000F2E774462D2C03D1BD1C7C78012603E0E7
:103250002B2C04BF7C78BD1C13B1102B0AD15AE073
:10326000302C56D12C7804F0DF04582C4CD16C78DB
:1032700010230235002E14BF4FF000486FF00048B5
:10328000B8FBF3FA0027BE4603FB1A8809EB040CCF
:103290009CF801C01CF0040F01D0303C0BE01CF086
:1032A000030C1BD0BCF1010F0CBF4FF0370C4FF0DB
:1032B000570CCCEB04049C4210DAB7F1FF3F0AD064
:1032C000D64506D801D1444503DC03FB0E4E012749
:1032D00001E04FF0FF3715F8014BD7E77C1C734630
:1032E0000AD1002E4FF0220114BF4FF000436FF0BF
:1032F000004301602AB911E00EB1CEF100036AB1BA
:1033000007B1691E116009E03024002BB2D10823F7
:10331000B0E70A23AEE7302CACD1A3E71846BDE8EE
:10332000F08700BFB40000202DE9F0410C46496B46
:1033300004F1440399421AD14FF48061FEF7D4FF9F
:1033400018B94FF0FF30BDE8F0814FF48063A363FC
:1033500094F84630606380F8FF3394F8453000F20B
:10336000FD30437094F844300370206012E0A66B87
:1033700077003A4600F01FF805460028E1D000EB40
:103380000608404629463246FEF704FDC4F8008090
:103390006563A7630020BDE8F08110B5C9B202449F
:1033A0009042034605D01C7801308C42F8D1184673
:1033B00010BD002010BDF8B5074615460E4621B9D0
:1033C0001146BDE8F840FEF78FBF1AB9FEF748FF77
:1033D0002846F8BD00F015F8A8420ED23846294616
:1033E000FEF782FF044650B131462A46FEF7D2FC72
:1033F00038463146FEF734FF01E03046F8BD20463E
:10340000F8BD51F8040C0028BEBF091851F8043C5F
:10341000C018043870470000044A05491368002B9F
:1034200008BF0B461844106018467047FC01002086
:1034300008020020FEE700BFF8B500BFF8BC08BCDA
:103440009E467047F8B500BFF8BC08BC9E46704762
:10345000050000000000000000C20100000500009F
:10346000001000000000000000000001010000004A
:103470000101000000300000010000000000000019
:103480000100000048454C4C4F00000053442043CD
:1034900061726420446574656374656400000000B3
:1034A0004E6F205344204361726420446574656309
:1034B0007465640043000000080000200000000064
:1034C0001F0000003B0000005A00000078000000D0
:1034D00097000000B5000000D4000000F3000000D9
:1034E00011010000300100004E0100001F0000002B
:1034F0001C0000001F0000001E0000001F00000054
:103500001E0000001F0000001F0000001E00000041
:103510001F0000001E0000001F0000001F00000030
:103520001C0000001F0000001E0000001F00000023
:103530001E0000001F0000001F0000001E00000011
:103540001F0000001E0000001F0000001F00000000
:103550001D0000001F0000001E0000001F000000F2
:103560001E0000001F0000001F0000001E000000E1
:103570001F0000001E0000001F000000545A0047FA
:103580004D54002531305B5E302D392C2B2D5D25BF
:103590006E004D256875256E2E256875256E2E25C5
:1035A0006875256E002F256875256E3A2568752586
:1035B0006E3A256875256E000020202020202020EE
:1035C00020202828282828202020202020202020D3
:1035D00020202020202020202088101010101010E3
:1035E000101010101010101010040404040404042F
:1035F00004040410101010101010414141414141C9
:1036000001010101010101010101010101010101AA
:1036100001010101101010101010424242424242BA
:10362000020202020202020202020202020202027A
:103630000202020210101010200000000000000022
:10364000000000000000000000000000000000007A
:10365000000000000000000000000000000000006A
:10366000000000000000000000000000000000005A
:10367000000000000000000000000000000000004A
:10368000000000000000000000000000000000003A
:10369000000000000000000000000000000000002A
:1036A000000000000000000000000000000000001A
:1036B000000000000000000000686C4C00000000EA
:1036C000DE360000E1360000E4360000412D4661A0
:1036D0002D66383930313233343536375D002B2D95
:1036E00000303000785800000000000000000000AA
:1036F00000000000000000000000000000000000CA
:1037000000000000000000000000000000000000B9
:1037100000000000000000000000000000000000A9
:103720000000000000000000000000000000000099
:103730000000000000000000000000000000000089
:103740000000000000000000100000000000000069
:10375000017A5200027C0E011B0C0D0010000000CB
:1037600018000000E4F2FFFF140000000000000059
:043770000000000055
:08377400C4C9FF7F0100000041
:10377C0000800000006CDC0200000000E836000055
:10378C00083700002837000000000000000000008F
:10379C000000000000000000B43400000000000035
:1037AC00000000000000000000000000000000000D
:1037BC0000000000000000000000000000000000FD
:1037CC0000000000000000000000000000000000ED
:1037DC000000000000000000080000207F35000001
:1037EC007F35000001000000000000004A000000CE
:1037FC0000000000000000000000000000000000BD
:10380C0000000000000000004A0000000000000062
:10381C00000000000000000000000000000000009C
:10382C0000000000B8350000F80100200101000084
:08383C00DD00000000000000A7
:04000003000001AD4B
:00000001FF
