:1000000000000220AD010000D9010000D90100006C
:10001000D9010000D9010000D9010000D901000078
:10002000D9010000D9010000D9010000D901000068
:10003000D9010000D9010000D9010000D901000058
:10004000D9010000D9010000D9010000D901000048
:10005000D9010000D9010000D9010000D901000038
:10006000D9010000D9010000D9010000D901000028
:10007000D9010000D9010000D9010000D901000018
:10008000D9010000D9010000D9010000D901000008
:10009000D9010000D9010000D9010000D9010000F8
:1000A000D9010000D9010000D9010000D9010000E8
:1000B000D9010000D9010000D9010000D9010000D8
:1000C000D9010000D9010000D9010000D9010000C8
:1000D000D9010000D9010000D901000010B5054C7C
:1000E000237833B9044B13B10448AFF300800123E4
:1000F000237010BD7400002000000000880E000076
:10010000084B10B51BB108480849AFF300800848F8
:10011000036803B910BD074B002BFBD0BDE81040AE
:10012000184700BF00000000880E00007800002083
:100130007000002000000000154B002B08BF134B7F
:100140009D46A3F5803A00218B460F461348144A7A
:10015000121A00F07FFE0F4B002B00D098470E4B79
:10016000002B00D098470020002104000D000D480E
:10017000002802D00C48AFF3008000F045FE2000BC
:10018000290000F009FE00F02BFE00BF000008006F
:1001900000000220000000000000000074000020A9
:1001A0009400002000000000000000000648804786
:1001B0000649074A074B9A42BEBF51F8040B42F862
:1001C000040BF8E7FFF7B8FF2D030000940E0000C2
:1001D0000000002074000020FEE700BF80B400AFE4
:1001E000044BDB6C1B0EDBB21846BD465DF8047B8E
:1001F000704700BFB081E00F80B582B000AF00F063
:1002000015F87860074B5B6803F00F031A467B68AC
:10021000D3407B60044A7B6813607B6818460837CC
:10022000BD4680BD00800C409000002080B582B0AB
:1002300000AF334BDB6A03F47053B3F5805F0AD031
:10024000B3F5005F03D0B3F5006F08D00BE02D4B82
:100250001B687B6047E04FF400437B6043E02A4B20
:100260001B687B603FE0264BDB6803F4E063B3F57B
:10027000007F1BD0B3F5007F05D8002B24D0B3F549
:10028000807F16D02BE0B3F5806F09D0B3F5A06F57
:1002900003D0B3F5407F06D021E01C4B7B6021E00A
:1002A0001B4B7B601EE01B4B7B601BE01A4B7B6093
:1002B00018E0FFF793FF0346122B02D9174B7B6020
:1002C00010E0174B7B600DE0FFF788FF0346122B11
:1002D00002D9144B7B6005E0134B7B6002E00023E6
:1002E0007B6000BF00BF064B1B6803F4E0339B0B31
:1002F00001337A68B2FBF3F318460837BD4680BD78
:1003000000800C400400002000000020003FAB01F2
:10031000406F4001809FD500C0D8A70040B5640061
:10032000C0CF6A00804F120040420F0080B400AF7F
:10033000BD465DF8047B704780B400AF4FF40043C6
:100340001846BD465DF8047B704700BF80B400AF1F
:100350004FF47A731846BD465DF8047B704700BFC2
:1003600080B400AF034B1B681846BD465DF8047BA4
:10037000704700BF0400002080B487B000AFF86071
:10038000B9607A60FB6803F10473DA00BB68134458
:100390009B007B617B697A681A601C37BD465DF8FB
:1003A000047B704780B485B000AF786039607B68AB
:1003B00003F10473DA003B6813449B00FB60FB68A5
:1003C0001B6818461437BD465DF8047B704700BFB4
:1003D00080B400AF044BDB6C1B0EDBB21846BD468D
:1003E0005DF8047B704700BFB081E00F80B400AFC0
:1003F000054BDB6C03F47F031B0CDBB21846BD46D8
:100400005DF8047B704700BFB081E00F80B582B01B
:1004100000AFFFF7EBFF03464A2B04D0792B02D045
:10042000482B21D022E0144B1B699BB203F03F0301
:100430009BB21B02FB80104B9B6903F0F0039AB246
:10044000FB881343FB800C4BDB6903F0F0031B09B3
:100450009AB2FB881343FB80FB88B3F5017F01D37D
:10046000064B04E0064B02E0054B00E00023184673
:100470000837BD4680BD00BFD0FF0FE000366E01DB
:100480000048E80180B584B000AF786039607A68D0
:100490003B689A428CBF01230023DBB2FB60064815
:1004A0001E21FA68FFF768FF04480821FA68FFF781
:1004B00063FF1037BD4680BD00800C4004800C40B7
:1004C00080B582B000AF07481E21FFF76BFF786050
:1004D00005480821FFF766FF38607B681846083733
:1004E000BD4680BD00800C4004800C4080B582B0C9
:1004F00000AF214B5B6903F4E063B3F5007F1CD0D0
:10050000B3F5007F05D8002B25D0B3F5807F1FD031
:100510002AE0B3F5C06F24D0B3F5E06F1ED0B3F579
:10052000407F21D1FFF754FF0346122B02D9134B12
:100530007B601CE0124B7B6019E0FFF749FF03462C
:10054000122B02D90F4B7B6011E00F4B7B600EE04A
:100550000E4B7B600BE00E4B7B6008E00D4B7B602D
:1005600005E00D4B7B6002E000237B6000BF7B68F1
:1005700018460837BD4680BD00800C40804F1200F1
:1005800040420F0040B56400C0CF6A00C0D8A70049
:10059000809FD500406F4001003FAB0180B582B025
:1005A00000AF0D4800F0C6F90346FB70FB78072B3F
:1005B00005D0082B07D1FFF739FE786006E0FFF77A
:1005C00095FF786002E000237B6000BF7B681846DF
:1005D0000837BD4680BD00BF06000C0090B585B051
:1005E00000AF78600023BB607B68344A934203D03D
:1005F000334A934200D000E000BF786800F09AF9D7
:100600000346FB607B682D4A934203D02C4A9342F9
:1006100006D00CE02B4B9B6A03F00303FB6006E063
:10062000284B9B6A03F00C039B08FB6000BFFB6830
:10063000032B3AD801A252F823F000BF7306000042
:100640004D060000550600005D060000FFF774FE31
:10065000B8602DE0FFF784FEB86029E0FFF7CCFD1D
:100660000446FFF72DFF0346013324FA03F3BB6072
:100670001EE00023BB607B68104A934203D07B6876
:100680000F4A934210D10F4B9A6A7B680B498B42F9
:1006900001D1102300E0142322FA03F3002B03D02E
:1006A000FFF754FEB86003E002E00023BB6000BF28
:1006B000BB6818461437BD4690BD00BF02001A0043
:1006C00003001C0000800C4080B483B000AF786051
:1006D000094B5B6D03F00103002B00D006E000BF67
:1006E000054B1A6D7B681340002BF9D10C37BD46C2
:1006F0005DF8047B704700BF00800C4090B587B068
:1007000000AF78600B46FB7000233B617B681B0ADF
:1007100003F00F03013B092B49D801A252F823F043
:10072000650700006B07000049070000AF070000E5
:10073000AF070000710700007B070000AF07000053
:10074000AF070000850700001B4B7B611B4800F0D2
:1007500041F80446FFF75AFE034620461946FFF7C4
:1007600091FE12E0164B7B610FE0164B7B610CE0B3
:10077000154B7B6101233B6107E0144B7B61102328
:100780003B6102E0124B7B6100BF7B681B0B03F0F7
:100790001F03FB603B69002B02D03869FFF794FF11
:1007A000FB787869F9681A46FFF7E6FD00E000BFBC
:1007B0001C37BD4690BD00BF40800C400043020086
:1007C00008800C4044800C4058800C4060800C40F5
:1007D00078800C4080B584B000AF78607B6803F40B
:1007E0007813B3F5801F45D0B3F5801F12D8B3F549
:1007F000802F2AD0B3F5802F05D8002B21D0B3F558
:10080000003F2ED087E0B3F5402F7CD0B3F5602FAA
:100810007DD080E0B3F5C01F67D0B3F5C01F06D808
:10082000B3F5A01F34D0B3F5B01F51D073E0B3F5CA
:10083000E01F48D0B3F5281F38D0B3F5D01F14D02F
:1008400069E0FFF7F3FCF86068E0FFF7EFFCF860A1
:10085000354B9B6803F00F031A46FB68D340FB60DF
:100860005CE0FFF7C9FCF86058E03048FFF7B6FEDF
:10087000F86053E02D48FFF7B1FEF8602A4B9B6EFD
:1008800003F0F0031B091A46FB68D340FB6045E008
:100890002648FFF7A3FEF860234B9B6E03F47063BA
:1008A0001B0A1A46FB68D340FB6037E01F48FFF77E
:1008B00095FEF8601C4B9B6E03F003031A46FB6821
:1008C000D340FB602AE01A48FFF788FEF86025E075
:1008D0001748FFF783FEF860134B1B6F03F0030309
:1008E0001A46FB68D340FB6018E01148FFF776FE1C
:1008F000F8600D4B1B6F03F030031B091A46FB68B1
:10090000D340FB600AE0FFF749FEF86006E0FFF71E
:10091000EDFDF86002E00023FB6000BFFB681846B5
:100920001037BD4680BD00BF00800C4002001A0099
:1009300003001C0080B485B000AF78600123FB7316
:100940007B6803F00F03BB60BB68013B052B77D8C6
:1009500001A252F823F000BF71090000A7090000AE
:10096000E3090000410A0000410A00001F0A0000DC
:10097000384BDB6A03F47053B3F5805F09D0B3F5ED
:10098000005F03D0B3F5006F06D008E00223FB73CD
:1009900008E00323FB7305E00423FB7302E0052357
:1009A000FB7300BF4FE02B4B9B6A03F00303022B4A
:1009B00006D0032B07D0012B08D10323FB730FE0D4
:1009C0000223FB730CE00623FB7309E0214B9B6AB7
:1009D00003F48033002B02D00923FB7300E000BF37
:1009E00031E01C4B9B6A03F00C03082B06D00C2B48
:1009F00007D0042B08D10323FB730FE00223FB7302
:100A00000CE00623FB7309E0124B9B6A03F480138E
:100A1000002B02D00923FB7300E000BF13E00D4B55
:100A20001B6803F08053002B03D0B3F1805F03D029
:100A300009E00723FB7302E00823FB7300BF02E019
:100A40000023FB7300BFFB7B18461437BD465DF8DF
:100A5000047B704700800C4080B483B000AF034635
:100A60003960FB71FB79002B0DD0FB79012B0AD08B
:100A7000FB79022B07D0FB79032B04D0FB79042BE5
:100A800001D0FB79052B0949FA793B68012000FA6E
:100A900003F318461346DB0013449B000B4410334A
:100AA00058600C37BD465DF8047B7047006000401D
:100AB00080B483B000AF03463960FB71FB79002B33
:100AC0000DD0FB79012B0AD0FB79022B07D0FB79E3
:100AD000032B04D0FB79042B01D0FB79052B0949AA
:100AE000FA793B68012000FA03F318461346DB004D
:100AF00013449B000B44103318600C37BD465DF85F
:100B0000047B70470060004090B585B000AFB960CD
:100B10007B600346FB731346BB73FB7B002B0DD03E
:100B2000FB7B012B0AD0FB7B022B07D0FB7B032B2B
:100B300004D0FB7B042B01D0FB7B052BBB7B002B64
:100B40000DD07B68002B05D0FB7B1846B968FFF7FA
:100B5000AFFF04E0FB7B1846B968FFF77DFFBB6879
:100B6000072B1CD82A4CFA7B2948F97B0B46DB0063
:100B70000B449B0003445B68B968890008460F2159
:100B80008140C9430B40B97BB8688000814019435C
:100B90001346DB0013449B002344596024E01C4CA3
:100BA000FA7B1B48F97B0B46DB000B449B0003449C
:100BB00008331968BB6803F18043083B9B00184663
:100BC0000F238340DB431940B87BBB6803F18043AC
:100BD000083B9B0000FA03F319431346DB00134460
:100BE0009B00234408331960BB7B002B0DD17B682D
:100BF000002B05D0FB7B1846B968FFF759FF04E0CE
:100C0000FB7B1846B968FFF727FF1437BD4690BD38
:100C10000060004080B485B000AF7860194B5B691C
:100C2000DBB203F00F03DBB29B00FB73154B1B69B8
:100C300003F0C0039B09DAB2FB7B1343FB737B68B1
:100C4000FA7B9A700F4B1B69DBB203F03F03DAB2F9
:100C50007B685A700B4B9B69DBB223F00F03FB736D
:100C6000084BDB6903F0F0031B09DAB2FB7B13438B
:100C7000FB737B68FA7B1A701437BD465DF8047B02
:100C8000704700BFD0FF0FE090B484B000AF0346C0
:100C9000B9607A60FB73FB7B002B0DD0FB7B012BD3
:100CA0000AD0FB7B022B07D0FB7B032B04D0FB7B02
:100CB000042B01D0FB7B052B0E4CFA7B0D48F97BF6
:100CC0000B46DB000B449B000344083359687B68E8
:100CD000DB431940B8687B68034019431346DB00C7
:100CE00013449B002344083359601037BD4690BC21
:100CF000704700BF0060004080B582B000AF0C4B71
:100D00001B687B603B461846FFF784FF7B681B0E21
:100D10000F2B0AD93B78032B07D1064A054B1B68DA
:100D200023F0500343F0100313600837BD4680BD25
:100D3000FC81E00FC0800C4080B483B000AF03465C
:100D4000FB80134A124B5B6C43F020035364114A3F
:100D5000104B1B6823F0706343F0206313600D4B4E
:100D600000225A620B4B01225A6000BF094B596A9C
:100D7000FA8813465B0013449B0013449942F5D351
:100D8000044B02225A600C37BD465DF8047B704765
:100D900000800C400000014080B500AFFFF7ACFFC1
:100DA0000E480121FFF7AAFC02200C210422002397
:100DB000FFF7AAFE02204FF480514FF48052FFF754
:100DC00063FF6420FFF7B8FF022000214FF4805238
:100DD000FFF75AFF6420FFF7AFFFEBE700D20400F4
:100DE00008B5074B044613B10021AFF30080054B53
:100DF0001868836A03B19847204600F033F800BFB3
:100E000000000000840E00000E4B70B51E460E4C14
:100E10000025E41AA410A54204D056F825309847BE
:100E20000135F8E700F020F8084B094C1E46E41A9B
:100E3000A4100025A54204D056F825309847013566
:100E4000F8E770BD680000206800002068000020FE
:100E50006C00002003460244934202D003F8011BB9
:100E6000FAE77047FEE700BFF8B500BFF8BC08BC62
:100E70009E467047F8B500BFF8BC08BC9E46704758
:0C0E8000430000000800002000000000FB
:080E8C00ACF2FF7F0100000041
:100E9400006CDC0200800000000000000000000084
:100EA400000000000000000000000000000000003E
:100EB4000000000000000000800E000000000000A0
:100EC400000000000000000000000000000000001E
:100ED400000000000000000000000000000000000E
:100EE40000000000000000000000000000000000FE
:100EF400000000000000000001010000DD0000000F
:040F040000000000E9
:04000003000001AD4B
:00000001FF
