:1000000000000220AD010000D9010000D90100006C
:10001000D9010000D9010000D9010000D901000078
:10002000D9010000D9010000D9010000210400001D
:10003000D9010000D901000051040000950400001E
:10004000D9010000D9010000D9010000D901000048
:10005000D9010000D9010000D9010000D901000038
:10006000D9010000D9010000D9010000D901000028
:10007000D9010000D9010000D9010000D901000018
:10008000D9010000D9010000D9010000D901000008
:10009000D9010000D9010000D9010000D9010000F8
:1000A000D9010000D9010000D9010000D9010000E8
:1000B000D9010000D9010000A91200001D120000A2
:1000C000D9010000D9010000D9010000D9010000C8
:1000D000D9010000D9010000D901000010B5054C7C
:1000E000237833B9044B13B10448AFF300800123E4
:1000F000237010BD74000020000000007C1500007B
:10010000084B10B51BB108480849AFF300800848F8
:10011000036803B910BD074B002BFBD0BDE81040AE
:10012000184700BF000000007C1500007800002088
:100130007000002000000000154B002B08BF134B7F
:100140009D46A3F5803A00218B460F461348144A7A
:10015000121A01F0C9F90F4B002B00D098470E4B33
:10016000002B00D098470020002104000D000D480E
:10017000002802D00C48AFF3008001F08FF9200076
:10018000290001F055F901F075F900BF00000800E1
:1001900000000220000000000000000074000020A9
:1001A0000001002000000000000000000648804719
:1001B0000649074A074B9A42BEBF51F8040B42F862
:1001C000040BF8E7FFF7B8FF2D03000088150000C7
:1001D0000000002074000020FEE700BF80B400AFE4
:1001E000044BDB6C1B0EDBB21846BD465DF8047B8E
:1001F000704700BFB081E00F80B582B000AF00F063
:1002000015F87860074B5B6803F00F031A467B68AC
:10021000D3407B60044A7B6813607B6818460837CC
:10022000BD4680BD00800C40FC00002080B582B03F
:1002300000AF334BDB6A03F47053B3F5805F0AD031
:10024000B3F5005F03D0B3F5006F08D00BE02D4B82
:100250001B687B6047E04FF400437B6043E02A4B20
:100260001B687B603FE0264BDB6803F4E063B3F57B
:10027000007F1BD0B3F5007F05D8002B24D0B3F549
:10028000807F16D02BE0B3F5806F09D0B3F5A06F57
:1002900003D0B3F5407F06D021E01C4B7B6021E00A
:1002A0001B4B7B601EE01B4B7B601BE01A4B7B6093
:1002B00018E0FFF793FF0346122B02D9174B7B6020
:1002C00010E0174B7B600DE0FFF788FF0346122B11
:1002D00002D9144B7B6005E0134B7B6002E00023E6
:1002E0007B6000BF00BF064B1B6803F4E0339B0B31
:1002F00001337A68B2FBF3F318460837BD4680BD78
:1003000000800C400400002000000020003FAB01F2
:10031000406F4001809FD500C0D8A70040B5640061
:10032000C0CF6A00804F120040420F0080B400AF7F
:10033000BD465DF8047B704780B400AF4FF40043C6
:100340001846BD465DF8047B704700BF80B400AF1F
:100350004FF47A731846BD465DF8047B704700BFC2
:1003600080B400AF034B1B681846BD465DF8047BA4
:10037000704700BF0400002080B485B000AF7860F3
:1003800039607B685B68FB603B68FA685A60FB68B1
:100390009A683B689A60FB689B683A685A60FB6899
:1003A0003A689A603B687A681A617B681B685A1CD5
:1003B0007B681A601437BD465DF8047B704700BF48
:1003C00080B485B000AF78607B681B69FB607B6898
:1003D0005B687A6892689A607B689B687A68526802
:1003E0005A60FB685A687B689A4203D17B689A68B6
:1003F000FB685A607B6800221A61FB681B685A1E02
:10040000FB681A60FB681B6818461437BD465DF828
:10041000047B7047000000000000000000000000A6
:10042000074B19680868B0E8F00F80F30988BFF33C
:100430006F8F4FF0000080F311884EF00D0E704763
:1004400090000020000000000000000000000000FC
:10045000EFF30980BFF36F8F0D4B1A6820E9F00F9F
:1004600010602DE908404FF0BF0080F3118800F0C4
:10047000E3F84FF0000080F31188BDE808401968E8
:100480000868B0E8F00F80F30988BFF36F8F7047FA
:100490009000002080B582B000AF4FF0BF0383F31F
:1004A0001188BFF36F8FBFF34F8F7B6000F012F89E
:1004B0000346002B03D0064B4FF080521A600023F6
:1004C0003B603B6883F311880837BD4680BD00BFA1
:1004D00004ED00E080B586B000AF00237B614B4B9C
:1004E0001B68002B40F08180494B1B6801333B6146
:1004F000474A3B6913603B69002B12D1454B1B688F
:10050000444B1B68FB60444B1B68424A1360424AE1
:10051000FB681360414B1B680133404A136000F0D5
:10052000D5F83F4B1B683A699A424FD3394B1B6849
:100530001B68002B01D1012300E00023002B04D015
:10054000374B4FF0FF321A6040E0324B1B68DB68DC
:10055000DB68BB60BB685B687B603A697B689A421A
:1005600003D22F4A7B68136030E0BB68043318461F
:10057000FFF726FFBB689B6A002B04D0BB681833CB
:100580001846FFF71DFFBB68DB6A1A46012303FA12
:1005900002F2244B1B681343224A1360BB68DA6AD9
:1005A00013469B0013449B001F4A1A44BB68043344
:1005B00010461946FFF7E0FEBB68DA6A1B4B1B6862
:1005C000DB6A9A4201D301237B61AFE7174B1B68BB
:1005D000DA6A154913469B0013449B000B441B68C1
:1005E000012B01D901237B6104E0114B1B6801330E
:1005F0000F4A13600F4B1B68002B01D001237B6156
:100600007B6918461837BD4680BD00BFF00000204A
:10061000D8000020D0000020D4000020E8000020F6
:10062000EC000020DC00002094000020900000205E
:10063000E0000020E400002080B485B000AF1E4B35
:100640001B68002B03D01D4B01221A602FE01B4BAF
:1006500000221A601A4B1B687B607B68B3FA83F335
:10066000FB70FB78C3F11F03FB60FA6813469B0025
:1006700013449B00FA6813469B0013449B00114AE5
:100680001344BB60BB685B685A68BB685A60BB6850
:100690005A68BB6808339A4204D1BB685B685A68E1
:1006A000BB685A60BB685B68DB68074A1360143735
:1006B000BD465DF8047B7047F0000020E400002098
:1006C000DC000020940000209000002080B483B063
:1006D00000AF0E4B1B681B68002B01D1012300E00B
:1006E0000023002B04D00A4B4FF0FF321A6008E0C1
:1006F000064B1B68DB68DB687B607B685B68044AD1
:1007000013600C37BD465DF8047B7047D0000020B5
:10071000EC00002080B483B000AF78600C4B9B6B82
:1007200003F00103002B05D1094B1B6803F4405370
:10073000002B00D106E000BF054BDA6B7B6813404D
:10074000002BF9D10C37BD465DF8047B704700BF24
:100750000010084080B582B000AF78603960022098
:10076000FFF7D8FF024A3B68D3600837BD4680BD1B
:100770000010084080B483B000AF7860034BDB68A2
:1007800018460C37BD465DF8047B704700100840E2
:1007900080B487B000AFF860B9607A60FB6803F19D
:1007A0000473DA00BB6813449B007B617B697A6841
:1007B0001A601C37BD465DF8047B704780B485B075
:1007C00000AF786039607B6803F10473DA003B683E
:1007D00013449B00FB60FB681B6818461437BD463A
:1007E0005DF8047B704700BF80B400AF044BDB6C46
:1007F0001B0EDBB21846BD465DF8047B704700BF98
:10080000B081E00F80B400AF054BDB6C03F47F03D5
:100810001B0CDBB21846BD465DF8047B704700BF79
:10082000B081E00F80B582B000AFFFF7EBFF034669
:100830004A2B04D0792B02D0482B21D022E0144B34
:100840001B699BB203F03F039BB21B02FB80104B62
:100850009B6903F0F0039AB2FB881343FB800C4BB7
:10086000DB6903F0F0031B099AB2FB881343FB809A
:10087000FB88B3F5017F01D3064B04E0064B02E091
:10088000054B00E0002318460837BD4680BD00BF79
:10089000D0FF0FE000366E010048E80180B584B05B
:1008A00000AF786039607A683B689A428CBF012358
:1008B0000023DBB2FB6006481E21FA68FFF768FFE1
:1008C00004480821FA68FFF763FF1037BD4680BD72
:1008D00000800C4004800C4080B582B000AF074817
:1008E0001E21FFF76BFF786005480821FFF766FFC0
:1008F00038607B6818460837BD4680BD00800C40D4
:1009000004800C4080B582B000AF214B5B6903F4DA
:10091000E063B3F5007F1CD0B3F5007F05D8002B52
:1009200025D0B3F5807F1FD02AE0B3F5C06F24D067
:10093000B3F5E06F1ED0B3F5407F21D1FFF754FF30
:100940000346122B02D9134B7B601CE0124B7B60D9
:1009500019E0FFF749FF0346122B02D90F4B7B60CA
:1009600011E00F4B7B600EE00E4B7B600BE00E4BFB
:100970007B6008E00D4B7B6005E00D4B7B6002E087
:1009800000237B6000BF7B6818460837BD4680BDEA
:1009900000800C40804F120040420F0040B56400C0
:1009A000C0CF6A00C0D8A700809FD500406F40012B
:1009B000003FAB0180B582B000AF0D4800F0C6F932
:1009C0000346FB70FB78072B05D0082B07D1FFF7F8
:1009D0002DFC786006E0FFF795FF786002E00023C9
:1009E0007B6000BF7B6818460837BD4680BD00BFEE
:1009F00006000C0090B585B000AF78600023BB60A6
:100A00007B68344A934203D0334A934200D000E0DB
:100A100000BF786800F09AF90346FB607B682D4AB6
:100A2000934203D02C4A934206D00CE02B4B9B6A96
:100A300003F00303FB6006E0284B9B6A03F00C0302
:100A40009B08FB6000BFFB68032B3AD801A252F859
:100A500023F000BF8B0A0000650A00006D0A000049
:100A6000750A0000FFF768FCB8602DE0FFF778FC1E
:100A7000B86029E0FFF7C0FB0446FFF72DFF0346EF
:100A8000013324FA03F3BB601EE00023BB607B68E4
:100A9000104A934203D07B680F4A934210D10F4B08
:100AA0009A6A7B680B498B4201D1102300E0142322
:100AB00022FA03F3002B03D0FFF748FCB86003E0F1
:100AC00002E00023BB6000BFBB6818461437BD4678
:100AD00090BD00BF02001A0003001C0000800C4003
:100AE00080B483B000AF7860094B5B6D03F0010305
:100AF000002B00D006E000BF054B1A6D7B68134049
:100B0000002BF9D10C37BD465DF8047B704700BF60
:100B100000800C4090B587B000AF78600B46FB704A
:100B200000233B617B681B0A03F00F03013B092B89
:100B300049D801A252F823F07D0B0000830B00007E
:100B4000610B0000C70B0000C70B0000890B000001
:100B5000930B0000C70B0000C70B00009D0B0000AB
:100B60001B4B7B611B4800F041F80446FFF75AFE1F
:100B7000034620461946FFF791FE12E0164B7B61B3
:100B80000FE0164B7B610CE0154B7B6101233B6151
:100B900007E0144B7B6110233B6102E0124B7B6149
:100BA00000BF7B681B0B03F01F03FB603B69002B3E
:100BB00002D03869FFF794FFFB787869F9681A4624
:100BC000FFF7E6FD00E000BF1C37BD4690BD00BF4B
:100BD00040800C400043020008800C4044800C40E0
:100BE00058800C4060800C4078800C4080B584B008
:100BF00000AF78607B6803F47813B3F5801F45D0AD
:100C0000B3F5801F12D8B3F5802F2AD0B3F5802F0B
:100C100005D8002B21D0B3F5003F2ED087E0B3F5E7
:100C2000402F7CD0B3F5602F7DD080E0B3F5C01F9E
:100C300067D0B3F5C01F06D8B3F5A01F34D0B3F505
:100C4000B01F51D073E0B3F5E01F48D0B3F5281FB3
:100C500038D0B3F5D01F14D069E0FFF7E7FAF86099
:100C600068E0FFF7E3FAF860354B9B6803F00F0389
:100C70001A46FB68D340FB605CE0FFF7BDFAF86002
:100C800058E03048FFF7B6FEF86053E02D48FFF714
:100C9000B1FEF8602A4B9B6E03F0F0031B091A4665
:100CA000FB68D340FB6045E02648FFF7A3FEF860F1
:100CB000234B9B6E03F470631B0A1A46FB68D340F8
:100CC000FB6037E01F48FFF795FEF8601C4B9B6EFA
:100CD00003F003031A46FB68D340FB602AE01A487E
:100CE000FFF788FEF86025E01748FFF783FEF860FD
:100CF000134B1B6F03F003031A46FB68D340FB60E2
:100D000018E01148FFF776FEF8600D4B1B6F03F0FB
:100D100030031B091A46FB68D340FB600AE0FFF76B
:100D200049FEF86006E0FFF7EDFDF86002E0002301
:100D3000FB6000BFFB6818461037BD4680BD00BF92
:100D400000800C4002001A0003001C0080B485B033
:100D500000AF78600123FB737B6803F00F03BB6077
:100D6000BB68013B052B77D801A252F823F000BFE6
:100D7000890D0000BF0D0000FB0D0000590E0000A2
:100D8000590E0000370E0000384BDB6A03F4705335
:100D9000B3F5805F09D0B3F5005F03D0B3F5006F02
:100DA00006D008E00223FB7308E00323FB7305E091
:100DB0000423FB7302E00523FB7300BF4FE02B4BC2
:100DC0009B6A03F00303022B06D0032B07D0012BF1
:100DD00008D10323FB730FE00223FB730CE006230F
:100DE000FB7309E0214B9B6A03F48033002B02D094
:100DF0000923FB7300E000BF31E01C4B9B6A03F04A
:100E00000C03082B06D00C2B07D0042B08D103238E
:100E1000FB730FE00223FB730CE00623FB7309E076
:100E2000124B9B6A03F48013002B02D00923FB733F
:100E300000E000BF13E00D4B1B6803F08053002B54
:100E400003D0B3F1805F03D009E00723FB7302E016
:100E50000823FB7300BF02E00023FB7300BFFB7B92
:100E600018461437BD465DF8047B704700800C407F
:100E700080B483B000AF03463960FB71FB79002B6F
:100E80000DD0FB79012B0AD0FB79022B07D0FB791F
:100E9000032B04D0FB79042B01D0FB79052B0949E6
:100EA000FA793B68012000FA03F318461346DB0089
:100EB00013449B000B44103358600C37BD465DF85B
:100EC000047B70470060004080B483B000AF0346ED
:100ED0003960FB71FB79002B0DD0FB79012B0AD017
:100EE000FB79022B07D0FB79032B04D0FB79042B71
:100EF00001D0FB79052B0949FA793B68012000FAFA
:100F000003F318461346DB0013449B000B441033D5
:100F100018600C37BD465DF8047B704700600040E8
:100F200090B585B000AFB9607B600346FB73134694
:100F3000BB73FB7B002B0DD0FB7B012B0AD0FB7B13
:100F4000022B07D0FB7B032B04D0FB7B042B01D0AF
:100F5000FB7B052BBB7B002B0DD07B68002B05D0CA
:100F6000FB7B1846B968FFF7AFFF04E0FB7B184630
:100F7000B968FFF77DFFBB68072B1CD82A4CFA7BAA
:100F80002948F97B0B46DB000B449B0003445B685C
:100F9000B968890008460F218140C9430B40B97BDD
:100FA000B8688000814019431346DB0013449B005E
:100FB0002344596024E01C4CFA7B1B48F97B0B4608
:100FC000DB000B449B00034408331968BB6803F142
:100FD0008043083B9B0018460F238340DB431940A6
:100FE000B87BBB6803F18043083B9B0000FA03F326
:100FF00019431346DB0013449B0023440833196054
:10100000BB7B002B0DD17B68002B05D0FB7B1846EA
:10101000B968FFF759FF04E0FB7B1846B968FFF792
:1010200027FF1437BD4690BD0060004080B487B0F4
:1010300000AFF860B9607A60FB6803F10473DA000E
:10104000BB6813449B007B617B697A681A601C371C
:10105000BD465DF8047B704780B485B000AF786012
:101060007B68002B02D0012B04D007E0084B9B6863
:10107000FB6006E0064BDB68FB6002E00023FB60E0
:1010800000BFFB6818461437BD465DF8047B704707
:101090000000084080B485B000AF786039607B689C
:1010A000012B05D83B6803F07F43002B00D100BF24
:1010B0007B68002B02D0012B03D008E0064BFB60BD
:1010C00002E0064BFB6000BFFB683A681A60143709
:1010D000BD465DF8047B7047080008400C000840DE
:1010E00080B582B000AF0346FB71FB790348002155
:1010F0001A46FFF79BFF0837BD4680BD0000084039
:1011000080B485B000AF7860194B5B69DBB203F047
:101110000F03DBB29B00FB73154B1B6903F0C0038D
:101120009B09DAB2FB7B1343FB737B68FA7B9A70F3
:101130000F4B1B69DBB203F03F03DAB27B685A70D6
:101140000B4B9B69DBB223F00F03FB73084BDB698E
:1011500003F0F0031B09DAB2FB7B1343FB737B68DC
:10116000FA7B1A701437BD465DF8047B704700BFE8
:10117000D0FF0FE080B400AF034B1B681846BD469C
:101180005DF8047B704700BFF400002080B400AF1E
:10119000054B1B680133044A1360034B1B68184658
:1011A000BD465DF8047B7047F800002080B400AFB6
:1011B000034B1B681846BD465DF8047B704700BFB3
:1011C000F800002080B483B000AF7860034A7B68E9
:1011D00013630C37BD465DF8047B70470010084070
:1011E00080B400AF034B9B6A1846BD465DF8047B94
:1011F000704700BF0010084080B483B000AF786033
:10120000396005497B6840333A6841F823200C3740
:10121000BD465DF8047B70470010084080B500AF04
:10122000FFF7DEFF034603F00203002B0CD0002083
:10123000FFF7A0FA034603F5807300201946FFF775
:1012400089FA0220FFF7BEFFFFF7CAFF034603F04B
:101250000103002B06D0FFF799FF00F005F80120ED
:10126000FFF7B0FF80BD00BF80B500AFFFF79EFF66
:10127000034600201946FFF7BFFFFFF77BFF034639
:1012800001201946FFF7B8FF80BD00BF80B483B0CE
:1012900000AF7860034A7B6893610C37BD465DF808
:1012A000047B70470000084080B584B000AF002088
:1012B000FFF7D2FE024680239A420AD00020FFF7B1
:1012C0000FFF802300201946FFF7E4FE0120FFF7FF
:1012D00007FF0720FFF7DAFFEFF311824FF0BF039C
:1012E00083F31188BFF36F8FBFF34F8FBA607B60BA
:1012F000FFF7F0F8F860FB68002B07D0074B4FF0C2
:1013000080521A60BFF34F8FBFF36F8F00233B6093
:101310003B6883F311881037BD4680BD04ED00E0C3
:1013200090B484B000AF0346B9607A60FB73FB7B76
:10133000002B0DD0FB7B012B0AD0FB7B022B07D0AF
:10134000FB7B032B04D0FB7B042B01D0FB7B052B09
:101350000E4CFA7B0D48F97B0B46DB000B449B00DF
:101360000344083359687B68DB431940B8687B68DD
:10137000034019431346DB0013449B002344083306
:1013800059601037BD4690BC704700BF00600040F8
:1013900080B582B000AF0C4B1B687B603B461846A3
:1013A000FFF7AEFE7B681B0E0F2B0AD93B78032B91
:1013B00007D1064A054B1B6823F0500343F0100386
:1013C00013600837BD4680BDFC81E00FC0800C4033
:1013D00080B483B000AF0346FB80134A124B5B6CB2
:1013E00043F020035364114A104B1B6823F07063D1
:1013F00043F0206313600D4B00225A620B4B012215
:101400005A6000BF094B596AFA8813465B001344BF
:101410009B0013449942F5D3044B02225A600C37C7
:10142000BD465DF8047B704700800C400000014021
:1014300080B500AFFFF7ACFF0D480121FFF76AFB55
:101440000320042104220023FFF76AFD032010215A
:101450001022FFF765FF6420FFF7BAFF0320002189
:101460001022FFF75DFF6420FFF7B2FFEEE700BF39
:1014700000D2040008B5074B044613B10021AFF3B6
:101480000080054B1868836A03B19847204600F036
:1014900033F800BF00000000181500000E4B70B5B7
:1014A0001E460E4C0025E41AA410A54204D056F89E
:1014B000253098470135F8E700F020F8084B094C33
:1014C0001E46E41AA4100025A54204D056F8253083
:1014D00098470135F8E770BD6800002068000020DB
:1014E000680000206C00002003460244934202D0B2
:1014F00003F8011BFAE77047FEE700BFF8B500BF2D
:10150000F8BC08BC9E467047F8B500BFF8BC08BCE4
:101510009E467047430000000800002000000000C5
:1015200000000000000000000000000000000000BB
:1015300000000000000000000000000000000000AB
:10154000000000000000000000000000000000009B
:10155000000000000000000000000000000000008B
:10156000000000000000000000000000000000007B
:10157000000000000000000000000000000000006B
:08158000B8EBFF7F0100000041
:10158800006CDC0200800000000000001C15000058
:101598003C1500005C150000000000000000000081
:1015A800000000000000000014150000000000000A
:1015B8000000000000000000000000000000000023
:1015C8000000000000000000000000000000000013
:1015D8000000000000000000000000000000000003
:1015E800000000000000000001010000DD00000014
:0415F80000000000EF
:04000003000001AD4B
:00000001FF
