:1000000000000220AD010000D9010000D90100006C
:10001000D9010000D9010000D9010000D901000078
:10002000D9010000D9010000D90100003108000009
:10003000D9010000D9010000A1090000E509000074
:10004000D9010000D9010000D9010000D901000048
:10005000D9010000D9010000D9010000D901000038
:10006000D9010000D9010000D9010000D901000028
:10007000D9010000D9010000D9010000D901000018
:10008000D9010000D9010000D9010000D901000008
:10009000D9010000D9010000D9010000D9010000F8
:1000A000D9010000D9010000D9010000D9010000E8
:1000B000D9010000D9010000913C0000D9010000E5
:1000C000D9010000D9010000D9010000D9010000C8
:1000D000D9010000D9010000D901000010B5054C7C
:1000E000237833B9044B13B10448AFF300800123E4
:1000F000237010BD7800002000000000B040000018
:10010000084B10B51BB108480849AFF300800848F8
:10011000036803B910BD074B002BFBD0BDE81040AE
:10012000184700BF00000000B04000007C00002025
:100130007400002000000000154B002B08BF134B7B
:100140009D46A3F5803A00218B460F461348144A7A
:10015000121A03F02EFF0F4B002B00D098470E4BC6
:10016000002B00D098470020002104000D000D480E
:10017000002802D00C48AFF3008003F0E9FE200015
:10018000290003F0A9FE03F0CFFE00BF0000080025
:1001900000000220000000000000000078000020A5
:1001A00048250020000000000000000006488047AD
:1001B0000649074A074B9A42BEBF51F8040B42F862
:1001C000040BF8E7FFF7B8FF59030000BC4000003C
:1001D0000000002078000020FEE700BF80B400AFE0
:1001E000044BDB6C1B0EDBB21846BD465DF8047B8E
:1001F000704700BFB081E00F80B582B000AF00F063
:100200001FF87860074B5B6803F00F031A467B68A2
:10021000D3407B60044A7B6813607B6818460837CC
:10022000BD4680BD00800C40F424002080B400AFA7
:10023000024B1846BD465DF8047B7047006CDC023B
:1002400080B582B000AF334BDB6A03F47053B3F573
:10025000805F0AD0B3F5005F03D0B3F5006F08D01C
:100260000BE02D4B1B687B6047E04FF400437B6045
:1002700043E02A4B1B687B603FE0264BDB6803F4BE
:10028000E063B3F5007F1BD0B3F5007F05D8002BEA
:1002900024D0B3F5807F16D02BE0B3F5806F09D062
:1002A000B3F5A06F03D0B3F5407F06D021E01C4B1F
:1002B0007B6021E01B4B7B601EE01B4B7B601BE0E7
:1002C0001A4B7B6018E0FFF789FF0346122B02D917
:1002D000174B7B6010E0174B7B600DE0FFF77EFF54
:1002E0000346122B02D9144B7B6005E0134B7B6055
:1002F00002E000237B6000BF00BF064B1B6803F4D5
:10030000E0339B0B01337A68B2FBF3F318460837EE
:10031000BD4680BD00800C4004000020000000208D
:10032000003FAB01406F4001809FD500C0D8A700BF
:1003300040B56400C0CF6A00804F120040420F00F9
:1003400080B400AF034B1B681846BD465DF8047BC4
:10035000704700BF0000002080B400AFBD465DF8CC
:10036000047B704780B400AF4FF400431846BD468D
:100370005DF8047B704700BF80B400AF4FF47A7320
:100380001846BD465DF8047B704700BF80B400AFDF
:10039000034B1B681846BD465DF8047B704700BFE1
:1003A0000400002080B487B000AFF860B9607A60C4
:1003B000FB6803F10473DA00BB6813449B007B61A4
:1003C0007B697A681A601C37BD465DF8047B70470C
:1003D00080B400AF054A054B1B6923F00403136189
:1003E00030BFBD465DF8047B704700BF00ED00E004
:1003F00080B500AF024801210122FFF7D3FF80BD85
:1004000000600C4080B582B000AF78603960104A5F
:100410007B6813600F4A3B6813600F4B00221A7011
:100420000D4B00225A7003F0A7F8034603F48073C3
:10043000002B09D003F078F8064B1B68002B03D083
:10044000044B1B68042098470837BD4680BD00BF99
:1004500094000020980000209C00002080B582B00D
:1004600000AF02F05DFE386000F03CF80346FB711F
:10047000FB79002B07D0FB79032B04D8FB791846B6
:1004800000F050F801E00023FB71386802F058FEDC
:10049000FB7918460837BD4680BD00BF80B582B0E5
:1004A00000AF0346FB71FB79012B03D9FB79032BCA
:1004B00000D800BFFB79022B02D0FB79032B0CD1B3
:1004C000FB79023B064AD25C0132D1B2044AD154D4
:1004D000FB79022B01D1FFF78BFF0837BD4680BDAA
:1004E0009C00002080B483B000AF0123FB710C4B53
:1004F0001B78002B07D10223FB71094B5B78002B83
:1005000001D10323FB71FB79032B01D90323FB7179
:10051000FB7918460C37BD465DF8047B704700BF79
:100520009C00002080B582B000AF0346FB71FB79D0
:10053000002B03D0FB79042B00D800BF194B1B689C
:10054000002B04D0174B1B68FA7910469847FB79AB
:10055000013B032B18D801A252F823F06D050000CF
:10056000730500007B05000083050000FFF730FFE6
:100570000BE0012002F0C8FE07E0012002F012FFAC
:1005800003E002F06DFF00E000BF074B1B68002B8B
:1005900004D0054B1B68FA79104698470837BD46CA
:1005A00080BD00BF940000209800002080B584B07A
:1005B00000AF78600023FB607B6803F00703002B2B
:1005C00004D07B6823F0070308337B6000F0F4FF5E
:1005D000164B1B68002B05D1154B23F007031A4659
:1005E000124B1A60134B1A687B68134442F21F3295
:1005F000934213D80F4B1A687B681A440D4B1B6843
:100600009A420BD9094B1A680A4B1B681344FB60CA
:10061000084B1A687B681344064A136000F0DAFF3F
:10062000FB6818461037BD4680BD00BFCC230020B4
:10063000A8000020C823002080B483B000AF7860F9
:100640000C37BD465DF8047B704700BF80B483B0B3
:1006500000AF78607B6803F108027B685A607B68B2
:100660004FF0FF329A607B6803F108027B68DA6022
:100670007B6803F108027B681A617B6800221A60BC
:100680000C37BD465DF8047B704700BF80B483B073
:1006900000AF78607B6800221A610C37BD465DF8B8
:1006A000047B704780B485B000AF786039607B68A8
:1006B0005B68FB603B68FA685A60FB689A683B6855
:1006C0009A60FB689B683A685A60FB683A689A606F
:1006D0003B687A681A617B681B685A1C7B681A60E1
:1006E0001437BD465DF8047B704700BF80B485B009
:1006F00000AF786039603B681B68BB60BB68B3F1D2
:10070000FF3F03D17B681B69FB600CE07B6808330B
:10071000FB6002E0FB685B68FB60FB685B681A6873
:10072000BB689A42F6D9FB685A683B685A603B68D6
:100730005B683A689A603B68FA689A60FB683A6856
:100740005A603B687A681A617B681B685A1C7B6830
:100750001A601437BD465DF8047B704780B485B0DD
:1007600000AF78607B681B69FB607B685B687A68B8
:1007700092689A607B689B687A6852685A60FB68E6
:100780005A687B689A4203D17B689A68FB685A6012
:100790007B6800221A61FB681B685A1EFB681A609E
:1007A000FB681B6818461437BD465DF8047B70472C
:1007B00080B485B000AFF860B9607A60FB68043B34
:1007C000FB60FB684FF080721A60FB68043BFB60C3
:1007D000BB6823F00102FB681A60FB68043BFB6006
:1007E000094AFB681A60FB68143BFB607A68FB6887
:1007F0001A60FB68203BFB60FB6818461437BD4657
:100800005DF8047B704700BF0D08000080B483B022
:1008100000AF4FF0BF0383F31188BFF36F8FBFF3B7
:100820004F8F7B60FEE700BF00000000000000006B
:10083000074B19680868B0E8F00F80F30988BFF328
:100840006F8F4FF0000080F311884EF00D0E70474F
:10085000D823002006480068006880F3088862B644
:1008600061B6BFF34F8FBFF36F8F00DF00BF000093
:1008700008ED00E080B584B000AF284BFB60FB685A
:100880001B78DBB2BB60FB68FF221A70FB681B7829
:10089000DBB2FB71FB79DBB223F04003DAB2204B11
:1008A0001A70204B07221A6009E01E4B1B68013B9F
:1008B0001C4A1360FB79DBB25B00DBB2FB71FB7996
:1008C000DBB2DBB25BB2002BEFDB164B1B681B020B
:1008D000144A1360134B1B6803F4E063114A13605E
:1008E000BB68DAB2FB681A700F4A0F4B1B6843F4FF
:1008F0007F0313600C4A0C4B1B6843F07F4313606B
:1009000003F002FA094B00221A60FFF7A3FFFFF77A
:100910007DFF002318461037BD4680BD00E400E08F
:10092000D0230020D423002020ED00E00800002088
:1009300080B483B000AF4FF0BF0383F31188BFF3DF
:100940006F8FBFF34F8F7B60074B1B680133064AE5
:100950001360054B1B68012B01D1044B1B680C373E
:10096000BD465DF8047B70470800002004ED00E000
:1009700080B483B000AF094B1B68013B074A13608A
:10098000064B1B68002B04D100237B607B6883F33C
:1009900011880C37BD465DF8047B704708000020C5
:1009A000EFF30980BFF36F8F0D4B1A6820E9F00F4A
:1009B00010602DE908404FF0BF0080F3118800F06F
:1009C0005DFF4FF0000080F31188BDE80840196812
:1009D0000868B0E8F00F80F30988BFF36F8F7047A5
:1009E000D823002080B582B000AF4FF0BF0383F35F
:1009F0001188BFF36F8FBFF34F8F7B6000F08CFEC9
:100A00000346002B03D0064B4FF080521A600023A0
:100A10003B603B6883F311880837BD4680BD00BF4B
:100A200004ED00E080B483B000AFEFF305837B609A
:100A30007B680F2B04D9064A7B6813441B78FB7034
:100A4000044B1B680C37BD465DF8047B704700BF44
:100A5000F0E300E00CED00E080B584B000AF78601A
:100A600039607B68FB60FFF763FFFB681A68FB680F
:100A7000DB6BF968096C01FB03F31A44FB685A60ED
:100A8000FB6800229A63FB681A68FB689A60FB683F
:100A90001A68FB68DB6B013BF968096C01FB03F327
:100AA0001A44FB68DA60FB68FF2283F84420FB6885
:100AB000FF2283F845203B68002B14D1FB681B699B
:100AC000002B1AD0FB681033184600F053FF034682
:100AD000002B12D00C4B4FF080521A60BFF34F8F97
:100AE000BFF36F8F09E0FB6810331846FFF7AEFDC8
:100AF000FB6824331846FFF7A9FDFFF739FF0123F0
:100B000018461037BD4680BD04ED00E090B58BB0AF
:100B100002AFF860B9601346FB71BB68002B02D1CD
:100B20000023FB6104E0FB68BA6802FB03F3FB618E
:100B3000FB6948331846FFF739FDB861BB69002BE4
:100B40000BD0BB6948337B61FC79BB690093F868C3
:100B5000B9687A69234600F005F8BB69184624375E
:100B6000BD4690BD80B584B000AFF860B9607A60D2
:100B7000FB70BB68002B03D1BB69BA691A6002E045
:100B8000BB697A681A60BB69FA68DA63BB69BA68DC
:100B90001A64B8690121FFF75FFF1037BD4680BDB9
:100BA00080B58AB000AFF860B9607A603B6000231E
:100BB0007B62FB683B62BB68002B03D13B6A1B6C0A
:100BC000002B00D100BF3B68022B03D13B6ADB6BDB
:100BD000012B00D100BF01F03FF80346002B02D1EA
:100BE0007B68002BFFD1FFF7A3FE3B6A9A6B3B6A41
:100BF000DB6B9A4202D33B68022B29D1386AB96871
:100C00003A6800F0EBF9F8613B6A5B6A002B10D0A0
:100C10003B6A2433184600F0ADFE0346002B13D088
:100C2000414B4FF080521A60BFF34F8FBFF36F8F6D
:100C30000AE0FB69002B07D03B4B4FF080521A6053
:100C4000BFF34F8FBFF36F8FFFF792FE012367E073
:100C50007B68002B03D1FFF78BFE002360E07B6AEB
:100C6000002B06D107F11403184600F0D9FE01232A
:100C70007B62FFF77DFE00F09FFCFFF759FE3B6AA9
:100C800093F84430DBB25BB2B3F1FF3F03D13B6A70
:100C9000002283F844203B6A93F84530DBB25BB214
:100CA000B3F1FF3F03D13B6A002283F84520FFF7F1
:100CB0005FFE07F114023B1D1046194600F0C6FE08
:100CC0000346002B24D1386A00F082FA0346002B39
:100CD00018D03B6A03F110027B681046194600F0F9
:100CE00017FE386A00F00CFA00F074FC0346002B83
:100CF00015D10D4B4FF080521A60BFF34F8FBFF3E9
:100D00006F8F0CE0386A00F0FBF900F063FC6AE7D3
:100D1000386A00F0F5F900F05DFC002300E062E7BE
:100D200018462837BD4680BD04ED00E080B58CB084
:100D300000AFF860B9607A603B60FB68BB62BB687B
:100D4000002B03D1BB6A1B6C002B00D100BF3B689A
:100D5000022B03D1BB6ADB6B012B00D100BFFFF775
:100D600061FEEFF311824FF0BF0383F31188BFF3ED
:100D70006F8FBFF34F8FFA61BB61FB697B62BB6A08
:100D80009A6BBB6ADB6B9A4202D33B68022B2CD175
:100D9000BB6A93F8453087F82330B86AB9683A6877
:100DA00000F01CF997F92330B3F1FF3F12D1BB6A71
:100DB0005B6A002B16D0BB6A2433184600F0DAFDBC
:100DC0000346002B0ED07B68002B0BD07B680122E2
:100DD0001A6007E097F823300133DBB2DAB2BB6A5E
:100DE00083F845200123FB6201E00023FB627B6A5C
:100DF0007B617B6983F31188FB6A18463037BD46F7
:100E000080BD00BF80B58AB000AFF860B9607A607D
:100E10003B6000237B62FB683B62BB68002B03D115
:100E20003B6A1B6C002B00D100BF00F015FF03468E
:100E3000002B02D17B68002BFFD1FFF779FD3B6AC5
:100E40009B6BFB61FB69002B46D03B6ADB68BB6197
:100E5000386AB96800F02EF93B68002B21D1FB6994
:100E60005A1E3B6A9A633B6A1B68002B04D100F050
:100E7000F3FF02463B6A5A603B6A1B69002B27D08E
:100E80003B6A1033184600F075FD0346002B1FD057
:100E9000514B4FF080521A60BFF34F8FBFF36F8FEB
:100EA00016E03B6ABA69DA603B6A5B6A002B0FD0D6
:100EB0003B6A2433184600F05DFD0346002B07D043
:100EC000454B4FF080521A60BFF34F8FBFF36F8FC7
:100ED000FFF74EFD01237AE07B68002B03D1FFF77B
:100EE00047FD002373E07B6A002B06D107F1100356
:100EF000184600F095FD01237B62FFF739FD00F0F5
:100F00005BFBFFF715FD3B6A93F84430DBB25BB245
:100F1000B3F1FF3F03D13B6A002283F844203B6AD0
:100F200093F84530DBB25BB2B3F1FF3F03D13B6ACC
:100F3000002283F84520FFF71BFD07F110023B1D3F
:100F40001046194600F082FD0346002B31D1386A65
:100F500000F028F90346002B25D03B6A1B68002BC4
:100F600008D1FFF7E5FC3B6A5B68184600F092FE8B
:100F7000FFF7FEFC3B6A03F124027B68104619462A
:100F800000F0C6FC386A00F0BBF800F023FB034613
:100F9000002B1BD1104B4FF080521A60BFF34F8FC4
:100FA000BFF36F8F12E0386A00F0AAF800F012FB6E
:100FB00043E7386A00F0A4F800F00CFB386A00F050
:100FC000F1F80346002B01D0002300E035E7184676
:100FD0002837BD4680BD00BF04ED00E080B586B077
:100FE00000AFF860B9607A6000237B61FB689B6B9F
:100FF0003B61FB681B6C002B0DD1FB681B68002B51
:101000004FD1FB685B68184600F0BCFE7861FB6856
:1010100000225A6045E07B68002B1AD1FB689A6871
:10102000FB681B6C1046B9681A4602F0B7FFFB68F4
:101030009A68FB681B6C1A44FB689A60FB689A68A4
:10104000FB685B689A422CD3FB681A68FB689A605D
:1010500027E0FB68DA68FB681B6C1046B9681A4623
:1010600002F09CFFFB68DA68FB681B6C5B421A4469
:10107000FB68DA60FB68DA68FB681B689A4207D293
:10108000FB685A68FB681B6C5B421A44FB68DA60B9
:101090007B68022B05D13B69002B02D03B69013BE9
:1010A0003B613B695A1CFB689A637B691846183799
:1010B000BD4680BD80B582B000AF786039607B6886
:1010C0001B6C002B19D07B68DA687B681B6C1A4498
:1010D0007B68DA607B68DA687B685B689A4203D376
:1010E0007B681A687B68DA607B68DA687B681B6CEF
:1010F000386811461A4602F051FF0837BD4680BDD8
:1011000080B584B000AF7860FFF712FC7B6893F87D
:101110004530FB7313E07B685B6A002B0AD07B6869
:101120002433184600F026FC0346002B03D000F0C1
:10113000D1FC00E007E0FB7B013BDBB2FB7397F9DE
:101140000F30002BE7DC7B68FF2283F84520FFF798
:101150000FFCFFF7EDFB7B6893F84430BB7313E0A3
:101160007B681B69002B0ED07B681033184600F09B
:1011700001FC0346002B01D000F0ACFCBB7B013B23
:10118000DBB2BB7300E003E097F90E30002BE7DC25
:101190007B68FF2283F84420FFF7EAFB1037BD4647
:1011A00080BD00BF80B584B000AF7860FFF7C0FBA2
:1011B0007B689B6B002B02D10123FB6001E00023C5
:1011C000FB60FFF7D5FBFB6818461037BD4680BDB6
:1011D00080B584B000AF7860FFF7AAFB7B689A6B9C
:1011E0007B68DB6B9A4202D10123FB6001E00023A4
:1011F000FB60FFF7BDFBFB6818461037BD4680BD9E
:1012000080B485B000AF786039600023FB6014E0E3
:101210000E4AFB6852F83330002B0BD10B49FB68A8
:101220003A6841F83320094AFB68DB0013447A68C6
:101230005A6005E0FB680133FB60FB68092BE7D9C6
:101240001437BD465DF8047B704700BFF8240020CA
:1012500080B586B000AFF860B9607A60FB687B61EA
:10126000FFF766FB7B6993F84430DBB25BB2B3F106
:10127000FF3F03D17B69002283F844207B6993F808
:101280004530DBB25BB2B3F1FF3F03D17B69002293
:1012900083F84520FFF76CFB7B699B6B002B06D125
:1012A0007B6924331846B9687A6800F047FB78698F
:1012B000FFF726FF1837BD4680BD00BF80B58CB054
:1012C00004AFF860B9603B601346FB80FB889B006D
:1012D0001846FFF76BF978617B69002B0ED0502020
:1012E000FFF764F9F861FB69002B03D0FB697A69A9
:1012F0001A6305E07869FFF79FF901E00023FB61BD
:10130000FB69002B13D0FA88BB6A0093FB6A019338
:10131000FB69029300230393F868B9683B6800F007
:101320000FF8F86900F07AF80123BB6102E04FF092
:10133000FF33BB61BB6918462037BD4680BD00BF87
:1013400080B586B000AFF860B9607A603B60BB6A78
:101350001A6B7B6803F18043013B9B0013443B61A4
:101360003B6923F007033B6100237B6113E0BA680C
:101370007B6913441978BA6A7B69134430330A468F
:101380001A71BA687B6913441B78002B00D105E001
:101390007B6901337B617B69092BE8D9BB6A002239
:1013A00083F83D203B6A022B01D902233B62BB6AD2
:1013B0003A6ADA62BB6A3A6A1A64BB6A00225A6401
:1013C000BB6A04331846FFF761F9BB6A1833184645
:1013D000FFF75CF9BB6ABA6A1A613B6AC3F10302A0
:1013E000BB6A9A61BB6ABA6A5A62BB6A00229A6493
:1013F000BB6A002283F84C203869F9683A68FFF725
:10140000D7F90246BB6A1A607B6A002B02D07B6A5E
:10141000BA6A1A601837BD4680BD00BF80B582B079
:1014200000AF7860FFF784FA2B4B1B6801332A4A20
:1014300013602A4B1B68002B09D1284A7B68136074
:10144000254B1B68012B10D100F05AFB0DE0244BFB
:101450001B68002B09D1214B1B68DA6A7B68DB6AA9
:101460009A4202D81D4A7B6813601E4B1B680133E9
:101470001C4A13607B68DB6A1A46012303FA02F2F6
:10148000194B1B681343184A13607B68DA6A1346CA
:101490009B0013449B00154A1A447B680433104692
:1014A0001946FFF7FFF8FFF763FA0D4B1B68002B97
:1014B0000ED00A4B1B68DA6A7B68DB6A9A4207D255
:1014C0000B4B4FF080521A60BFF34F8FBFF36F8FFB
:1014D0000837BD4680BD00BF88240020D8230020E7
:1014E00094240020A424002090240020DC23002049
:1014F00004ED00E080B584B000AF78600023FB60AD
:101500007B68002B0AD00C4B1B6800F055F87868FC
:10151000002100F0B5FC00F05DF8F860FB68002BDE
:1015200007D1064B4FF080521A60BFF34F8FBFF3C5
:101530006F8F1037BD4680BDB024002004ED00E061
:1015400080B584B002AF00230093154B019315487A
:1015500015498C220023FFF7B1FE78607B68012BD0
:1015600002D100F0F1FC78607B68012B14D14FF0C0
:10157000BF0383F31188BFF36F8FBFF34F8F3B60BF
:101580000A4B4FF0FF321A60094B01221A60094BD7
:1015900000221A60FFF76EF90837BD4680BD00BF14
:1015A000AC240020ED1A0000E03F0000A824002039
:1015B000942400208C24002080B400AF044B1B68CE
:1015C0000133034A1360BD465DF8047B704700BFDA
:1015D000B024002080B584B000AF0023FB6000235E
:1015E000BB603C4B1B68FFF7A3F93A4B1B68013B00
:1015F000384A1360374B1B68002B63D1364B1B688E
:10160000002B5FD030E0354BDB68DB68FB60FB68AC
:1016100018331846FFF7A2F8FB6804331846FFF7A3
:101620009DF8FB68DB6A1A46012303FA02F22C4B91
:101630001B6813432A4A1360FB68DA6A13469B004F
:1016400013449B00274A1A44FB680433104619468A
:10165000FFF728F8FB68DA6A234B1B68DB6A9A42BB
:1016600002D3224B01221A601C4B1B68002BCAD1EB
:10167000FB68002B01D000F0CBFA1D4B1B687B6090
:101680007B68002B10D000F047F80346002B02D0F7
:10169000164B01221A607B68013B7B607B68002B44
:1016A000F1D1134B00221A60104B1B68002B09D09C
:1016B0000123BB600F4B4FF080521A60BFF34F8F76
:1016C000BFF36F8FFFF754F9BB6818461037BD465C
:1016D00080BD00BFB02400208824002048240020C2
:1016E00090240020DC230020D82300209C2400200C
:1016F0009824002004ED00E080B483B000AF054BD7
:101700001B687B607B6818460C37BD465DF8047B20
:10171000704700BF8C24002080B586B000AF002346
:101720007B614B4B1B68002B40F08180494B1B6851
:1017300001333B61474A3B6913603B69002B12D17F
:10174000454B1B68444B1B68FB60444B1B68424A7B
:101750001360424AFB681360414B1B680133404AE7
:10176000136000F055FA3F4B1B683A699A424FD319
:10177000394B1B681B68002B01D1012300E00023BB
:10178000002B04D0374B4FF0FF321A6040E0324B51
:101790001B68DB68DB68BB60BB685B687B603A69C1
:1017A0007B689A4203D22F4A7B68136030E0BB68A3
:1017B00004331846FEF7D2FFBB689B6A002B04D0A7
:1017C000BB6818331846FEF7C9FFBB68DB6A1A46C8
:1017D000012303FA02F2244B1B681343224A1360CD
:1017E000BB68DA6A13469B0013449B001F4A1A44E5
:1017F000BB68043310461946FEF754FFBB68DA6A2B
:101800001B4B1B68DB6A9A4201D301237B61AFE764
:10181000174B1B68DA6A154913469B0013449B005B
:101820000B441B68012B01D901237B6104E0114BA0
:101830001B6801330F4A13600F4B1B68002B01D04C
:1018400001237B617B6918461837BD4680BD00BF08
:10185000B02400208C2400204024002044240020B8
:10186000A0240020A824002090240020DC230020B5
:10187000D8230020982400209C24002080B485B028
:1018800000AF1E4B1B68002B03D01D4B01221A60BA
:101890002FE01B4B00221A601A4B1B687B607B6891
:1018A000B3FA83F3FB70FB78C3F11F03FB60FA68A4
:1018B00013469B0013449B00FA6813469B00134495
:1018C0009B00114A1344BB60BB685B685A68BB68E5
:1018D0005A60BB685A68BB6808339A4204D1BB6837
:1018E0005B685A68BB685A60BB685B68DB68074A1C
:1018F00013601437BD465DF8047B7047B0240020A8
:101900009C24002090240020DC230020D8230020E9
:1019100080B582B000AF78603960074B1B68183320
:1019200078681946FEF7E2FE3868012100F0A8FA4F
:101930000837BD4680BD00BFD823002080B584B0E5
:1019400000AFF860B9607A60094B1B681833F8681B
:101950001946FEF7A7FE7B68002B02D04FF0FF333D
:10196000BB60B868796800F08BFA1037BD4680BD5F
:10197000D823002080B584B000AF78607B68DB6836
:10198000DB68BB60BB6818331846FEF7E7FE1E4BEA
:101990001B68002B1ED1BB6804331846FEF7DEFE21
:1019A000BB68DB6A1A46012303FA02F2174B1B6875
:1019B0001343164A1360BB68DA6A13469B0013444C
:1019C0009B00134A1A44BB68043310461946FEF7BD
:1019D00069FE05E0BB6818330E481946FEF762FE43
:1019E000BB68DA6A0C4B1B68DB6A9A4205D9012393
:1019F000FB600A4B01221A6001E00023FB60FB68D8
:101A000018461037BD4680BDB02400209024002029
:101A1000DC23002048240020D82300209C24002020
:101A200080B483B000AF7860064B1A687B681A6098
:101A3000054B1A687B685A600C37BD465DF8047B1D
:101A4000704700BFA02400208C24002080B584B003
:101A500000AF78603960FEF76BFF1C4B1B68BB6002
:101A60003B681B68B3F1FF3F02D10023FB6026E017
:101A70007B681A68164B1B689A4207D07B685A68C5
:101A8000BB689A4202D80123FB6018E07B685B6860
:101A9000BA68D21A3B681B689A420ED23B681A6831
:101AA0007B685968BB68CB1A1A443B681A6078682F
:101AB000FFF7B6FF0023FB6001E00123FB60FEF7A8
:101AC00057FFFB6818461037BD4680BD8C240020A8
:101AD000A024002080B400AF034B01221A60BD4651
:101AE0005DF8047B704700BF9C24002080B582B065
:101AF00000AF786000F042F802F0C4F8FAE700BFE7
:101B000080B582B000AF00237B600CE07A6813469A
:101B10009B0013449B00114A13441846FEF796FDA0
:101B20007B6801337B607B68022BEFD90C48FEF7A2
:101B30008DFD0C48FEF78AFD0B48FEF787FD0B482C
:101B4000FEF784FD0A48FEF781FD0A4B044A1A603D
:101B5000094B044A1A600837BD4680BDDC230020CB
:101B6000182400202C240020482400205C2400207D
:101B700074240020402400204424002080B582B03A
:101B800000AF28E0FFF718FD164B1B68002B0CBFB9
:101B900001230023DBB27B60FFF71CFD7B68002B79
:101BA00019D1FEF7C5FE0F4BDB68DB683B603B6875
:101BB00004331846FEF7D2FD0B4B1B68013B0A4A63
:101BC00013600A4B1B68013B084A1360FEF7D0FE06
:101BD000386800F00DF8054B1B68002BD2D1083790
:101BE000BD4680BD5C240020882400207024002095
:101BF00080B582B000AF78607B681B6B1846FEF73B
:101C00001BFD7868FEF718FD0837BD4680BD00BF94
:101C100080B483B000AF0E4B1B681B68002B01D152
:101C2000012300E00023002B04D00A4B4FF0FF32C9
:101C30001A6008E0064B1B68DB68DB687B607B682A
:101C40005B68044A13600C37BD465DF8047B70473F
:101C500040240020A824002080B483B000AF0B4BA8
:101C60001B68002B02D101237B6008E0084B1B6836
:101C7000002B02D102237B6001E000237B607B68A4
:101C800018460C37BD465DF8047B7047942400204D
:101C9000B024002080B584B000AF78607B68FB6022
:101CA0007B68002B64D0FB68DA6A334B1B68DB6A05
:101CB0009A425DD2FB689B69002B06DB2E4B1B68AA
:101CC000DB6AC3F10302FB689A61FB685969FB6830
:101CD000DA6A13469B0013449B00284A1344994236
:101CE00001D1012300E00023002B3CD0FB6804332A
:101CF0001846FEF733FD0346002B15D1FB68DA6A60
:101D00001E4913469B0013449B000B441B68002B89
:101D10000AD1FB68DB6A1A4601239340DA43184B69
:101D20001B681340164A1360134B1B68DA6AFB6882
:101D3000DA62FB68DB6A1A46012303FA02F2104BEF
:101D40001B6813430E4A1360FB68DA6A13469B0054
:101D500013449B00094A1A44FB6804331046194691
:101D6000FEF7A0FC04E0044B1B68DA6AFB68DA6249
:101D70001037BD4680BD00BFD8230020DC230020E3
:101D80009024002080B584B000AF78607B68BB6091
:101D90000023FB607B68002B53D02C4B1B68BB6877
:101DA0005B6C5A1EBB685A64BB68DA6ABB681B6C02
:101DB0009A4246D0BB685B6C002B42D1BB680433AF
:101DC0001846FEF7CBFC0346002B15D1BB68DA6A38
:101DD0001F4913469B0013449B000B441B68002BB8
:101DE0000AD1BB68DB6A1A4601239340DA43194BD8
:101DF0001B681340174A1360BB681A6CBB68DA6231
:101E0000BB68DB6AC3F10302BB689A61BB68DB6A2B
:101E10001A46012303FA02F20E4B1B6813430D4AC4
:101E20001360BB68DA6A13469B0013449B00084AA0
:101E30001A44BB68043310461946FEF733FC0123ED
:101E4000FB60FB6818461037BD4680BDD8230020D4
:101E5000DC2300209024002080B400AF074B1B68D7
:101E6000002B04D0054B1B685A6C01325A64034B9B
:101E70001B681846BD465DF8047B7047D8230020D8
:101E800080B584B000AF78603960284B1B68FB6078
:101E9000274B1B6804331846FEF760FC0346002BF3
:101EA0000BD1234B1B68DB6A1A4601239340DA43AC
:101EB000204B1B6813401F4A13607B68B3F1FF3F40
:101EC0000AD13B68002B07D0194B1B6804331A4812
:101ED0001946FEF7E7FB26E0FA687B681344BB600F
:101EE000134B1B68BA685A60BA68FB689A4209D2F9
:101EF000124B1A680E4B1B68043310461946FEF746
:101F0000F5FB10E00E4B1A68094B1B6804331046B2
:101F10001946FEF7EBFB0B4B1B68BA689A4202D2DC
:101F2000084ABB6813601037BD4680BD8C24002072
:101F3000D823002090240020742400204424002072
:101F400040240020A824002080B584B002AF0023E4
:101F50007B6000F047FA0A4B1B68002B0AD0022373
:101F60000093084B0193084808498C220023FFF78F
:101F7000A5F978607B6818460837BD4680BD00BF6C
:101F8000E4240020E824002081200000E83F000035
:101F900080B588B000AFF860B9607A603B6000231C
:101FA000FB611D4B1B68002B30D0BB683B617B681D
:101FB0007B61FB68BB61BB68052B1CDCFFF74CFE3B
:101FC0000346022B0BD1144B1A6807F1100310467D
:101FD0001946BA6A0023FEF7E3FDF86116E00E4BDE
:101FE0001A6807F110031046194600220023FEF775
:101FF000D7FDF8610AE0084B1A6807F11003104694
:1020000019463A680023FEF791FEF861FB6918460D
:102010002037BD4680BD00BFE424002080B586B0D7
:1020200002AF78603960154B1B68DB68DB68FB60CA
:10203000FB6804331846FEF791FBFB68DB69012B54
:1020400015D1FB689A697B681344F86819463A68A9
:102050007B6800F0B9F80346002B08D000230093FA
:10206000F86800217A680023FFF792FFB860FB68E8
:102070005B6AF86898471037BD4680BDDC240020B5
:1020800080B584B000AF786007F10803184600F00F
:1020900057F8F860BB68F868194600F003F800F0DC
:1020A000D5F8F1E780B584B000AF78603960FFF70C
:1020B00083FA07F10803184600F066F8F860BB6879
:1020C000002B31D13B68002B0AD17A68FB689A4219
:1020D00006D8FFF77FFA7868F968FFF79FFF25E0D9
:1020E0003B68002B08D0134B1B681B68002B0CBFF0
:1020F00001230023DBB23B600F4B19687A68FB6851
:10210000D31A084619463A68FFF7A2F8FFF762FAB1
:102110000346002B0AD1094B4FF080521A60BFF3DF
:102120004F8FBFF36F8F01E0FFF754FA1037BD46B2
:1021300080BD00BFE0240020E424002004ED00E086
:1021400080B485B000AF78600E4B1B681B68002B15
:102150000CBF01230023DBB21A467B681A607B6840
:102160001B68002B05D1074B1B68DB681B68FB60F5
:1021700001E00023FB60FB6818461437BD465DF89C
:10218000047B7047DC24002080B584B000AF786009
:10219000FFF7B2FAF8600B4B1B68FA689A4205D257
:1021A00000F0CEF87B6801221A6002E07B68002212
:1021B0001A60044AFB681360FB6818461037BD4676
:1021C00080BD00BFEC24002080B586B000AFF86071
:1021D000B9607A603B6000237B61FB68BA685A6033
:1021E000FB68FA681A61BA687B689A4212D87A6802
:1021F0003B68D21AFB689B699A4202D301237B6138
:102200001BE0104B1A68FB68043310461946FEF7B2
:102210006DFA12E07A683B689A4206D2BA683B6867
:102220009A4202D301237B6107E0074B1A68FB68DF
:10223000043310461946FEF759FA7B6918461837D9
:10224000BD4680BDE0240020DC24002080B58AB09B
:1022500002AF62E0BB68002B5FDB3B69FB61FB699F
:102260005B69002B04D0FB6904331846FEF776FA4D
:102270003B1D1846FFF788FFB861BB68092B4BD898
:1022800001A252F823F000BFB1220000B1220000E9
:10229000B12200001B230000F522000011230000E2
:1022A000B1220000B12200001B230000F522000033
:1022B000FA68FB699B691A44FB68F8691146BA69B8
:1022C000FFF782FF0346002B13D0FB695B6AF869B6
:1022D0009847FB69DB69012B0BD1FA68FB699B69A5
:1022E0001A4400230093F86900210023FFF750FEF1
:1022F000786112E0FA68FB699A61FB699A69BB69C7
:102300001344F8691946BA69BB69FFF75DFF04E039
:10231000F869FEF791F900E000BF084B1A6807F171
:1023200008031046194600220023FEF76BFD034602
:10233000002B8FD12037BD4680BD00BFE424002094
:1023400080B588B002AF37E0244B1B68DB681B68A0
:102350007B61224B1B68DB68DB683B613B690433B4
:102360001846FEF7FBF93B695B6A386998473B6999
:10237000DB69012B20D13B699A697B691344FB60BF
:10238000FA687B699A420ED93B69FA685A603B69E0
:102390003A691A61114B1A683B69043310461946B1
:1023A000FEF7A4F908E000230093386900217A6958
:1023B0000023FFF7EDFDB860084B1B681B68002B7E
:1023C000C2D1064B1B687B60054B1B68034A136038
:1023D000034A7B6813601837BD4680BDDC240020AB
:1023E000E024002080B500AFFEF7A2FA124B1B6874
:1023F000002B1DD11148FEF729F91148FEF726F9E7
:10240000104B0E4A1A60104B0D4A1A600A200C211C
:102410000022FEF77BFB0246074B1A60064B1B6847
:10242000002B05D0044B1B6818460849FEF7E8FE50
:10243000FEF79EFA80BD00BFE4240020B4240020F3
:10244000C8240020DC240020E0240020F03F00000D
:1024500080B487B000AFF860B9607A60FB6803F1C0
:102460000473DA00BB6813449B007B617B697A6864
:102470001A601C37BD465DF8047B704780B485B098
:1024800000AF786039607B6803F10473DA003B6861
:1024900013449B00FB60FB681B6818461437BD465D
:1024A0005DF8047B704700BF80B485B000AF7860F2
:1024B0007B68002B04D07B68B3F5004F00D800BFC9
:1024C0007B68B3FA83F3C3F11F03FB60FB68184614
:1024D0001437BD465DF8047B704700BF80B400AF81
:1024E000044BDB6C1B0EDBB21846BD465DF8047B6B
:1024F000704700BFB081E00F80B400AF054BDB6CCC
:1025000003F47F031B0CDBB21846BD465DF8047B69
:10251000704700BFB081E00F80B582B000AFFFF719
:10252000EBFF03464A2B04D0792B02D0482B21D055
:1025300022E0144B1B699BB203F03F039BB21B02CA
:10254000FB80104B9B6903F0F0039AB2FB881343A6
:10255000FB800C4BDB6903F0F0031B099AB2FB888C
:102560001343FB80FB88B3F5017F01D3064B04E0E6
:10257000064B02E0054B00E0002318460837BD4635
:1025800080BD00BFD0FF0FE000366E010048E801BB
:1025900080B584B000AF786039607A683B689A4251
:1025A0008CBF01230023DBB2FB6006481E21FA68C2
:1025B000FFF74EFF04480821FA68FFF749FF10377C
:1025C000BD4680BD00800C4004800C4080B582B0C8
:1025D00000AF07481E21FFF751FF7860054808212A
:1025E000FFF74CFF38607B6818460837BD4680BD52
:1025F00000800C4004800C4080B582B000AF214BBD
:102600005B6903F4E063B3F5007F1CD0B3F5007F92
:1026100005D8002B25D0B3F5807F1FD02AE0B3F575
:10262000C06F24D0B3F5E06F1ED0B3F5407F21D149
:10263000FFF754FF0346122B02D9134B7B601CE0BB
:10264000124B7B6019E0FFF749FF0346122B02D9BA
:102650000F4B7B6011E00F4B7B600EE00E4B7B60FD
:102660000BE00E4B7B6008E00D4B7B6005E00D4BF3
:102670007B6002E000237B6000BF7B681846083760
:10268000BD4680BD00800C40804F120040420F00CC
:1026900040B56400C0CF6A00C0D8A700809FD500B5
:1026A000406F4001003FAB0180B582B000AF0D48E4
:1026B00000F01EFB0346FB70FB78072B05D0082BB0
:1026C00007D1FDF7BDFD786006E0FFF795FF786064
:1026D00002E000237B6000BF7B6818460837BD46D8
:1026E00080BD00BF06000C0080B485B000AF7860EC
:1026F000284BDB6B002B14BF01230023BB72254B3F
:1027000041F67132DA63234B5B6803F00703FB6029
:10271000FB68012B01D9042B02D10023FB7202E0DC
:102720000123FB7200BF7B681B4A934207D9FB7AE7
:10273000002B01D0052300E00423FB6016E07B683A
:10274000154A93420BD87B68144A934207D9FB7A07
:10275000002B01D0032300E00123FB6006E0FB7A9D
:10276000002B01D0022300E00023FB600949094B44
:102770005B6823F00702FB6813434B60BB7A002BB6
:1027800002D0044B0022DA631437BD465DF8047BA7
:10279000704700BF00000C400048E8010024F4002E
:1027A00080B500AFFDF742FD03461846FFF79CFFDA
:1027B00080BD00BF90B585B000AF78600023BB60DE
:1027C0007B68344A934203D0334A934200D000E0FE
:1027D00000BF786800F08CFA0346FB607B682D4AE6
:1027E000934203D02C4A934206D00CE02B4B9B6AB9
:1027F00003F00303FB6006E0284B9B6A03F00C0325
:102800009B08FB6000BFFB68032B3AD801A252F87B
:1028100023F000BF4B280000252800002D280000D1
:1028200035280000FDF79EFDB8602DE0FDF7AEFDF8
:10283000B86029E0FDF7E0FC0446FFF7C7FE034659
:10284000013324FA03F3BB601EE00023BB607B6806
:10285000104A934203D07B680F4A934210D10F4B2A
:102860009A6A7B680B498B4201D1102300E0142344
:1028700022FA03F3002B03D0FDF77EFDB86003E0DE
:1028800002E00023BB6000BFBB6818461437BD469A
:1028900090BD00BF02001A0003001C0000800C4025
:1028A00080B483B000AF7860094B5B6D03F0010327
:1028B000002B00D006E000BF054B1A6D7B6813406B
:1028C000002BF9D10C37BD465DF8047B704700BF83
:1028D00000800C4090B585B000AF786039607B68AF
:1028E0001B0903F00F03FB60FB68013B062B00F2A2
:1028F000D28001A252F823F015290000972A000087
:10290000972A00004929000073290000C729000008
:10291000432A00003B68002B03D03B68082B00D8FB
:1029200000BFFFF73DFF5E495D4B1B6823F4E032BB
:102930003B68013B9B0313430B60FDF75DFCB860F4
:10294000B868FFF7D1FEA7E03B68002B04D03B68D6
:10295000B3F5007F00D800BF3868FFF7A5FD3860E9
:102960004F494F4B9B6823F00F023B6813438B602A
:1029700092E03B68002B04D03B68B3F5007F00D8A1
:1029800000BFFFF70DFFFDF75BFC02463B68B2FBA3
:10299000F3F4FFF7C1FD034620461946FFF7F8FDA3
:1029A0003868FFF781FD38603D493D4B5B6823F097
:1029B0000F023B6813434B60FDF71EFCB860B8681C
:1029C000FFF792FE68E07B68364A934217D0364A9A
:1029D000934225D0354A934200D031E00420FFF7DE
:1029E0005FFF3868FFF760FD38602D492C4B9B6E08
:1029F00023F0F0023B681B0113438B6620E00420A8
:102A0000FFF74EFF3868FFF74FFD38602449244B2D
:102A10009B6E23F470623B681B0213438B660FE0CE
:102A20000420FFF73DFF3868FFF73EFD38601C4982
:102A30001B4B9B6E23F003023B6813438B6600BF66
:102A40002AE07B681A4A934203D01A4A934210D074
:102A500020E04020FFF724FF3868FFF725FD3860AD
:102A60000F490F4B1B6F23F003023B6813430B67A7
:102A700010E04020FFF714FF3868FFF715FD3860BD
:102A80000749074B1B6F23F030023B681B011343C0
:102A90000B6700BF00E000BF1437BD4690BD00BF0C
:102AA00000800C406026140060062A0060161000AA
:102AB000700716007017180090B587B000AF7860E7
:102AC0000B46FB7000233B617B681B0A03F00F037E
:102AD000013B092B49D801A252F823F0212B000019
:102AE000272B0000052B00006B2B00006B2B000038
:102AF0002D2B0000372B00006B2B00006B2B0000F0
:102B0000412B00001B4B7B611B4800F041F8044641
:102B1000FFF702FD034620461946FFF739FD12E094
:102B2000164B7B610FE0164B7B610CE0154B7B6114
:102B300001233B6107E0144B7B6110233B6102E002
:102B4000124B7B6100BF7B681B0B03F01F03FB6014
:102B50003B69002B02D03869FFF7A2FEFB78786949
:102B6000F9681A46FFF774FC00E000BF1C37BD4649
:102B700090BD00BF40800C400043020008800C4024
:102B800044800C4058800C4060800C4078800C40A1
:102B900080B584B000AF78607B6803F47813B3F538
:102BA000801F45D0B3F5801F12D8B3F5802F2AD0EF
:102BB000B3F5802F05D8002B21D0B3F5003F2ED0E0
:102BC00087E0B3F5402F7CD0B3F5602F7DD080E057
:102BD000B3F5C01F67D0B3F5C01F06D8B3F5A01F6B
:102BE00034D0B3F5B01F51D073E0B3F5E01F48D037
:102BF000B3F5281F38D0B3F5D01F14D069E0FDF726
:102C00001FFBF86068E0FDF71BFBF860354B9B6825
:102C100003F00F031A46FB68D340FB605CE0FDF74E
:102C2000EBFAF86058E03048FFF7C4FDF86053E075
:102C30002D48FFF7BFFDF8602A4B9B6E03F0F003B1
:102C40001B091A46FB68D340FB6045E02648FFF7A6
:102C5000B1FDF860234B9B6E03F470631B0A1A46A8
:102C6000FB68D340FB6037E01F48FFF7A3FDF86027
:102C70001C4B9B6E03F003031A46FB68D340FB60BA
:102C80002AE01A48FFF796FDF86025E01748FFF79D
:102C900091FDF860134B1B6F03F003031A46FB68AA
:102CA000D340FB6018E01148FFF784FDF8600D4B3E
:102CB0001B6F03F030031B091A46FB68D340FB600F
:102CC0000AE0FFF7F1FCF86006E0FFF795FCF8601A
:102CD00002E00023FB6000BFFB6818461037BD46CA
:102CE00080BD00BF00800C4002001A0003001C00E1
:102CF00080B485B000AF78600123FB737B6803F07C
:102D00000F03BB60BB68013B052B77D801A252F8CB
:102D100023F000BF2D2D0000632D00009F2D00002B
:102D2000FD2D0000FD2D0000DB2D0000384BDB6A7F
:102D300003F47053B3F5805F09D0B3F5005F03D09F
:102D4000B3F5006F06D008E00223FB7308E003230D
:102D5000FB7305E00423FB7302E00523FB7300BF54
:102D60004FE02B4B9B6A03F00303022B06D0032B8F
:102D700007D0012B08D10323FB730FE00223FB7361
:102D80000CE00623FB7309E0214B9B6A03F48033BC
:102D9000002B02D00923FB7300E000BF31E01C4B85
:102DA0009B6A03F00C03082B06D00C2B07D0042BD6
:102DB00008D10323FB730FE00223FB730CE006230F
:102DC000FB7309E0124B9B6A03F48013002B02D0C3
:102DD0000923FB7300E000BF13E00D4B1B6803F0F9
:102DE0008053002B03D0B3F1805F03D009E00723A9
:102DF000FB7302E00823FB7300BF02E00023FB73B8
:102E000000BFFB7B18461437BD465DF8047B704756
:102E100000800C4090B589B000AF78600B46FB7025
:102E20000323FB610323FB7600233B617B6803F0F4
:102E30000F03FB60FB68013B052B00F2FE8001A243
:102E400052F823F05D2E0000492F0000492F0000AA
:102E50003B3000003B30000011300000FB78023BAB
:102E6000072B00F2EE8001A252F823F08D2E000015
:102E7000972E0000A12E0000EB2E00004330000032
:102E80004330000043300000433000000423FB6166
:102E90000023FB7639E00323FB610123FB7634E05A
:102EA0000223FB610223FB76FFF736FB03465C1C23
:102EB000FFF732FB034620461946FFF769FBFDF793
:102EC0003FFA0246624B9A4206D9624A614B1B683E
:102ED00043F06003136018E05E4A5E4B1B6823F00A
:102EE000600343F0200313600FE00123FB61032321
:102EF000FB76FFF711FB03465C1CFFF70DFB034657
:102F000020461946FFF744FB00BFFB7E184601210F
:102F1000012200F0A5F8FFF743FC4E4AFB6953621B
:102F20004D48FFF735FE0446FFF7F6FA0346204604
:102F30001946FFF72DFB00F0BBFAFDF75DF9B8600D
:102F4000B868FFF7D1FB79E0FB78013B082B7AD812
:102F500001A252F823F000BF7D2F0000832F000054
:102F6000932F00004730000047300000A32F0000DF
:102F70004730000047300000C72F000000237B616E
:102F800026E000200121012200F06AF802237B6183
:102F90001EE001200121012200F062F801237B6183
:102FA00016E0FDF729F9B860FFF7B6FA0346B868EE
:102FB0001946FFF7EDFA294804210122FFF748FAE4
:102FC00003237B6104E000237B6101233B6100BF9D
:102FD000FB68022B0DD11F491E4B9B6A23F48033E3
:102FE00023F003037A691A433B691B0413438B6282
:102FF00024E01849174B9B6A23F4801323F00C0339
:103000007A6992001A433B691B0513438B6215E0F2
:10301000FB78072B02D0082B07D015E00D4A0D4B8B
:103020001B6823F08053136006E00A4A094B1B68B3
:1030300043F08053136000BF00E000BFFFF7C6FA03
:1030400002E000BF00E000BF2437BD4690BD00BFD6
:103050000048E80100800C400043020040800C4022
:1030600080B586B000AF0346FB710B46BB711346BB
:103070007B71FB79042B4AD801A252F823F000BFE0
:10308000CD300000BF300000A330000095300000BC
:10309000B130000001233B610223FB6001237B610F
:1030A0001DE004233B610823FB6003237B6116E0E2
:1030B00010233B612023FB6005237B610FE040234D
:1030C0003B618023FB6007237B6108E04FF4807342
:1030D0003B614FF40073FB6009237B6100BFBB7948
:1030E000002B0ED00C4A3B6913627B79002B0BD06E
:1030F00000BF0A487969FFF7C1F90346002BF8D0F1
:1031000002E0054AFB68136200F0D2F900E000BF5C
:103110001837BD4680BD00BF00800C402C800C409D
:1031200080B483B000AFEFF310833B603B687B60FB
:1031300072B67B6818460C37BD465DF8047B704755
:1031400080B483B000AF78607B68002B00D162B69A
:103150000C37BD465DF8047B704700BF80B500AFFB
:10316000FDF74AF880BD00BF80B400AF034B4AF6BC
:10317000E8529A60BD465DF8047B704700600C40E1
:1031800080B400AF034B0022C3F88420BD465DF835
:10319000047B704700800C4080B400AF044B45F6C0
:1031A0000E02C3F88420BD465DF8047B704700BF63
:1031B00000800C4080B582B000AF384BD3F884302B
:1031C00003F001037B60FFF7E7FF00233B60344B14
:1031D0001B6803F001033A6813433B60304B1B68E4
:1031E00003F010033A6813433B602D4B1B6803F058
:1031F00040033A6813433B60294B1B6803F0040308
:103200003A6813433B60264B1B6803F480733A68AB
:1032100013433B60214A3B681362214B1B6803F454
:103220007053B3F5805F06D0B3F5005F0ED0B3F5F1
:10323000006F16D020E000BF184BDB6A03F080035C
:10324000002BF9D0154B03225A6215E000BF134B37
:10325000DB6A03F40073002BF9D0104B04225A628E
:103260000AE000BF0D4BDB6A03F00803002BF9D026
:103270000A4B02225A6200BF094B1B6803F001038C
:10328000002B02D1054B02221A627B68002B01D071
:10329000FFF776FF0837BD4680BD00BF00800C40B9
:1032A000F024002080B483B000AF164B1B699BB2A2
:1032B00003F03F039BB21B02FB80124B9B6903F0A0
:1032C000F0039AB2FB881343FB800E4BDB6903F0DB
:1032D000F0031B099AB2FB881343FB80FB88B3F50C
:1032E000827F03D3FB88B3F5017F01D1012300E086
:1032F000002303F00103DBB218460C37BD465DF82E
:10330000047B7047D0FF0FE080B586B000AF034666
:10331000FB711F4BDB6A1F4A13601F4A1E4B1B6960
:1033200043F004031361FFF7BDFF0346FB75FB7D0C
:10333000002B11D0194B1A68194B1340FB60174A28
:10334000FB68C2F88030154B5B6823F046033B6195
:10335000124A3B69C2F8843030BFFB7D002B05D098
:103360000E4AFB6813600D4A3B695360FB79002BE2
:1033700002D0FFF71FFF07E0064B1B6803F48063D2
:10338000002B01D1FFF7EAFE1837BD4680BD00BF14
:1033900000800C40F024002000ED00E000E100E09F
:1033A0009CF1FD0080B586B000AF0346FB71274B52
:1033B000DB6A274A1360254BD3F8843003F00103FE
:1033C0007B61FFF7E9FE214B4FF420721A627B69A3
:1033D000002B01D0FFF7D4FE1E4A1E4B1B6943F0A1
:1033E00004031361FFF75EFF0346FB74FB7C002BB5
:1033F00011D0194B1A68194B1340BB60164ABB68B1
:10340000C2F88030144B5B6823F04603FB60124A1D
:10341000FB68C2F8843030BFFB7C002B05D00E4A1D
:10342000BB6813600C4AFB685360FB79002B02D029
:10343000FFF7C0FE07E0064B1B6803F48063002B18
:1034400001D1FFF78BFE1837BD4680BD00800C40D0
:10345000F024002000ED00E000E100E09CF1FD0020
:1034600080B584B000AF114B1B6823F00C0343F010
:103470000803BB600D4B1B6843F00C037B60FFF738
:1034800073FE0023FB6008E0084ABB681360074A2C
:103490007B681360FB680133FB60FB68032BF3DD83
:1034A000024ABB6813601037BD4680BD00600C4007
:1034B00080B400AF034BDB6A034A1360BD465DF87E
:1034C000047B704700800C40F024002080B487B05B
:1034D00000AFF860B9607A60FB6803F10473DA004A
:1034E000BB6813449B007B617B697A681A601C3758
:1034F000BD465DF8047B704780B400AF034B0022EB
:103500009A60BD465DF8047B704700BF00600C40C8
:1035100080B400AF034B4AF6E8529A60BD465DF8AE
:10352000047B704700600C4080B582B000AF0F4B49
:1035300001229A600E4B9B6803F001037B607B685D
:10354000002B01D0FFF7E4FF0A4800210122FFF71A
:10355000BDFF084800210022FFF7B8FF7B68002B61
:1035600001D0FFF7C9FF0837BD4680BD00A00C4061
:1035700000600C4024600C4080B485B000AF174B55
:103580005B687B600023FB600023BB601CE0144A87
:10359000BB68DB0013445B683B60114ABB6852F8B0
:1035A00033207B681340002B0BD07A683B681340B4
:1035B000002B06D10A4ABB6852F83330FA6813432D
:1035C000FB60BB680133BB60BB680F2BDFD9FB68B6
:1035D00018461437BD465DF8047B704700A00C40C8
:1035E000F83F000080B487B000AFF860B9607A603F
:1035F000FB6803F10473DA00BB6813449B007B6132
:103600007B697A681A601C37BD465DF8047B704799
:1036100080B485B000AF78607B68002B02D0012BAE
:1036200004D007E0084B9B68FB6006E0064BDB68B4
:10363000FB6002E00023FB6000BFFB681846143704
:10364000BD465DF8047B70470000084080B485B03B
:1036500000AF786039607B68012B05D83B6803F0C8
:103660007F43002B00D100BF7B68002B02D0012BD1
:1036700003D008E0064BFB6002E0064BFB6000BF96
:10368000FB683A681A601437BD465DF8047B7047E2
:10369000080008400C00084080B582B000AF034627
:1036A000FB71FB79034800211A46FFF79BFF08379F
:1036B000BD4680BD0000084080B485B000AF786092
:1036C0007B681B78002B02D00123FB6001E0002304
:1036D000FB607B685B78002B03D0FB6843F0020340
:1036E000FB607B689B78002B03D0FB6843F00403EE
:1036F000FB60044AFB6813601437BD465DF8047B29
:10370000704700BF0000084080B485B000AF78600B
:10371000194B5B69DBB203F00F03DBB29B00FB7359
:10372000154B1B6903F0C0039B09DAB2FB7B134303
:10373000FB737B68FA7B9A700F4B1B69DBB203F05B
:103740003F03DAB27B685A700B4B9B69DBB223F004
:103750000F03FB73084BDB6903F0F0031B09DAB2BC
:10376000FB7B1343FB737B68FA7B1A701437BD46EF
:103770005DF8047B704700BFD0FF0FE080B586B0D6
:1037800000AFF860B9607A60FB70BB68002B03D1B2
:103790002448FFF7FDF9B860FB78202B0CD0202BD4
:1037A00002DC002B05D03AE0402B08D0602B09D07A
:1037B00035E010237B6108E008237B6105E00623E8
:1037C0007B6102E004237B6100BFBB689A007B69D8
:1037D000796801FB03F35B0813443B617B697A68FA
:1037E00002FB03F33A69B2FBF3F33B613B69043B31
:1037F0003B613B699B013B613A690B4B13403B6169
:10380000FB681B6823F06002FB681A60FB681A689B
:10381000FB781A43FB681A60FB683A695A611837EB
:10382000BD4680BD40810400C0FF1F0080B582B04E
:1038300000AF786039607B68244A93420FD07B6880
:10384000234A93420BD07B68224A934207D07B687D
:10385000214A934203D07B68204A934200D100BFA3
:10386000786800F06DF83B689B7C002B05D07B6886
:103870001B6843F080427B681A603B68DB7C002B4E
:1038800007D03B681B7D43F01003DBB21A467B6810
:103890009A653B685B7B1A463B681B8A13433A6810
:1038A000D2891A437B685A603B6859683B689A68BA
:1038B0003B681B7B7868FFF761FF3B681B781A4603
:1038C0007B68DA600837BD4680BD00BF00C000409D
:1038D00000C4004000C8004000E0004000E4004098
:1038E00080B485B000AF786039607B689B6823F056
:1038F0007703FB603B681B78002B03D0FB6843F029
:103900004003FB603B689B78002B03D0FB6843F0CF
:103910002003FB603B685B78002B03D0FB6843F01F
:103920001003FB603B68DB781A46FB681343FB60BF
:103930007B68FA689A601437BD465DF8047B70476F
:1039400080B483B000AF78607B68244A93420FD084
:103950007B68234A93420BD07B68224A934207D06C
:103960007B68214A934203D07B68204A934200D16E
:1039700000BF7B6840F6AA62DA607B6800221A60AA
:103980007B6841F205025A607B6800229A607B687E
:1039900000225A617B680022DA647B6841F6F97282
:1039A0009A647B6800225A657B680C4A934202D174
:1039B0007B6800221A657B6800229A657B68084A4A
:1039C000934203D07B68074A934202D17B6800226E
:1039D000DA650C37BD465DF8047B704700C00040D7
:1039E00000C4004000C8004000E0004000E4004087
:1039F00080B483B000AF78600B46FB7000BF7B687B
:103A00001B6903F04003002BF9D0FA787B685A63F6
:103A10000C37BD465DF8047B704700BF80B500AF32
:103A200000F006F800F01EF800F05CF880BD00BF62
:103A300080B500AF11200521FFF7ECF90648012100
:103A4000FFF73AF805480121FFF736F8044801214D
:103A5000FFF732F880BD00BF40810400004204003F
:103A600000D20400B0B588B000AF1C4B07F10804C9
:103A70001D460FCD0FC495E8030084E803004FF402
:103A8000E1333B6105237B750023FB824FF48053B8
:103A90003B8300233B750023BB760023FB7600238A
:103AA0003B7707F108030E481946FFF7BFFE0023D6
:103AB0003B7100237B710023BB710023FB7100234A
:103AC0007B710023BB710023FB713B1D0448194629
:103AD000FFF706FF2037BD46B0BD00BF78400000AD
:103AE00000E4004080B400AF1D4A1D4B1B6D23F461
:103AF000702343F480231365194A194B9B6F43F0DD
:103B000010039367164A164B1B6F23F4702343F47C
:103B100080231367124A124BD3F8943023F4706356
:103B200043F48063C2F894300D4A0D4BD3F89430BF
:103B300023F4704343F48053C2F89430094A094B8C
:103B40005B6D23F4E06343F440735365054A054B12
:103B50005B6D43F003035365BD465DF8047B70471E
:103B60000060004000E4004080B483B000AF034632
:103B7000FB71084997F907305B09FA7902F01F02D7
:103B8000012000FA02F241F823200C37BD465DF80F
:103B9000047B704700E100E080B483B000AF0346CF
:103BA000FB71094997F907305B09FA7902F01F02A6
:103BB000012000FA02F2603341F823200C37BD46A1
:103BC0005DF8047B704700BF00E100E080B483B083
:103BD00000AF03463960FB7197F90730002B0BDA11
:103BE0000D49FB7903F00F03043B3A68D2B252014E
:103BF000D2B20B441A7609E0084997F907303A68BF
:103C0000D2B25201D2B20B4483F800230C37BD4626
:103C10005DF8047B704700BF00ED00E000E100E0CC
:103C200080B483B000AF7860034A7B6893610C373F
:103C3000BD465DF8047B70470000084080B483B047
:103C400000AF78600549054BDA697B68DB431340B8
:103C5000CB610C37BD465DF8047B7047000008401F
:103C600080B483B000AF78600549054BDA697B68A2
:103C70001343CB610C37BD465DF8047B704700BF32
:103C80000000084080B500AFFCF7E8FB80BD00BF36
:103C900080B584B000AF0020FFF7BAFC0246802355
:103CA0009A420AD00020FFF7F7FC80230020194633
:103CB000FFF7CCFC0120FFF7EFFC0720FFF7B0FF78
:103CC000EFF311824FF0BF0383F31188BFF36F8FBF
:103CD000BFF34F8FBA607B60FDF71EFDF860FB6895
:103CE000002B07D0074B4FF080521A60BFF34F8F65
:103CF000BFF36F8F00233B603B6883F3118810375D
:103D0000BD4680BD04ED00E080B582B000AF1C4828
:103D10000121FEF7D1FE1B480221FFF77BF81A486C
:103D20000221FEF7D7FD18480121FEF7C5FE00234A
:103D30003B7100237B710123BB713B1D1846FFF7CC
:103D4000BBFC0220FFF77AFF1E20FF21FFF73EFF9A
:103D50001E20FFF721FF1E20FFF706FF8023002013
:103D60001946FFF773FC0220FFF75AFF0220FFF706
:103D700077FF0120FFF790FC0837BD4680BD00BFEC
:103D80000043020002001A006016100090B484B0D4
:103D900000AF0346B9607A60FB73FB7B002B0DD04C
:103DA000FB7B012B0AD0FB7B022B07D0FB7B032B79
:103DB00004D0FB7B042B01D0FB7B052B0E4CFA7B44
:103DC0000D48F97B0B46DB000B449B000344083392
:103DD00059687B68DB431940B8687B680340194326
:103DE0001346DB0013449B0023440833596010370B
:103DF000BD4690BC704700BF0060004080B582B0F7
:103E000000AF0C4B1B687B603B461846FFF77CFC01
:103E10007B681B0E0F2B0AD93B78032B07D1064A70
:103E2000054B1B6823F0500343F010031360083761
:103E3000BD4680BDFC81E00FC0800C4080B584B0E1
:103E400000AF78607B68FB606123FB7202204FF457
:103E500080514FF48052FFF799FF0C20FDF74AFB89
:103E6000022000214FF48052FFF790FF034800F03A
:103E700007F88020FDF73EFBE8E700BF9040000018
:103E800080B584B000AF78600023FB600023FB6046
:103E90000AE0FB687A6813441B780E481946FFF75E
:103EA000A7FDFB680133FB60FB687A6813441B784D
:103EB000002BEED107480A21FFF79AFD05480D2196
:103EC000FFF796FD03480021FFF792FD1037BD462E
:103ED00080BD00BF00E4004080B582B002AFFFF7B4
:103EE0008DFF00200021FCF78DFA0320FCF7D6FAA5
:103EF000FFF794FD0948FFF7C3FF01230093002358
:103F0000019307480749F0220023FDF7D7F9FDF791
:103F100017FB00231846BD4680BD00BF9840000037
:103F20003D3E0000A040000008B5074B044613B119
:103F30000021AFF30080054B1868836A03B19847EE
:103F4000204600F03FF800BF00000000AC40000039
:103F50000E4B70B51E460E4C0025E41AA410A54267
:103F600004D056F8253098470135F8E700F02CF8D2
:103F7000084B094C1E46E41AA4100025A54204D0A3
:103F800056F8253098470135F8E770BD6C000020E1
:103F90006C0000206C0000207000002010B5431E53
:103FA0000A44914204D011F8014B03F8014FF8E79D
:103FB00010BD03460244934202D003F8011BFAE706
:103FC00070470000FEE700BFF8B500BFF8BC08BCB2
:103FD0009E467047F8B500BFF8BC08BC9E467047C7
:103FE00049444C4500000000546D72205376630034
:103FF000546D72510000000001000000000000003C
:104000000200000081000000040000009100000098
:104010000800000001000000100000000300000084
:1040200020000000DFEF0000400000009FEF0000D4
:1040300080000000190700000001000019060000C0
:10404000000200001F040000000400001F02000026
:104050000008000001000000001000000100000046
:1040600000200000010000000040000001000000EE
:1040700000800000010000000500000000000000BA
:1040800000C2010000050000001000000000000058
:1040900048454C4C4F21000048454C4C4F00000017
:1040A0004C6564426C696E6B310043000C0000206B
:0440B000000000000C
:0840B40084C0FF7F0100000041
:1040BC00006CDC0200800000AAAAAAAA0000000082
:1040CC0000000000000000000000000000000000E4
:1040DC00000000000000000000000000AA400000EA
:1040EC0000000000000000000000000000000000C4
:1040FC0000000000000000000000000000000000B4
:10410C0000000000000000000000000000000000A3
:10411C000000000000000000000000000101000091
:08412C00DD00000000000000AE
:04000003000001AD4B
:00000001FF
