S01C000053544B5858585F6672656572746F735F626C696E6B2E733337A6
S1130000004000208D010000B9010000B90100008A
S1130010B9010000B9010000B9010000B9010000F4
S1130020B9010000B9010000B9010000D1070000C6
S1130030B9010000B901000071090000B509000010
S1130040B9010000B9010000B9010000B9010000C4
S1130050B9010000B9010000B9010000B9010000B4
S1130060B9010000B9010000B9010000B9010000A4
S1130070B9010000B9010000B9010000B901000094
S1130080B9010000B9010000B9010000B901000084
S1130090B9010000B9010000B9010000B901000074
S11300A0B5330000B9010000B9010000B901000036
S11300B0B9010000B9010000B901000010B5054CF8
S11300C0237833B9044B13B10448AFF30080012300
S11300D0237010BD8800002000000000C03B000019
S11300E0084B10B51BB108480849AFF30080084815
S11300F0036803B910BD074B002BFBD0BDE81040CB
S1130100184700BF00000000C03B00008C00002026
S11301108400002000000000154B002B08BF134B87
S11301209D46A3F5803A00218B460F461348144A96
S1130130121A03F002FB0F4B002B00D098470E4B12
S1130140002B00D098470020002104000D000D482A
S1130150002802D00C48AFF3008003F0BDFA200061
S1130160290003F075FA03F0A3FA00BF00000800A9
S11301700040002000000000000000008800002073
S113018058250020000000000000000006488047B9
S11301900649074A074B9A42BEBF51F8040B42F87E
S11301A0040BF8E7FFF7B8FF11030000CC3B000095
S11301B00000002088000020FEE700BF80B400AFEC
S11301C0044BDB6C1B0EDBB21846BD465DF8047BAA
S11301D0704700BFB081E00F80B582B000AF00F07F
S11301E01FF87860074B5B6803F00F031A467B68BF
S11301F0D3407B60044A7B6813607B6818460837E9
S1130200BD4680BD00800C400425002080B400AFB2
S1130210024B1846BD465DF8047B70470048E80170
S113022080B582B000AF2F4BDB6A03F47053B3F593
S1130230805F0AD0B3F5005F03D0B3F5006F08D038
S11302400BE0294B1B687B6047E04FF400437B6065
S113025043E0264B1B687B603FE0224BDB6803F4E2
S1130260E063B3F5007F1BD0B3F5007F05D8002B06
S113027024D0B3F5807F16D02BE0B3F5806F09D07E
S1130280B3F5A06F03D0B3F5407F06D021E0184B3F
S11302907B6021E0174B7B601EE0174B7B601BE00B
S11302A0164B7B6018E0FFF789FF0346122B02D937
S11302B0134B7B6010E0134B7B600DE0FFF77EFF78
S11302C00346122B02D9104B7B6005E00F4B7B6079
S11302D002E000237B6000BF00BF7B68184608373C
S11302E0BD4680BD00800C400400002000000020BA
S11302F0003FAB01406F4001809FD500C0D8A700EC
S113030040B56400C0CF6A00804F120040420F0025
S113031080B400AFBD465DF8047B704780B487B0FD
S113032000AFF860B9607A60FB6803F10473DA0027
S1130330BB6813449B007B617B697A681A601C3735
S1130340BD465DF8047B704780B400AF054A054B99
S11303501B6923F00403136130BFBD465DF8047BC1
S1130360704700BF00ED00E080B500AF02480121F6
S11303700122FFF7D3FF80BD00600C4080B483B03E
S113038000AF78603960084A7B681360074A3B68AD
S11303901360074B00221A70054B00225A700C3769
S11303A0BD465DF8047B7047A4000020A80000202F
S11303B0AC00002080B582B000AF02F0ABFC386026
S11303C000F04CF80346FB71FB79002B07D0FB7956
S11303D0032B04D8FB79184600F060F801E00023F1
S11303E0FB71386802F0A6FCFB7918460837BD4655
S11303F080BD00BF80B582B000AF0346FB71FB79BE
S1130400012B02D9FB79032B03D91248FC2102F0FA
S113041035F9FB79023B104AD35CFF2B03D10D481D
S1130420FD2102F02BF9FB79022B02D0FB79032B7F
S11304300CD1FB79023B084AD25C0132D1B2064AA4
S1130440D154FB79022B01D1FFF78EFF0837BD464B
S113045080BD00BF68370000AC00002080B483B0CA
S113046000AF0123FB710C4B1B78002B07D1022337
S1130470FB71094B5B78002B01D10323FB71FB79E2
S1130480032B01D90323FB71FB7918460C37BD46B6
S11304905DF8047B704700BFAC00002080B582B0DB
S11304A000AF0346FB71FB79002B02D0FB79042BD0
S11304B004D91C4840F2771102F0E0F81A4B1B688B
S11304C0002B04D0184B1B68FA7910469847FB7927
S11304D0013B032B18D801A252F823F0ED040000CD
S11304E0F3040000FB04000003050000FFF72CFFE9
S11304F00BE0012002F0FCFC07E0012002F03AFDD1
S113050003E002F089FD00E000BF084B1B68002BEC
S113051004D0064B1B68FA79104698470837BD4645
S113052080BD00BF68370000A4000020A8000020A0
S113053080B584B000AF78600023FB607B6803F073
S11305400703002B04D07B6823F0070308337B6088
S113055001F0A4F8164B1B68002B05D1154B23F0B2
S113056007031A46124B1A60134B1A687B6813442C
S113057042F21F32934213D80F4B1A687B681A4415
S11305800D4B1B689A420BD9094B1A680A4B1B681E
S11305901344FB60084B1A687B681344064A1360D3
S11305A001F08AF8FB6818461037BD4680BD00BFCD
S11305B0DC230020B8000020D823002080B582B0BE
S11305C000AF78607B68002B03D00348AB2102F0B6
S11305D055F80837BD4680BDCC37000080B483B0E1
S11305E000AF78607B6803F108027B685A607B681F
S11305F04FF0FF329A607B6803F108027B68DA608F
S11306007B6803F108027B681A617B6800221A6028
S11306100C37BD465DF8047B704700BF80B483B0DF
S113062000AF78607B6800221A610C37BD465DF824
S1130630047B704780B485B000AF786039607B6814
S11306405B68FB603B68FA685A60FB689A683B68C1
S11306509A60FB689B683A685A60FB683A689A60DB
S11306603B687A681A617B681B685A1C7B681A604D
S11306701437BD465DF8047B704700BF80B485B075
S113068000AF786039603B681B68BB60BB68B3F13E
S1130690FF3F03D17B681B69FB600CE07B68083378
S11306A0FB6002E0FB685B68FB60FB685B681A68E0
S11306B0BB689A42F6D9FB685A683B685A603B6843
S11306C05B683A689A603B68FA689A60FB683A68C3
S11306D05A603B687A681A617B681B685A1C7B689D
S11306E01A601437BD465DF8047B704780B485B04A
S11306F000AF78607B681B69FB607B685B687A6825
S113070092689A607B689B687A6852685A60FB6852
S11307105A687B689A4203D17B689A68FB685A607E
S11307207B6800221A61FB681B685A1EFB681A600A
S1130730FB681B6818461437BD465DF8047B704798
S113074080B485B000AFF860B9607A60FB68043BA0
S1130750FB60FB684FF080721A60FB68043BFB602F
S1130760BB6823F00102FB681A60FB68043BFB6072
S1130770094AFB681A60FB68143BFB607A68FB68F3
S11307801A60FB68203BFB60FB6818461437BD46C3
S11307905DF8047B704700BF9D07000080B582B000
S11307A000AF094B1B68B3F1FF3F03D00748F221A8
S11307B001F064FF4FF0BF0383F31188BFF36F8F21
S11307C0BFF34F8F7B60FEE708000020483800002D
S11307D0074B19680868B0E8F00F80F30988BFF385
S11307E06F8F4FF0000080F311884EF00D0E7047AC
S11307F0E823002006480068006880F3088862B691
S113080061B6BFF34F8FBFF36F8F00DF00BF0000EF
S113081008ED00E080B584B000AF284BFB60FB68B6
S11308201B78DBB2BB60FB68FF221A70FB681B7885
S1130830DBB2FB71FB79DBB223F04003DAB2204B6D
S11308401A70204B07221A6009E01E4B1B68013BFB
S11308501C4A1360FB79DBB25B00DBB2FB71FB79F2
S1130860DBB2DBB25BB2002BEFDB164B1B681B0267
S1130870144A1360134B1B6803F4E063114A1360BA
S1130880BB68DAB2FB681A700F4A0F4B1B6843F45B
S11308907F0313600C4A0C4B1B6843F07F431360C7
S11308A002F0C4FD094B00221A60FFF7A3FFFFF713
S11308B075FF002318461037BD4680BD00E400E0F4
S11308C0E0230020E423002020ED00E008000020C5
S11308D080B582B000AF4FF0BF0383F31188BFF33C
S11308E06F8FBFF34F8F7B600A4B1B680133094A3C
S11308F01360084B1B68012B09D1074B1B68DBB243
S1130900002B04D0054840F27F1101F0B7FE0837F0
S1130910BD4680BD0800002004ED00E0483800001A
S113092080B582B000AF0D4B1B68002B04D10C487E
S11309304FF4C37101F0A2FE084B1B68013B074A48
S11309401360064B1B68002B04D100237B607B687B
S113095083F311880837BD4680BD00BF080000201E
S11309604838000000000000000000000000000003
S1130970EFF30980BFF36F8F0D4B1A6820E9F00F76
S113098010602DE908404FF0BF0080F3118800F09B
S1130990F9FF4FF0000080F31188BDE808401968A2
S11309A00868B0E8F00F80F30988BFF36F8F7047D1
S11309B0E823002080B582B000AF4FF0BF0383F37B
S11309C01188BFF36F8FBFF34F8F7B6000F01EFF62
S11309D00346002B03D0064B4FF080521A600023CD
S11309E03B603B6883F311880837BD4680BD00BF78
S11309F004ED00E080B582B000AFEFF305837B60C7
S1130A007B680F2B0ED90F4A7B6813441B78FB704D
S1130A100D4B1B78FA789A4204D20C4840F29E217E
S1130A2001F02CFE0A4B1B6803F4E062094B1B68BF
S1130A309A4204D9054840F2AE2101F01FFE08375E
S1130A40BD4680BDF0E300E0E0230020483800000C
S1130A500CED00E0E423002080B584B000AF7860A2
S1130A6039607B68FB60FB68002B04D12A4840F2A4
S1130A701B1101F003FEFFF72BFFFB681A68FB68EC
S1130A80DB6BF968096C01FB03F31A44FB685A60D9
S1130A90FB6800229A63FB681A68FB689A60FB682B
S1130AA01A68FB68DB6B013BF968096C01FB03F313
S1130AB01A44FB68DA60FB68FF2283F84420FB6871
S1130AC0FF2283F845203B68002B14D1FB681B6987
S1130AD0002B1AD0FB681033184600F0EDFF0346D4
S1130AE0002B12D00D4B4FF080521A60BFF34F8F82
S1130AF0BFF36F8F09E0FB6810331846FFF76EFDF4
S1130B00FB6824331846FFF769FDFFF709FF01234B
S1130B1018461037BD4680BDC838000004ED00E01B
S1130B2090B58BB002AFF860B9601346FB71FB68F7
S1130B30002B04D114484FF4C47101F09FFDBB682D
S1130B40002B02D10023FB6104E0FB68BA6802FBBE
S1130B5003F3FB61FB6948331846FFF7E9FCB8610E
S1130B60BB69002B0BD0BB6948337B61FC79BB6943
S1130B700093F868B9687A69234600F007F8BB69FE
S1130B8018462437BD4690BDC838000080B584B0EF
S1130B9000AFF860B9607A60FB70BB68002B03D1CA
S1130BA0BB69BA691A6002E0BB697A681A60BB69FA
S1130BB0FA68DA63BB69BA681A64B8690121FFF795
S1130BC04BFF1037BD4680BD80B58AB000AFF860DA
S1130BD0B9607A603B6000237B62FB683B623B6ADE
S1130BE0002B04D1654840F2D92101F047FDBB68D0
S1130BF0002B08D13B6A1B6C002B04D05F4840F2E9
S1130C00DA2101F03BFD3B68022B08D13B6ADB6B28
S1130C10012B04D0594840F2DB2101F02FFD01F0F3
S1130C20E1F80346002B07D17B68002B04D053481E
S1130C3040F2DE2101F022FDFFF74AFE3B6A9A6B87
S1130C403B6ADB6B9A4202D33B68022B29D1386A98
S1130C50B9683A6800F012FAF8613B6A5B6A002BE3
S1130C6010D03B6A2433184600F026FF0346002BBD
S1130C7013D0434B4FF080521A60BFF34F8FBFF332
S1130C806F8F0AE0FB69002B07D03D4B4FF0805279
S1130C901A60BFF34F8FBFF36F8FFFF741FE01233D
S1130CA067E07B68002B03D1FFF73AFE002360E086
S1130CB07B6A002B06D107F11403184600F05CFF91
S1130CC001237B62FFF72CFE00F0E8FCFFF700FE37
S1130CD03B6A93F84430DBB25BB2B3F1FF3F03D11C
S1130CE03B6A002283F844203B6A93F84530DBB228
S1130CF05BB2B3F1FF3F03D13B6A002283F8452086
S1130D00FFF70EFE07F114023B1D1046194600F0D2
S1130D1051FF0346002B24D1386A00F0A9FA034698
S1130D20002B18D03B6A03F110027B681046194669
S1130D3000F07CFE386A00F033FA00F0BDFC034694
S1130D40002B15D10E4B4FF080521A60BFF34F8F1A
S1130D50BFF36F8F0CE0386A00F022FA00F0ACFCAD
S1130D606AE7386A00F01CFA00F0A6FC002300E0F1
S1130D7062E718462837BD4680BD00BFC83800006A
S1130D8004ED00E080B58CB000AFF860B9607A6023
S1130D903B60FB68BB62BB6A002B04D1374840F25E
S1130DA09F3101F06BFCBB68002B08D1BB6A1B6C44
S1130DB0002B04D031484FF4687101F05FFC3B68AC
S1130DC0022B08D1BB6ADB6B012B04D02B4840F209
S1130DD0A13101F053FCFFF70DFEEFF311824FF048
S1130DE0BF0383F31188BFF36F8FBFF34F8FFA6193
S1130DF0BB61FB697B62BB6A9A6BBB6ADB6B9A4221
S1130E0002D33B68022B2CD1BB6A93F8453087F898
S1130E102330B86AB9683A6800F030F997F923309A
S1130E20B3F1FF3F12D1BB6A5B6A002B16D0BB6AD9
S1130E302433184600F040FE0346002B0ED07B6896
S1130E40002B0BD07B6801221A6007E097F823304F
S1130E500133DBB2DAB2BB6A83F845200123FB62BB
S1130E6001E00023FB627B6A7B617B6983F3118869
S1130E70FB6A18463037BD4680BD00BFC838000045
S1130E8080B58AB000AFF860B9607A603B60002337
S1130E907B62FB683B623B6A002B04D1754840F2DD
S1130EA0DC4101F0EBFBBB68002B08D13B6A1B6CF7
S1130EB0002B04D06F4840F2DD4101F0DFFB00F06D
S1130EC091FF0346002B07D17B68002B04D06948AF
S1130ED04FF49C6101F0D2FBFFF7FAFC3B6A9B6B79
S1130EE0FB61FB69002B46D03B6ADB68BB61386A57
S1130EF0B96800F02FF93B68002B21D1FB695A1E19
S1130F003B6A9A633B6A1B68002B04D101F07EF8AC
S1130F1002463B6A5A603B6A1B69002B27D03B6A36
S1130F201033184600F0C8FD0346002B1FD0524B67
S1130F304FF080521A60BFF34F8FBFF36F8F16E0EC
S1130F403B6ABA69DA603B6A5B6A002B0FD03B6A82
S1130F502433184600F0B0FD0346002B07D0464B5F
S1130F604FF080521A60BFF34F8FBFF36F8FFFF7BC
S1130F70D7FC01237AE07B68002B03D1FFF7D0FC78
S1130F80002373E07B6A002B06D107F11003184697
S1130F9000F0F2FD01237B62FFF7C2FC00F07EFB50
S1130FA0FFF796FC3B6A93F84430DBB25BB2B3F1D3
S1130FB0FF3F03D13B6A002283F844203B6A93F845
S1130FC04530DBB25BB2B3F1FF3F03D13B6A002291
S1130FD083F84520FFF7A4FC07F110023B1D1046DF
S1130FE0194600F0E7FD0346002B31D1386A00F0C2
S1130FF029F90346002B25D03B6A1B68002B08D136
S1131000FFF766FC3B6A5B68184600F009FFFFF7D0
S113101087FC3B6A03F124027B681046194600F002
S113102005FD386A00F0BCF800F046FB0346002BCF
S11310301BD1114B4FF080521A60BFF34F8FBFF397
S11310406F8F12E0386A00F0ABF800F035FB43E72D
S1131050386A00F0A5F800F02FFB386A00F0F2F8C7
S11310600346002B01D0002300E035E7184628375B
S1131070BD4680BDC838000004ED00E080B586B0F0
S113108000AFF860B9607A6000237B61FB689B6BFA
S11310903B61FB681B6C002B0DD1FB681B68002BAC
S11310A04FD1FB685B68184600F032FF7861FB683B
S11310B000225A6045E07B68002B1AD1FB689A68CD
S11310C0FB681B6C1046B9681A4602F02BFBFB68E0
S11310D09A68FB681B6C1A44FB689A60FB689A6800
S11310E0FB685B689A422CD3FB681A68FB689A60B9
S11310F027E0FB68DA68FB681B6C1046B9681A467F
S113110002F010FBFB68DA68FB681B6C5B421A4454
S1131110FB68DA60FB68DA68FB681B689A4207D2EE
S1131120FB685A68FB681B6C5B421A44FB68DA6014
S11311307B68022B05D13B69002B02D03B69013B44
S11311403B613B695A1CFB689A637B6918461837F4
S1131150BD4680BD80B582B000AF786039607B68E1
S11311601B6C002B19D07B68DA687B681B6C1A44F3
S11311707B68DA607B68DA687B685B689A4203D3D1
S11311807B681A687B68DA607B68DA687B681B6C4A
S1131190386811461A4602F0C5FA0837BD4680BDC4
S11311A080B584B000AF7860FFF792FB7B6893F85A
S11311B04530FB7313E07B685B6A002B0AD07B68C5
S11311C02433184600F078FC0346002B03D000F0CB
S11311D047FD00E007E0FB7B013BDBB2FB7397F9C3
S11311E00F30002BE7DC7B68FF2283F84520FFF7F4
S11311F097FBFFF76DFB7B6893F84430BB7313E0F8
S11312007B681B69002B0ED07B681033184600F0F6
S113121053FC0346002B01D000F022FDBB7B013BB5
S1131220DBB2BB7300E003E097F90E30002BE7DC80
S11312307B68FF2283F84420FFF772FB1037BD461A
S113124080BD00BF80B584B000AF7860FFF740FB7D
S11312507B689B6B002B02D10123FB6001E0002320
S1131260FB60FFF75DFBFB6818461037BD4680BD89
S113127080B584B000AF7860FFF72AFB7B689A6B77
S11312807B68DB6B9A4202D10123FB6001E00023FF
S1131290FB60FFF745FBFB6818461037BD4680BD71
S11312A080B485B000AF786039600023FB6014E03F
S11312B00E4AFB6852F83330002B0BD10B49FB6804
S11312C03A6841F83320094AFB68DB0013447A6822
S11312D05A6005E0FB680133FB60FB68092BE7D922
S11312E01437BD465DF8047B704700BF0825002015
S11312F080B586B000AFF860B9607A60FB687B6146
S1131300FFF7E6FA7B6993F84430DBB25BB2B3F1E2
S1131310FF3F03D17B69002283F844207B6993F863
S11313204530DBB25BB2B3F1FF3F03D17B690022EE
S113133083F84520FFF7F4FA7B699B6B002B06D1F9
S11313407B6924331846B9687A6800F08FFB7869A2
S1131350FFF726FF1837BD4680BD00BF80B58CB0AF
S113136004AFF860B9603B601346FB80FB889B00C8
S11313701846FFF7DDF878617B69002B0ED050200A
S1131380FFF7D6F8F861FB69002B03D0FB697A6993
S11313901A6305E07869FFF711F901E00023FB61A6
S11313A0FB69002B13D0FA88BB6A0093FB6A019394
S11313B0FB69029300230393F868B9683B6800F063
S11313C00FF8F86900F086F80123BB6102E04FF0E2
S11313D0FF33BB61BB6918462037BD4680BD00BFE3
S11313E080B586B000AFF860B9607A603B60BB6AD4
S11313F01A6B7B6803F18043013B9B0013443B6100
S11314003B6923F007033B613B6903F00703002BAF
S113141004D02F4840F22B3101F030F900237B61D6
S113142013E0BA687B6913441978BA6A7B69134478
S113143030330A461A71BA687B6913441B78002B4F
S113144000D105E07B6901337B617B69092BE8D915
S1131450BB6A002283F83D203B6A022B01D9022398
S11314603B62BB6A3A6ADA62BB6A3A6A1A64BB6A6A
S113147000225A64BB6A04331846FFF7CFF8BB6AEC
S113148018331846FFF7CAF8BB6ABA6A1A613B6A8E
S1131490C3F10302BB6A9A61BB6ABA6A5A62BB6A45
S11314A000229A64BB6A002283F84C203869F968E8
S11314B03A68FFF745F90246BB6A1A607B6A002B5B
S11314C002D07B6ABA6A1A601837BD4680BD00BF75
S11314D03439000080B582B000AF7860FFF7F8F9C6
S11314E02B4B1B6801332A4A13602A4B1B68002BC1
S11314F009D1284A7B681360254B1B68012B10D146
S113150000F0C4FB0DE0244B1B68002B09D1214BD8
S11315101B68DA6A7B68DB6A9A4202D81D4A7B68D8
S113152013601E4B1B6801331C4A13607B68DB6A23
S11315301A46012303FA02F2194B1B681343184A93
S113154013607B68DA6A13469B0013449B00154AB8
S11315501A447B68043310461946FFF76BF8FFF70B
S1131560DFF90D4B1B68002B0ED00A4B1B68DA6A9F
S11315707B68DB6A9A4207D20B4B4FF080521A60A9
S1131580BFF34F8FBFF36F8F0837BD4680BD00BFD9
S113159098240020E8230020A4240020B424002060
S11315A0A0240020EC23002004ED00E080B584B0EA
S11315B000AF78600023FB607B68002B11D0104BD8
S11315C01B68002B04D00F4840F2CF4101F056F8BD
S11315D000F064F87868002100F02CFD00F06CF84D
S11315E0F860FB68002B07D1074B4FF080521A605C
S11315F0BFF34F8FBFF36F8F1037BD4680BD00BF61
S1131600C02400203439000004ED00E080B584B02B
S113161002AF002300931A4B01931A481A498C22F3
S11316200023FFF79BFE78607B68012B02D100F05A
S113163065FD78607B68012B15D14FF0BF0383F300
S11316401188BFF36F8FBFF34F8F3B600F4B4FF089
S1131650FF321A600E4B01221A600E4B00221A60F0
S1131660FFF7D8F808E07B68B3F1FF3F04D10A48DC
S113167040F2847101F002F80837BD4680BD00BF16
S1131680BC240020791C0000A0390000B8240020EC
S1131690A42400209C2400203439000080B400AF2E
S11316A0044B1B680133034A1360BD465DF8047B99
S11316B0704700BFC024002080B584B000AF002371
S11316C0FB600023BB603F4B1B68002B04D13E48EA
S11316D04FF4FD6100F0D2FFFFF7FAF8394B1B68B5
S11316E0013B384A1360374B1B68002B63D1374BDF
S11316F01B68002B5FD030E0354BDB68DB68FB6098
S1131700FB6818331846FEF7F1FFFB6804331846EC
S1131710FEF7ECFFFB68DB6A1A46012303FA02F2C8
S11317202C4B1B6813432B4A1360FB68DA6A13467D
S11317309B0013449B00284A1A44FB680433104658
S11317401946FEF777FFFB68DA6A244B1B68DB6AED
S11317509A4202D3224B01221A601D4B1B68002BB4
S1131760CAD1FB68002B01D000F018FB1D4B1B688D
S11317707B607B68002B10D000F048F80346002BF8
S113178002D0174B01221A607B68013B7B607B68A7
S1131790002BF1D1134B00221A60114B1B68002B54
S11317A009D00123BB60104B4FF080521A60BFF385
S11317B04F8FBFF36F8FFFF7B3F8BB68184610372E
S11317C0BD4680BDC0240020343900009824002088
S11317D058240020A0240020EC230020E82300202B
S11317E0AC240020A824002004ED00E080B483B0E1
S11317F000AF054B1B687B607B6818460C37BD4601
S11318005DF8047B704700BF9C24002080B586B03F
S113181000AF00237B614F4B1B68002B40F0898095
S11318204D4B1B6801333B614B4A3B6913603B6979
S1131830002B1AD1494B1B681B68002B04D0484865
S113184040F6D91100F01AFF444B1B68FB60454B6E
S11318501B68424A1360434AFB681360424B1B688F
S11318600133414A136000F099FA404B1B683A690E
S11318709A424FD3394B1B681B68002B01D10123BB
S113188000E00023002B04D0384B4FF0FF321A60E5
S113189040E0324B1B68DB68DB68BB60BB685B689D
S11318A07B603A697B689A4203D2304A7B68136052
S11318B030E0BB6804331846FEF718FFBB689B6A28
S11318C0002B04D0BB6818331846FEF70FFFBB6823
S11318D0DB6A1A46012303FA02F2254B1B68134301
S11318E0234A1360BB68DA6A13469B0013449B00C7
S11318F0204A1A44BB68043310461946FEF79AFE80
S1131900BB68DA6A1C4B1B68DB6A9A4201D3012369
S11319107B61AFE7184B1B68DA6A164913469B00D4
S113192013449B000B441B68012B01D901237B61E9
S113193004E0124B1B680133104A1360104B1B6800
S1131940002B01D001237B617B6918461837BD4603
S113195080BD00BFC02400209C240020502400200F
S11319603439000054240020B0240020B82400207E
S1131970A0240020EC230020E8230020A824002039
S1131980AC24002080B584B000AF224B1B68002B30
S113199003D0214B01221A6039E01F4B00221A6048
S11319A01E4B1B687B607B68B3FA83F3FB70FB7888
S11319B0C3F11F03FB601A49FA6813469B001344E2
S11319C09B000B441B68002B04D1164840F6F621FB
S11319D000F054FEFA6813469B0013449B00104A1F
S11319E01344BB60BB685B685A68BB685A60BB68D9
S11319F05A68BB6808339A4204D1BB685B685A686A
S1131A00BB685A60BB685B68DB68074A13601037C1
S1131A10BD4680BDC0240020AC240020A0240020AA
S1131A20EC23002034390000E823002080B582B084
S1131A3000AF786039607B68002B04D1094840F618
S1131A40063100F01BFE084B1B68183378681946F2
S1131A50FEF714FE3868012100F0ECFA0837BD46A1
S1131A6080BD00BF34390000E823002080B584B075
S1131A7000AFF860B9607A60FB68002B04D10C48B1
S1131A8040F6313100F0FAFD0A4B1B681833F86850
S1131A901946FEF7CFFD7B68002B02D04FF0FF33D1
S1131AA0BB60B868796800F0C5FA1037BD4680BDE0
S1131AB034390000E823002080B584B000AF78609A
S1131AC07B68DB68DB68BB60BB68002B04D1234800
S1131AD040F6613100F0D2FDBB6818331846FEF7BA
S1131AE005FE1F4B1B68002B1ED1BB680433184630
S1131AF0FEF7FCFDBB68DB6A1A46012303FA02F217
S1131B00184B1B681343174A1360BB68DA6A134601
S1131B109B0013449B00144A1A44BB6804331046C8
S1131B201946FEF787FD05E0BB6818330F481946D0
S1131B30FEF780FDBB68DA6A0D4B1B68DB6A9A42CC
S1131B4005D90123FB600B4B01221A6001E000233D
S1131B50FB60FB6818461037BD4680BD3439000071
S1131B60C0240020A0240020EC23002058240020BE
S1131B70E8230020AC24002080B582B000AF786058
S1131B807B68002B04D1084840F6C13100F076FD93
S1131B90064B1A687B681A60054B1A687B685A60A2
S1131BA00837BD4680BD00BF34390000B024002092
S1131BB09C24002080B584B000AF786039607B68D5
S1131BC0002B04D1234840F6CB3100F057FD3B688D
S1131BD0002B04D11F4840F6CC3100F04FFDFEF736
S1131BE077FE1D4B1B68BB603B681B68B3F1FF3F6E
S1131BF002D10023FB6026E07B681A68174B1B6840
S1131C009A4207D07B685A68BB689A4202D801237B
S1131C10FB6018E07B685B68BA68D21A3B681B6893
S1131C209A420ED23B681A687B685968BB68CB1A23
S1131C301A443B681A607868FFF79EFF0023FB6034
S1131C4001E00123FB60FEF76BFEFB6818461037CA
S1131C50BD4680BD343900009C240020B0240020FF
S1131C6080B400AF034B01221A60BD465DF8047BCB
S1131C70704700BFAC24002080B582B000AF78600C
S1131C8000F042F801F090FBFAE700BF80B582B0A3
S1131C9000AF00237B600CE07A6813469B0013447A
S1131CA09B00114A13441846FEF798FC7B680133E5
S1131CB07B607B68022BEFD90C48FEF78FFC0C4845
S1131CC0FEF78CFC0B48FEF789FC0B48FEF786FCFC
S1131CD00A48FEF783FC0A4B044A1A60094B044A7B
S1131CE01A600837BD4680BDEC230020282400205C
S1131CF03C240020582400206C240020842400204C
S1131D00502400205424002080B582B000AF28E085
S1131D10FFF7C4FC164B1B68002B0CBF01230023E8
S1131D20DBB27B60FFF7C8FC7B68002B19D1FEF7A0
S1131D30CFFD0F4BDB68DB683B603B680433184620
S1131D40FEF7D4FC0B4B1B68013B0A4A13600A4B99
S1131D501B68013B084A1360FEF7E2FD386800F097
S1131D600DF8054B1B68002BD2D10837BD4680BD4A
S1131D706C240020982400208024002080B582B0A8
S1131D8000AF78607B681B6B1846FEF717FC786819
S1131D90FEF714FC0837BD4680BD00BF80B483B095
S1131DA000AF0E4B1B681B68002B01D1012300E020
S1131DB00023002B04D00A4B4FF0FF321A6008E0D6
S1131DC0064B1B68DB68DB687B607B685B68044AE6
S1131DD013600C37BD465DF8047B70475024002027
S1131DE0B824002080B483B000AF0B4B1B68002BD9
S1131DF002D101237B6008E0084B1B68002B02D151
S1131E0002237B6001E000237B607B6818460C376B
S1131E10BD465DF8047B7047A4240020C024002044
S1131E2080B584B000AF78607B68FB607B68002B72
S1131E3064D0FB68DA6A334B1B68DB6A9A425DD272
S1131E40FB689B69002B06DB2E4B1B68DB6AC3F126
S1131E500302FB689A61FB685969FB68DA6A1346F6
S1131E609B0013449B00284A1344994201D1012347
S1131E7000E00023002B3CD0FB6804331846FEF737
S1131E8035FC0346002B15D1FB68DA6A1E4913465C
S1131E909B0013449B000B441B68002B0AD1FB6876
S1131EA0DB6A1A4601239340DA43184B1B6813403C
S1131EB0164A1360134B1B68DA6AFB68DA62FB6824
S1131EC0DB6A1A46012303FA02F2104B1B68134320
S1131ED00E4A1360FB68DA6A13469B0013449B00A6
S1131EE0094A1A44FB68043310461946FEF7A2FB5C
S1131EF004E0044B1B68DA6AFB68DA621037BD46FB
S1131F0080BD00BFE8230020EC230020A024002093
S1131F1080B584B000AF78607B68BB600023FB6051
S1131F207B68002B64D0354B1B68BA689A4204D096
S1131F30334840F6C76100F0A1FBBB685B6C002B23
S1131F4004D12F4840F6C96100F098FBBB685B6C74
S1131F505A1EBB685A64BB68DA6ABB681B6C9A4237
S1131F6046D0BB685B6C002B42D1BB680433184677
S1131F70FEF7BCFB0346002B15D1BB68DA6A214986
S1131F8013469B0013449B000B441B68002B0AD18F
S1131F90BB68DB6A1A4601239340DA431A4B1B6879
S1131FA01340194A1360BB681A6CBB68DA62BB68D9
S1131FB0DB6AC3F10302BB689A61BB68DB6A1A4639
S1131FC0012303FA02F2104B1B6813430E4A1360F9
S1131FD0BB68DA6A13469B0013449B00094A1A44FF
S1131FE0BB68043310461946FEF724FB0123FB604B
S1131FF0FB6818461037BD4680BD00BFE8230020AB
S113200034390000EC230020A024002080B400AF69
S1132010074B1B68002B04D0054B1B685A6C01321C
S11320205A64034B1B681846BD465DF8047B704731
S1132030E823002080B584B000AF78603960284B75
S11320401B68FB60274B1B6804331846FEF74EFBE6
S11320500346002B0BD1234B1B68DB6A1A46012372
S11320609340DA43204B1B6813401F4A13607B687C
S1132070B3F1FF3F0AD13B68002B07D0194B1B6813
S113208004331A481946FEF7D5FA26E0FA687B6845
S11320901344BB60134B1B68BA685A60BA68FB6888
S11320A09A4209D2124B1A680E4B1B68043310462D
S11320B01946FEF7E3FA10E00E4B1A68094B1B6849
S11320C0043310461946FEF7D9FA0B4B1B68BA685D
S11320D09A4202D2084ABB6813601037BD4680BDDD
S11320E09C240020E8230020A02400208424002035
S11320F05424002050240020B824002080B584B04B
S113210002AF00237B6000F083FA0E4B1B68002BA8
S11321100AD0022300930C4B01930C480C498C22E7
S11321200023FFF71BF978607B68002B04D1094872
S113213040F2331100F0A2FA7B6818460837BD4616
S113214080BD00BFF4240020F82400207122000088
S1132150A8390000B039000080B588B000AFF8603D
S1132160B9607A603B600023FB61FB68002B04D1FB
S11321701F484FF4D37100F081FA1E4B1B68002BEB
S113218030D0BB683B617B687B61FB68BB61BB682B
S1132190052B1CDCFFF726FE0346022B0BD1154B47
S11321A01A6807F1100310461946BA6A0023FEF7AD
S11321B00BFDF86116E00F4B1A6807F11003104687
S11321C0194600220023FEF7FFFCF8610AE0094BE0
S11321D01A6807F11003104619463A680023FEF7FF
S11321E0D1FDF861FB6918462037BD4680BD00BFAC
S11321F0B0390000F424002080B586B002AF7860C6
S11322003960194B1B68DB68DB68FB60FB680433CF
S11322101846FEF76BFAFB68DB69012B1DD1FB68DE
S11322209A697B681344F86819463A687B6800F039
S1132230C3F80346002B10D000230093F868002154
S11322407A680023FFF788FFB860BB68002B04D1CD
S113225006484FF4027100F011FAFB685B6AF868F3
S113226098471037BD4680BDEC240020B0390000EB
S113227080B584B000AF786007F10803184600F019
S113228057F8F860BB68F868194600F003F800F0E6
S1132290D5F8F1E780B584B000AF78603960FFF716
S11322A0FDF907F10803184600F066F8F860BB680A
S11322B0002B31D13B68002B0AD17A68FB689A4223
S11322C006D8FFF7F9F97868F968FFF795FF25E074
S11322D03B68002B08D0134B1B681B68002B0CBFFA
S11322E001230023DBB23B600F4B19687A68FB685B
S11322F0D31A084619463A68FEF7FAFFFFF7DCF9E5
S11323000346002B0AD1094B4FF080521A60BFF3E9
S11323104F8FBFF36F8F01E0FFF7CEF91037BD4643
S113232080BD00BFF0240020F424002004ED00E070
S113233080B485B000AF78600E4B1B681B68002B1F
S11323400CBF01230023DBB21A467B681A607B684A
S11323501B68002B05D1074B1B68DB681B68FB60FF
S113236001E00023FB60FB6818461437BD465DF8A6
S1132370047B7047EC24002080B584B000AF786003
S1132380FFF734FAF8600B4B1B68FA689A4205D2DF
S113239000F0E2F87B6801221A6002E07B68002208
S11323A01A60044AFB681360FB6818461037BD4680
S11323B080BD00BFFC24002080B586B000AFF8606B
S11323C0B9607A603B6000237B61FB68BA685A603D
S11323D0FB68FA681A61BA687B689A4212D87A680C
S11323E03B68D21AFB689B699A4202D301237B6142
S11323F01BE0104B1A68FB68043310461946FEF7BD
S11324003DF912E07A683B689A4206D2BA683B68A2
S11324109A4202D301237B6107E0074B1A68FB68E9
S1132420043310461946FEF729F97B691846183714
S1132430BD4680BDF0240020EC24002080B58AB085
S113244002AF73E0BB68002B70DB3B69FB61FB6987
S11324505B69002B04D0FB6904331846FEF746F988
S11324603B1D1846FFF788FFB861BB68092B5CD891
S113247001A252F823F000BFA1240000A12400000F
S1132480A12400002D250000F524000023250000D0
S1132490A1240000A12400002D250000F524000043
S11324A0FA68FB699B691A44FB68F8691146BA69C2
S11324B0FFF782FF0346002B1BD0FB695B6AF869B8
S11324C09847FB69DB69012B13D1FA68FB699B69A7
S11324D01A4400230093F86900210023FFF73CFE0F
S11324E078617B69002B04D1194840F2213100F056
S11324F0C5F81BE0FA68FB699A61FB699B69002BCC
S113250004D113484FF44E7100F0B8F8FB699A698E
S1132510BB691344F8691946BA69BB69FFF74CFFF4
S113252004E0F869FEF74AF800E000BF094B1A68B6
S113253007F108031046194600220023FEF7A0FC09
S11325400346002B7FF47EAF2037BD4680BD00BF1D
S1132550B0390000F424002080B588B002AF3FE019
S1132560284B1B68DB681B687B61264B1B68DB6898
S1132570DB683B613B6904331846FEF7B7F83B69F7
S11325805B6A386998473B69DB69012B28D13B6951
S11325909A697B691344FB60FA687B699A420ED995
S11325A03B69FA685A603B693A691A61154B1A68C3
S11325B03B69043310461946FEF760F810E0002327
S11325C00093386900217A690023FFF7C5FDB860DC
S11325D0BB68002B04D10C4840F2923100F04EF855
S11325E0084B1B681B68002BBAD1064B1B687B6029
S11325F0064B1B68034A1360044A7B681360183750
S1132600BD4680BDEC240020B0390000F024002039
S113261080B500AFFEF75CF9124B1B68002B1DD18F
S11326201148FDF7DBFF1148FDF7D8FF104B0E4AA8
S11326301A60104B0D4A1A600A200C210022FEF782
S11326406FFA0246074B1A60064B1B68002B05D035
S1132650044B1B6818460849FEF722FEFEF760F992
S113266080BD00BFF4240020C4240020D82400200E
S1132670EC240020F02400201C3A000080B483B035
S113268000AF78603960FEE780B487B000AFF860CF
S1132690B9607A60FB6803F10473DA00BB68134421
S11326A09B007B617B697A681A601C37BD465DF8C4
S11326B0047B704780B485B000AF786039607B6874
S11326C003F10473DA003B6813449B00FB60FB686E
S11326D01B6818461437BD465DF8047B704700BF7D
S11326E080B584B000AF78607B68002B03D07B6832
S11326F0B3F5004F04D9084840F21951FFF7BEFF63
S11327007B68B3FA83F3C3F11F03FB60FB681846CD
S11327101037BD4680BD00BF243A000080B485B0A8
S113272000AF7860214BDB6B002B14BF0123002327
S1132730BB721E4B41F67132DA631C4B5B6803F0CB
S11327400703FB60FB68012B02D80023FB7202E045
S11327500123FB7200BF7B68154A93420BD87B6848
S1132760144A934207D9FB7A002B01D0032300E0DB
S11327700123FB6006E0FB7A002B01D0022300E07A
S11327800023FB600949094B5B6823F00702FB68DF
S113279013434B60BB7A002B02D0044B0022DA6354
S11327A01437BD465DF8047B704700BF00000C4041
S11327B00048E8010024F40080B500AFFDF726FDD1
S11327C003461846FFF7AAFF80BD00BF80B483B05C
S11327D000AF7860094B5B6D03F00103002B00D060
S11327E006E000BF054B1A6D7B681340002BF9D13E
S11327F00C37BD465DF8047B704700BF00800C4079
S1132800B0B584B000AF786039607B681B0903F011
S11328100F03FB60FB68043B032B00F2EA8001A278
S113282052F823F03528000067280000A92800008A
S1132830732900003B68002B03D03B68B3F5007F8D
S113284004D9704840F2F541FFF718FF3868FFF7E4
S113285047FF38606C496C4B9B6823F00F023B6860
S113286013438B60CBE03B68002B03D03B68B3F58C
S1132870007F04D9634840F2FD41FFF7FFFEFFF7F4
S11328809BFF3868FFF72CFF38605F495E4B5B683D
S113289023F00F023B6813434B60FDF79DFCB860C7
S11328A0B868FFF73BFFAAE07B68584A93421ED002
S11328B0574A934235D0574A934253D13B68B3F5B4
S11328C0004F04D94F4840F21951FFF7D7FE0420B6
S11328D0FFF77CFF3868FFF703FF38604A494A4B2B
S11328E09B6E23F00F023B6813438B6640E03B680A
S11328F0B3F5004F04D9434840F22751FFF7BEFE19
S11329000420FFF763FF3868FFF7EAFE38603E49AA
S11329103D4B9B6E23F0F0023B681B0113438B6617
S113292026E03B680F2B02D93B68802B04D935483D
S113293040F23651FFF7A2FE0420FFF747FF386844
S1132940FFF7CEFE3860304D2F4B9B6E23F440745E
S11329501020FFF7C5FE02463B689B1A1B02234367
S1132960AB6605E0274840F25451FFF787FE00BFED
S113297045E07B68284A934203D0284A934218D002
S113298030E03B68082B04D91E4840F25E51FFF743
S113299075FE4020FFF71AFF3868FFF7A1FE386084
S11329A01949194B1B6F23F003023B6813430B6750
S11329B01EE03B68082B04D9124840F26D51FFF722
S11329C05DFE4020FFF702FF3868FFF789FE38609C
S11329D00D490D4B1B6F23F030023B681B01134361
S11329E00B6705E0074840F27B51FFF747FE00BF45
S11329F005E0044840F28151FFF740FE00BF103764
S1132A00BD46B0BD843A000000800C40601614003E
S1132A10600026006006100070071600701718008A
S1132A2080B586B000AF78600B46FB7000233B6135
S1132A307B681B0A03F00F03013B092B2CD801A26E
S1132A4052F823F0732A0000792A00006D2A00004E
S1132A50992A0000992A00007F2A0000892A000090
S1132A60992A0000992A0000932A0000174B7B61E1
S1132A7018E0174B7B6115E0164B7B6112E0164B97
S1132A807B6101233B610DE0144B7B6110233B61AF
S1132A9008E0134B7B6105E012484FF4BD61FFF77A
S1132AA0EDFD10E07B681B0B03F01F03FB603B692B
S1132AB0002B02D03869FFF789FEFB787869F96842
S1132AC01A46FFF7E1FD1837BD4680BD40800C4033
S1132AD008800C4044800C4058800C4060800C40BE
S1132AE078800C40843A000080B588B000AF7860EC
S1132AF00B46FB700323FB610323FB767B6803F027
S1132B000F033B613B69012B06D0012BC0F08D8084
S1132B10032B00F28A803DE0FB78023B032B1FD895
S1132B2001A252F823F000BF392B0000432B000010
S1132B304D2B0000572B00000423FB610023FB7680
S1132B4014E00323FB610123FB760FE00223FB6106
S1132B500223FB760AE00123FB610323FB7605E0F5
S1132B60364840F6FA11FFF789FD64E0FB7E18460B
S1132B700121012200F068F8FFF71EFE304AFB69CC
S1132B80536200F071FAFDF727FBF860F868FFF76D
S1132B90C5FD50E0FB78013B052B2AD801A252F871
S1132BA023F000BFBD2B0000C32B0000D32B00007B
S1132BB0F32B0000F32B0000E32B000000237B61C8
S1132BC01DE000200121012200F03EF802237B6178
S1132BD015E001200121012200F036F801237B6178
S1132BE00DE0184802210122FFF74EFD03237B610B
S1132BF005E0124840F67D21FFF740FD1BE03B69EC
S1132C00022B08D10E490E4B9B6A23F003027B6909
S1132C1013438B620FE00A49094B9B6A23F00C02B1
S1132C207B699B0013438B6205E0044840F628311E
S1132C30FFF724FD00BF2037BD4680BD843A000065
S1132C4000800C4040800C4080B586B000AF034645
S1132C50FB710B46BB7113467B71FB79042B32D895
S1132C6001A252F823F000BFB52C0000A72C0000ED
S1132C708B2C00007D2C0000992C000001233B616B
S1132C800223FB6001237B6123E004233B610823CF
S1132C90FB6003237B611CE010233B612023FB606A
S1132CA005237B6115E040233B618023FB60072300
S1132CB07B610EE04FF480733B614FF40073FB6063
S1132CC009237B6105E0104840F6DF51FFF7D6FC8D
S1132CD016E0BB79002B0ED00C4A3B6913627B795A
S1132CE0002B0BD000BF0A487969FFF7E3FC0346C9
S1132CF0002BF8D002E0054AFB68136200F0B4F937
S1132D001837BD4680BD00BF843A000000800C40E7
S1132D102C800C4080B483B000AFEFF310833B6091
S1132D203B687B6072B67B6818460C37BD465DF81D
S1132D30047B704780B483B000AF78607B68002B5D
S1132D4000D162B60C37BD465DF8047B704700BF06
S1132D5080B500AFFDF740FA80BD00BF80B400AF7E
S1132D60034B4AF6E8529A60BD465DF8047B70470F
S1132D7000600C4080B400AF034B0022C3F88420F1
S1132D80BD465DF8047B704700800C4080B400AF02
S1132D90044B45F60E02C3F88420BD465DF8047B5F
S1132DA0704700BF00800C4080B582B000AF384B44
S1132DB0D3F8843003F001037B60FFF7E7FF0023BF
S1132DC03B60344B1B6803F001033A6813433B60D8
S1132DD0304B1B6803F010033A6813433B602D4BE0
S1132DE01B6803F040033A6813433B60294B1B689C
S1132DF003F004033A6813433B60264B1B6803F457
S1132E0080733A6813433B60214A3B681362214B49
S1132E101B6803F47053B3F5805F06D0B3F5005F0D
S1132E200ED0B3F5006F16D020E000BF184BDB6A5C
S1132E3003F08003002BF9D0154B03225A6215E0EE
S1132E4000BF134BDB6A03F40073002BF9D0104B63
S1132E5004225A620AE000BF0D4BDB6A03F0080348
S1132E60002BF9D00A4B02225A6200BF094B1B689F
S1132E7003F00103002B02D1054B02221A627B6886
S1132E80002B01D0FFF776FF0837BD4680BD00BF99
S1132E9000800C400025002080B483B000AF134BA9
S1132EA01B699BB203F03F039BB21B02FB800F4BD9
S1132EB09B6903F0F0039AB2FB881343FB800B4B2E
S1132EC0DB6903F0F0031B099AB2FB881343FB8010
S1132ED0FB8840F20312934294BF01230023DBB228
S1132EE018460C37BD465DF8047B7047D0FF0FE0F1
S1132EF080B586B000AF0346FB71194BDB6A194AF3
S1132F001360194A184B1B6943F004031361FFF75C
S1132F10C3FF0346FB75FB7D002B08D0134B1A68D7
S1132F20134B1340FB60114AFB68C2F8803030BF7A
S1132F30FB7D002B02D00D4AFB681360FB79002B4C
S1132F4002D0FFF731FF07E0064B1B6803F48063F0
S1132F50002B01D1FFF7FCFE1837BD4680BD00BF32
S1132F6000800C400025002000ED00E000E100E0BE
S1132F70DCFC03F280B586B000AF0346FB71214B45
S1132F80DB6A214A13601F4BD3F8843003F001033A
S1132F907B61FFF7FBFE1B4B4FF420721A627B69C7
S1132FA0002B01D0FFF7E6FE184A184B1B6943F0CB
S1132FB004031361FFF770FF0346FB74FB7C002BD3
S1132FC008D0134B1A68134B1340BB60104ABB68FC
S1132FD0C2F8803030BFFB7C002B02D00C4ABB68A7
S1132FE01360FB79002B02D0FFF7DEFE07E0064BEF
S1132FF01B6803F48063002B01D1FFF7A9FE183787
S1133000BD4680BD00800C400025002000ED00E09E
S113301000E100E0DCFC03F280B584B000AF114BAA
S11330201B6823F00C0343F00803BB600D4B1B68C3
S113303043F00C037B60FFF791FE0023FB6008E084
S1133040084ABB681360074A7B681360FB68013356
S1133050FB60FB68032BF3DD024ABB681360103787
S1133060BD4680BD00600C4080B400AF034BDB6AFA
S1133070034A1360BD465DF8047B704700800C4032
S11330800025002080B487B000AFF860B9607A6092
S1133090FB6803F10473DA00BB6813449B007B6193
S11330A07B697A681A601C37BD465DF8047B7047FB
S11330B080B483B000AF7860094B1B6A03F001034E
S11330C0002B00D006E000BF054B5A6A7B68134012
S11330D0002BF9D10C37BD465DF8047B704700BF67
S11330E00000084080B584B000AF78607B68012B95
S11330F003D90D487921FFF7C1FA7B68002B02D070
S1133100012B04D007E0094B9B68FB6006E0074BEA
S1133110DB68FB6002E00023FB6000BFFB6818462D
S11331201037BD4680BD00BFE43A000000000840EF
S113313080B584B000AF786039607B68012B04D817
S11331403B6803F07F43002B03D00E48AA21FFF70E
S113315095FA7B68002B02D0012B05D00FE00A4BB7
S1133160FB600223BB6004E0084BFB600423BB60EC
S113317000BFB868FFF79CFFFB683A681A60103715
S1133180BD4680BDE43A0000080008400C00084039
S113319080B582B000AF0346FB710120FFF788FFC2
S11331A0FB79054800211A46FFF76CFF0120FFF761
S11331B07FFF0837BD4680BD0000084080B584B05D
S11331C000AF78607B681B78002B02D00123FB6082
S11331D001E00023FB607B685B78002B03D0FB6875
S11331E043F00203FB607B689B78002B03D0FB68F1
S11331F043F00403FB600120FFF75AFF024AFB6817
S113320013601037BD4680BD0000084080B584B00F
S113321000AF78607B68002B03D11A483E21FFF78A
S11332202DFA194B5B69DBB203F00F03DBB29B0091
S1133230FB73154B1B6903F0C0039B09DAB2FB7BDC
S11332401343FB737B68FA7B9A700F4B1B69DBB2E9
S113325003F03F03DAB27B685A700B4B9B69DBB215
S113326023F00F03FB73084BDB6903F0F0031B0926
S1133270DAB2FB7B1343FB737B68FA7B1A7010375B
S1133280BD4680BD443B0000D0FF0FE080B483B056
S113329000AF0346FB71084997F907305B09FA79D7
S11332A002F01F02012000FA02F241F823200C3739
S11332B0BD465DF8047B704700E100E080B483B054
S11332C000AF0346FB71094997F907305B09FA79A6
S11332D002F01F02012000FA02F2603341F82320B9
S11332E00C37BD465DF8047B704700BF00E100E089
S11332F080B483B000AF03463960FB7197F907309F
S1133300002B0BDA0D49FB7903F00F03043B3A68F9
S1133310D2B25201D2B20B441A7609E0084997F9A5
S113332007303A68D2B25201D2B20B4483F8002378
S11333300C37BD465DF8047B704700BF00ED00E02C
S113334000E100E080B483B000AF7860034A7B689A
S113335093610C37BD465DF8047B7047000008405C
S113336080B483B000AF78600549054BDA697B68A7
S1133370DB431340CB610C37BD465DF8047B7047DB
S11333800000084080B483B000AF78600549054B65
S1133390DA697B681343CB610C37BD465DF8047B67
S11333A0704700BF0000084080B500AFFDF702F889
S11333B080BD00BF80B584B000AF0020FFF792FE4F
S11333C0024680239A420AD00020FFF7E1FE8023C0
S11333D000201946FFF7ACFE0120FFF7D9FE0720B5
S11333E0FFF7B0FFEFF311824FF0BF0383F31188AF
S11333F0BFF36F8FBFF34F8FBA607B60FEF706FA9F
S1133400F860FB68002B07D0074B4FF080521A601E
S1133410BFF34F8FBFF36F8F00233B603B6883F391
S113342011881037BD4680BD04ED00E080B582B040
S113343000AF1C480121FFF7F3FA1B480221FFF7F4
S113344053FB1A480221FFF7DBF918480121FFF763
S1133450E7FA00233B7100237B710123BB713B1D01
S11334601846FFF7ABFE0220FFF77AFF1820FF2172
S1133470FFF73EFF1820FFF721FF1820FFF706FF94
S1133480802300201946FFF753FE0220FFF75AFF5E
S11334900220FFF777FF0120FFF77AFE0837BD46C9
S11334A080BD00BF0023020002001A006006100065
S11334B080B584B000AF514B1B68FB60FB681B0EEA
S11334C0002B15D14E4BBB60BB681B6823F0700208
S11334D0BB681A604B4BBB60BB681B6823F060423F
S11334E0BB681A60BB681B6863F06062BB681A60E3
S11334F0FB681B0E032B20D8424BBB60BB681B68C8
S113350023F4FC52BB681A603F4BBB60BB680022CB
S11335101A603E4BBB60BB6800221A603C4BBB6028
S1133520BB6800221A603B4BBB60BB6800221A6078
S1133530394BBB60BB6800221A603B461846FFF754
S113354065FE7B78012B15D13B78002B07D12E4BE0
S1133550BB60BB681B6843F00202BB681A603B781F
S1133560012B07D8294BBB60BB681B6843F00102E1
S1133570BB681A60294B1B68FB60FB68284A9342AE
S113358039D8224BBB60BB681B6843F49042BB68CC
S11335901A60244B1B6803F4FE431B0A1B067B6062
S11335A0204B1B6803F07F031B047A6813437B6082
S11335B01C4B1B6803F4FE437A6813437B60194B6E
S11335C01B6803F07F037A6813437B60164BBB6070
S11335D0BB687A681A60154BBB60154B1B687B602F
S11335E0BB687A681A60094BBB60BB681B6823F42C
S11335F09042BB681A601037BD4680BDFC81E00F65
S11336000CA00C4020600C4040800C4044800C40D6
S113361058800C4060800C4078800C40F081E00FB2
S1133620FFB98A4CB481E00F342000402C400040A4
S1133630C881E00F80B584B000AF78607B68FB6020
S1133640FB681B68BB60B868FDF7B0FFFBE700BF11
S113365080B582B002AFFFF72BFF00200021FCF7FA
S11336608DFE0320FCF7C6FE012300930023019383
S11336700A480B4996220B4BFDF770FE0123009379
S113368000230193054808499622084BFDF766FE7E
S1133690FDF7BCFF00231846BD4680BD353600004B
S11336A0A43B00000C000020B03B000014000020EC
S11336B008B5074B044613B10021AFF30080054B56
S11336C01868836A03B19847204600F03FF800BFAA
S11336D000000000BC3B00000E4B70B51E460E4CB3
S11336E00025E41AA410A54204D056F825309847C2
S11336F00135F8E700F02CF8084B094C1E46E41A93
S1133700A4100025A54204D056F825309847013569
S1133710F8E770BD7C0000207C0000207C000020C5
S11337208000002010B5431E0A44914204D011F8D1
S1133730014B03F8014FF8E710BD034602449342DE
S113374002D003F8011BFAE770470000FEE700BF50
S1133750F8B500BFF8BC08BC9E467047F8B500BF7A
S1133760F8BC08BC9E467047433A2F53696C6963A2
S11337706F6E4C6162732F53696D706C6963697409
S11337807953747564696F2F76342F646576656C2C
S11337906F7065722F73646B732F65787833322F73
S11337A076352E302E302E302F706C6174666F7229
S11337B06D2F656D6472762F736C6565702F7372EF
S11337C0632F736C6565702E63000000433A2F53BA
S11337D0696C69636F6E4C6162732F53696D706CB1
S11337E0696369747953747564696F2F76342F64CF
S11337F06576656C6F7065722F73646B732F657873
S11338007833322F76352E302E302E302F75746962
S11338106C2F74686972645F70617274792F667258
S1133820656572746F732F536F757263652F706F54
S1133830727461626C652F4D656D4D616E672F68A2
S11338406561705F312E6300433A2F53696C69637D
S11338506F6E4C6162732F53696D706C6963697428
S11338607953747564696F2F76342F646576656C4B
S11338706F7065722F73646B732F65787833322F92
S113388076352E302E302E302F7574696C2F746877
S11338906972645F70617274792F6672656572749F
S11338A06F732F536F757263652F706F72746162DB
S11338B06C652F4743432F41524D5F434D332F7067
S11338C06F72742E63000000433A2F53696C69636E
S11338D06F6E4C6162732F53696D706C69636974A8
S11338E07953747564696F2F76342F646576656CCB
S11338F06F7065722F73646B732F65787833322F12
S113390076352E302E302E302F7574696C2F7468F6
S11339106972645F70617274792F6672656572741E
S11339206F732F536F757263652F71756575652E8F
S113393063000000433A2F53696C69636F6E4C61F6
S113394062732F53696D706C69636974795374750C
S113395064696F2F76342F646576656C6F70657259
S11339602F73646B732F65787833322F76352E304E
S11339702E302E302F7574696C2F74686972645FF1
S113398070617274792F6672656572746F732F53E8
S11339906F757263652F7461736B732E630000001F
S11339A049444C4500000000546D72205376630076
S11339B0433A2F53696C69636F6E4C6162732F5382
S11339C0696D706C696369747953747564696F2F78
S11339D076342F646576656C6F7065722F73646BD3
S11339E0732F65787833322F76352E302E302E3083
S11339F02F7574696C2F74686972645F7061727476
S1133A00792F6672656572746F732F536F75726365
S1133A10652F74696D6572732E630000546D725165
S1133A2000000000633A5C73696C69636F6E6C61DB
S1133A3062735C73696D706C6963697479737475AE
S1133A4064696F5C76345C646576656C6F7065720E
S1133A505C73646B735C65787833325C76352E30D6
S1133A602E302E305C706C6174666F726D5C656DA7
S1133A706C69625C696E635C656D5F636D752E680D
S1133A8000000000433A2F53696C69636F6E4C6108
S1133A9062732F53696D706C6963697479537475BB
S1133AA064696F2F76342F646576656C6F70657208
S1133AB02F73646B732F65787833322F76352E30FD
S1133AC02E302E302F706C6174666F726D2F656DA1
S1133AD06C69622F7372632F656D5F636D752E63FE
S1133AE000000000433A2F53696C69636F6E4C61A8
S1133AF062732F53696D706C69636974795374755B
S1133B0064696F2F76342F646576656C6F706572A7
S1133B102F73646B732F65787833322F76352E309C
S1133B202E302E302F706C6174666F726D2F656D40
S1133B306C69622F7372632F656D5F7274632E6399
S1133B4000000000433A2F53696C69636F6E4C6147
S1133B5062732F53696D706C6963697479537475FA
S1133B6064696F2F76342F646576656C6F70657247
S1133B702F73646B732F65787833322F76352E303C
S1133B802E302E302F706C6174666F726D2F656DE0
S1133B906C69622F7372632F656D5F7379737465DB
S1133BA06D2E63004C6564426C696E6B31000000DD
S1133BB04C6564426C696E6B320043001C0000204B
S1073BC000000000FD
S10B3BC454C5FF7F010000005D
S1133BCC0048E80100800000AAAAAAAA800000000C
S1133BDC0000000040000000010000000000000094
S1133BEC00000000000000000000000000000000C5
S1133BFC000000000000000000000000BA3B0000C0
S1133C0C00000000000000000000000000000000A4
S1133C1C0000000000000000000000000000000094
S1133C2C0000000000000000000000000000000084
S1133C3C000000000000000000000000E100000093
S10B3C4CBD00000000000000AF
S903018D6E
